{
  "address": "0xB79Cce1938500A15921749ed3E2947f93394b23c",
  "abi": [
    {
      "inputs": [],
      "stateMutability": "nonpayable",
      "type": "constructor"
    },
    {
      "anonymous": false,
      "inputs": [
        {
          "indexed": true,
          "internalType": "address",
          "name": "owner",
          "type": "address"
        },
        {
          "indexed": true,
          "internalType": "address",
          "name": "spender",
          "type": "address"
        },
        {
          "indexed": false,
          "internalType": "uint256",
          "name": "value",
          "type": "uint256"
        }
      ],
      "name": "Approval",
      "type": "event"
    },
    {
      "anonymous": false,
      "inputs": [
        {
          "indexed": false,
          "internalType": "address",
          "name": "account",
          "type": "address"
        }
      ],
      "name": "Paused",
      "type": "event"
    },
    {
      "anonymous": false,
      "inputs": [
        {
          "indexed": true,
          "internalType": "bytes32",
          "name": "role",
          "type": "bytes32"
        },
        {
          "indexed": true,
          "internalType": "bytes32",
          "name": "previousAdminRole",
          "type": "bytes32"
        },
        {
          "indexed": true,
          "internalType": "bytes32",
          "name": "newAdminRole",
          "type": "bytes32"
        }
      ],
      "name": "RoleAdminChanged",
      "type": "event"
    },
    {
      "anonymous": false,
      "inputs": [
        {
          "indexed": true,
          "internalType": "bytes32",
          "name": "role",
          "type": "bytes32"
        },
        {
          "indexed": true,
          "internalType": "address",
          "name": "account",
          "type": "address"
        },
        {
          "indexed": true,
          "internalType": "address",
          "name": "sender",
          "type": "address"
        }
      ],
      "name": "RoleGranted",
      "type": "event"
    },
    {
      "anonymous": false,
      "inputs": [
        {
          "indexed": true,
          "internalType": "bytes32",
          "name": "role",
          "type": "bytes32"
        },
        {
          "indexed": true,
          "internalType": "address",
          "name": "account",
          "type": "address"
        },
        {
          "indexed": true,
          "internalType": "address",
          "name": "sender",
          "type": "address"
        }
      ],
      "name": "RoleRevoked",
      "type": "event"
    },
    {
      "anonymous": false,
      "inputs": [
        {
          "indexed": true,
          "internalType": "address",
          "name": "from",
          "type": "address"
        },
        {
          "indexed": true,
          "internalType": "address",
          "name": "to",
          "type": "address"
        },
        {
          "indexed": false,
          "internalType": "uint256",
          "name": "value",
          "type": "uint256"
        }
      ],
      "name": "Transfer",
      "type": "event"
    },
    {
      "anonymous": false,
      "inputs": [
        {
          "indexed": false,
          "internalType": "address",
          "name": "account",
          "type": "address"
        }
      ],
      "name": "Unpaused",
      "type": "event"
    },
    {
      "inputs": [],
      "name": "BURNER_ROLE",
      "outputs": [
        {
          "internalType": "bytes32",
          "name": "",
          "type": "bytes32"
        }
      ],
      "stateMutability": "view",
      "type": "function"
    },
    {
      "inputs": [],
      "name": "DEFAULT_ADMIN_ROLE",
      "outputs": [
        {
          "internalType": "bytes32",
          "name": "",
          "type": "bytes32"
        }
      ],
      "stateMutability": "view",
      "type": "function"
    },
    {
      "inputs": [],
      "name": "MINTER_ROLE",
      "outputs": [
        {
          "internalType": "bytes32",
          "name": "",
          "type": "bytes32"
        }
      ],
      "stateMutability": "view",
      "type": "function"
    },
    {
      "inputs": [],
      "name": "TREASURY_ROLE",
      "outputs": [
        {
          "internalType": "bytes32",
          "name": "",
          "type": "bytes32"
        }
      ],
      "stateMutability": "view",
      "type": "function"
    },
    {
      "inputs": [
        {
          "internalType": "address",
          "name": "owner",
          "type": "address"
        },
        {
          "internalType": "address",
          "name": "spender",
          "type": "address"
        }
      ],
      "name": "allowance",
      "outputs": [
        {
          "internalType": "uint256",
          "name": "",
          "type": "uint256"
        }
      ],
      "stateMutability": "view",
      "type": "function"
    },
    {
      "inputs": [
        {
          "internalType": "address",
          "name": "spender",
          "type": "address"
        },
        {
          "internalType": "uint256",
          "name": "amount",
          "type": "uint256"
        }
      ],
      "name": "approve",
      "outputs": [
        {
          "internalType": "bool",
          "name": "",
          "type": "bool"
        }
      ],
      "stateMutability": "nonpayable",
      "type": "function"
    },
    {
      "inputs": [
        {
          "internalType": "address",
          "name": "account",
          "type": "address"
        }
      ],
      "name": "balanceOf",
      "outputs": [
        {
          "internalType": "uint256",
          "name": "",
          "type": "uint256"
        }
      ],
      "stateMutability": "view",
      "type": "function"
    },
    {
      "inputs": [
        {
          "internalType": "address",
          "name": "from",
          "type": "address"
        },
        {
          "internalType": "uint256",
          "name": "amount",
          "type": "uint256"
        }
      ],
      "name": "burn",
      "outputs": [],
      "stateMutability": "nonpayable",
      "type": "function"
    },
    {
      "inputs": [],
      "name": "decimals",
      "outputs": [
        {
          "internalType": "uint8",
          "name": "",
          "type": "uint8"
        }
      ],
      "stateMutability": "view",
      "type": "function"
    },
    {
      "inputs": [
        {
          "internalType": "address",
          "name": "spender",
          "type": "address"
        },
        {
          "internalType": "uint256",
          "name": "subtractedValue",
          "type": "uint256"
        }
      ],
      "name": "decreaseAllowance",
      "outputs": [
        {
          "internalType": "bool",
          "name": "",
          "type": "bool"
        }
      ],
      "stateMutability": "nonpayable",
      "type": "function"
    },
    {
      "inputs": [
        {
          "internalType": "bytes32",
          "name": "role",
          "type": "bytes32"
        }
      ],
      "name": "getRoleAdmin",
      "outputs": [
        {
          "internalType": "bytes32",
          "name": "",
          "type": "bytes32"
        }
      ],
      "stateMutability": "view",
      "type": "function"
    },
    {
      "inputs": [
        {
          "internalType": "bytes32",
          "name": "role",
          "type": "bytes32"
        },
        {
          "internalType": "uint256",
          "name": "index",
          "type": "uint256"
        }
      ],
      "name": "getRoleMember",
      "outputs": [
        {
          "internalType": "address",
          "name": "",
          "type": "address"
        }
      ],
      "stateMutability": "view",
      "type": "function"
    },
    {
      "inputs": [
        {
          "internalType": "bytes32",
          "name": "role",
          "type": "bytes32"
        }
      ],
      "name": "getRoleMemberCount",
      "outputs": [
        {
          "internalType": "uint256",
          "name": "",
          "type": "uint256"
        }
      ],
      "stateMutability": "view",
      "type": "function"
    },
    {
      "inputs": [
        {
          "internalType": "bytes32",
          "name": "role",
          "type": "bytes32"
        },
        {
          "internalType": "address",
          "name": "account",
          "type": "address"
        }
      ],
      "name": "grantRole",
      "outputs": [],
      "stateMutability": "nonpayable",
      "type": "function"
    },
    {
      "inputs": [
        {
          "internalType": "bytes32",
          "name": "role",
          "type": "bytes32"
        },
        {
          "internalType": "address",
          "name": "account",
          "type": "address"
        }
      ],
      "name": "hasRole",
      "outputs": [
        {
          "internalType": "bool",
          "name": "",
          "type": "bool"
        }
      ],
      "stateMutability": "view",
      "type": "function"
    },
    {
      "inputs": [
        {
          "internalType": "address",
          "name": "spender",
          "type": "address"
        },
        {
          "internalType": "uint256",
          "name": "addedValue",
          "type": "uint256"
        }
      ],
      "name": "increaseAllowance",
      "outputs": [
        {
          "internalType": "bool",
          "name": "",
          "type": "bool"
        }
      ],
      "stateMutability": "nonpayable",
      "type": "function"
    },
    {
      "inputs": [
        {
          "internalType": "address payable",
          "name": "treasury_",
          "type": "address"
        }
      ],
      "name": "initialize",
      "outputs": [],
      "stateMutability": "nonpayable",
      "type": "function"
    },
    {
      "inputs": [
        {
          "internalType": "address",
          "name": "to",
          "type": "address"
        },
        {
          "internalType": "uint256",
          "name": "amount",
          "type": "uint256"
        }
      ],
      "name": "mint",
      "outputs": [],
      "stateMutability": "nonpayable",
      "type": "function"
    },
    {
      "inputs": [],
      "name": "name",
      "outputs": [
        {
          "internalType": "string",
          "name": "",
          "type": "string"
        }
      ],
      "stateMutability": "view",
      "type": "function"
    },
    {
      "inputs": [],
      "name": "netWorth",
      "outputs": [
        {
          "internalType": "uint256",
          "name": "",
          "type": "uint256"
        }
      ],
      "stateMutability": "view",
      "type": "function"
    },
    {
      "inputs": [],
      "name": "pause",
      "outputs": [],
      "stateMutability": "nonpayable",
      "type": "function"
    },
    {
      "inputs": [],
      "name": "paused",
      "outputs": [
        {
          "internalType": "bool",
          "name": "",
          "type": "bool"
        }
      ],
      "stateMutability": "view",
      "type": "function"
    },
    {
      "inputs": [
        {
          "internalType": "bytes32",
          "name": "role",
          "type": "bytes32"
        },
        {
          "internalType": "address",
          "name": "account",
          "type": "address"
        }
      ],
      "name": "renounceRole",
      "outputs": [],
      "stateMutability": "nonpayable",
      "type": "function"
    },
    {
      "inputs": [
        {
          "internalType": "bytes32",
          "name": "role",
          "type": "bytes32"
        },
        {
          "internalType": "address",
          "name": "account",
          "type": "address"
        }
      ],
      "name": "revokeRole",
      "outputs": [],
      "stateMutability": "nonpayable",
      "type": "function"
    },
    {
      "inputs": [
        {
          "internalType": "bytes4",
          "name": "interfaceId",
          "type": "bytes4"
        }
      ],
      "name": "supportsInterface",
      "outputs": [
        {
          "internalType": "bool",
          "name": "",
          "type": "bool"
        }
      ],
      "stateMutability": "view",
      "type": "function"
    },
    {
      "inputs": [],
      "name": "symbol",
      "outputs": [
        {
          "internalType": "string",
          "name": "",
          "type": "string"
        }
      ],
      "stateMutability": "view",
      "type": "function"
    },
    {
      "inputs": [],
      "name": "totalNetWorth",
      "outputs": [
        {
          "internalType": "uint256",
          "name": "",
          "type": "uint256"
        }
      ],
      "stateMutability": "view",
      "type": "function"
    },
    {
      "inputs": [],
      "name": "totalSupply",
      "outputs": [
        {
          "internalType": "uint256",
          "name": "",
          "type": "uint256"
        }
      ],
      "stateMutability": "view",
      "type": "function"
    },
    {
      "inputs": [
        {
          "internalType": "address",
          "name": "to",
          "type": "address"
        },
        {
          "internalType": "uint256",
          "name": "amount",
          "type": "uint256"
        }
      ],
      "name": "transfer",
      "outputs": [
        {
          "internalType": "bool",
          "name": "",
          "type": "bool"
        }
      ],
      "stateMutability": "nonpayable",
      "type": "function"
    },
    {
      "inputs": [
        {
          "internalType": "address",
          "name": "from",
          "type": "address"
        },
        {
          "internalType": "address",
          "name": "to",
          "type": "address"
        },
        {
          "internalType": "uint256",
          "name": "amount",
          "type": "uint256"
        }
      ],
      "name": "transferFrom",
      "outputs": [
        {
          "internalType": "bool",
          "name": "",
          "type": "bool"
        }
      ],
      "stateMutability": "nonpayable",
      "type": "function"
    },
    {
      "inputs": [],
      "name": "unpause",
      "outputs": [],
      "stateMutability": "nonpayable",
      "type": "function"
    }
  ],
  "transactionHash": "0xb6ed8bcab6caf648b66f06be3d1ea35a14f52a475bce47d551de02d4d8af2141",
  "args": [],
  "numDeployments": 1,
  "solcInputHash": "4c8b3cd1d4d5f7cf14126fc49044ecb9",
  "bytecode": "0x60806040523480156200001157600080fd5b506040518060400160405280601081526020016f22b73a32b9383934b9b2902a37b5b2b760811b815250604051806040016040528060048152602001631156909560e21b815250600082828160039080519060200190620000749291906200039d565b5080516200008a9060049060208401906200039d565b50506005805460ff1916905550620000b633620000b083670de0b6b3a764000062000459565b620000cc565b620000c3600033620001c4565b505050620004d3565b6001600160a01b038216620001285760405162461bcd60e51b815260206004820152601f60248201527f45524332303a206d696e7420746f20746865207a65726f20616464726573730060448201526064015b60405180910390fd5b620001366000838362000207565b80600260008282546200014a91906200047b565b90915550506001600160a01b03821660009081526020819052604081208054839290620001799084906200047b565b90915550506040518181526001600160a01b038316906000907fddf252ad1be2c89b69c2b068fc378daa952ba7f163c4a11628f55a4df523b3ef9060200160405180910390a35b5050565b620001db82826200028760201b62000a851760201c565b60008281526007602090815260409091206200020291839062000b0b6200032b821b17901c565b505050565b6200021f8383836200020260201b620005991760201c565b60055460ff1615620002025760405162461bcd60e51b815260206004820152602a60248201527f45524332305061757361626c653a20746f6b656e207472616e736665722077686044820152691a5b19481c185d5cd95960b21b60648201526084016200011f565b60008281526006602090815260408083206001600160a01b038516845290915290205460ff16620001c05760008281526006602090815260408083206001600160a01b03851684529091529020805460ff19166001179055620002e73390565b6001600160a01b0316816001600160a01b0316837f2f8788117e7eff1d82e926ec794901d17c78024a50270940304540a733656f0d60405160405180910390a45050565b600062000342836001600160a01b0384166200034b565b90505b92915050565b6000818152600183016020526040812054620003945750815460018181018455600084815260208082209093018490558454848252828601909352604090209190915562000345565b50600062000345565b828054620003ab9062000496565b90600052602060002090601f016020900481019282620003cf57600085556200041a565b82601f10620003ea57805160ff19168380011785556200041a565b828001600101855582156200041a579182015b828111156200041a578251825591602001919060010190620003fd565b50620004289291506200042c565b5090565b5b808211156200042857600081556001016200042d565b634e487b7160e01b600052601160045260246000fd5b600081600019048311821515161562000476576200047662000443565b500290565b6000821982111562000491576200049162000443565b500190565b600181811c90821680620004ab57607f821691505b60208210811415620004cd57634e487b7160e01b600052602260045260246000fd5b50919050565b611a7080620004e36000396000f3fe608060405234801561001057600080fd5b50600436106101e55760003560e01c806370a082311161010f578063a9059cbb116100a2578063d11a57ec11610071578063d11a57ec14610407578063d53913931461042e578063d547741f14610455578063dd62ed3e1461046857600080fd5b8063a9059cbb146103c6578063b4ab0bbd146103d9578063c4d66de8146103e1578063ca15c873146103f457600080fd5b806395d89b41116100de57806395d89b41146103905780639dc29fac14610398578063a217fddf146103ab578063a457c2d7146103b357600080fd5b806370a08231146103215780638456cb591461034a5780639010d07c1461035257806391d148541461037d57600080fd5b80632f2ff15d116101875780633f4ba83a116101565780633f4ba83a146102f357806340c10f19146102fb5780634233799c1461030e5780635c975abb1461031657600080fd5b80632f2ff15d146102a9578063313ce567146102be57806336568abe146102cd57806339509351146102e057600080fd5b806318160ddd116101c357806318160ddd1461023a57806323b872dd1461024c578063248a9ca31461025f578063282c51f31461028257600080fd5b806301ffc9a7146101ea57806306fdde0314610212578063095ea7b314610227575b600080fd5b6101fd6101f83660046116d1565b61047b565b60405190151581526020015b60405180910390f35b61021a6104a6565b6040516102099190611727565b6101fd61023536600461176f565b610538565b6002545b604051908152602001610209565b6101fd61025a36600461179b565b610550565b61023e61026d3660046117dc565b60009081526006602052604090206001015490565b61023e7f3c11d16cbaffd01df69ce1c404f6340ee057498f5f00246190ea54220576a84881565b6102bc6102b73660046117f5565b610574565b005b60405160128152602001610209565b6102bc6102db3660046117f5565b61059e565b6101fd6102ee36600461176f565b610621565b6102bc610643565b6102bc61030936600461176f565b610659565b61023e61068d565b60055460ff166101fd565b61023e61032f366004611825565b6001600160a01b031660009081526020819052604090205490565b6102bc6107aa565b610365610360366004611842565b6107bd565b6040516001600160a01b039091168152602001610209565b6101fd61038b3660046117f5565b6107dc565b61021a610807565b6102bc6103a636600461176f565b610816565b61023e600081565b6101fd6103c136600461176f565b61084a565b6101fd6103d436600461176f565b6108c5565b61023e6108d3565b6102bc6103ef366004611825565b610917565b61023e6104023660046117dc565b610a1e565b61023e7fe1dcbdb91df27212a29bc27177c840cf2f819ecf2187432e1fac86c2dd5dfca981565b61023e7f9f2df0fed2c77648de5860a4cc508cd0818c85b8b8a1ab4ceeef8d981c8956a681565b6102bc6104633660046117f5565b610a35565b61023e610476366004611864565b610a5a565b60006001600160e01b03198216635a05180f60e01b14806104a057506104a082610b20565b92915050565b6060600380546104b590611892565b80601f01602080910402602001604051908101604052809291908181526020018280546104e190611892565b801561052e5780601f106105035761010080835404028352916020019161052e565b820191906000526020600020905b81548152906001019060200180831161051157829003601f168201915b5050505050905090565b600033610546818585610b55565b5060019392505050565b60003361055e858285610c79565b610569858585610cf3565b506001949350505050565b60008281526006602052604090206001015461058f81610ecc565b6105998383610ed6565b505050565b6001600160a01b03811633146106135760405162461bcd60e51b815260206004820152602f60248201527f416363657373436f6e74726f6c3a2063616e206f6e6c792072656e6f756e636560448201526e103937b632b9903337b91039b2b63360891b60648201526084015b60405180910390fd5b61061d8282610ef8565b5050565b6000336105468185856106348383610a5a565b61063e91906118e3565b610b55565b600061064e81610ecc565b610656610f1a565b50565b7f9f2df0fed2c77648de5860a4cc508cd0818c85b8b8a1ab4ceeef8d981c8956a661068381610ecc565b6105998383610fad565b6000600860019054906101000a90046001600160a01b03166001600160a01b03166362ef432f6040518163ffffffff1660e01b815260040160206040518083038186803b1580156106dd57600080fd5b505afa1580156106f1573d6000803e3d6000fd5b505050506040513d601f19601f8201168201806040525081019061071591906118fb565b600860019054906101000a90046001600160a01b03166001600160a01b0316636ff156226040518163ffffffff1660e01b815260040160206040518083038186803b15801561076357600080fd5b505afa158015610777573d6000803e3d6000fd5b505050506040513d601f19601f8201168201806040525081019061079b91906118fb565b6107a591906118e3565b905090565b60006107b581610ecc565b610656611098565b60008281526007602052604081206107d59083611113565b9392505050565b60009182526006602090815260408084206001600160a01b0393909316845291905290205460ff1690565b6060600480546104b590611892565b7f3c11d16cbaffd01df69ce1c404f6340ee057498f5f00246190ea54220576a84861084081610ecc565b610599838361111f565b600033816108588286610a5a565b9050838110156108b85760405162461bcd60e51b815260206004820152602560248201527f45524332303a2064656372656173656420616c6c6f77616e63652062656c6f77604482015264207a65726f60d81b606482015260840161060a565b6105698286868403610b55565b600033610546818585610cf3565b60006108de60025490565b1561090a576002546108ee61068d565b61090090670de0b6b3a7640000611914565b6107a59190611933565b50670de0b6b3a764000090565b600061092281610ecc565b60085460408051808201909152601c81527f436f6e747261637420416c726561647920496e697469616c697a65640000000060208201529060ff161561097b5760405162461bcd60e51b815260040161060a9190611727565b50600880546001600160a01b038416610100026001600160a81b03199091161760011790556109ca7f9f2df0fed2c77648de5860a4cc508cd0818c85b8b8a1ab4ceeef8d981c8956a683610ed6565b6109f47f3c11d16cbaffd01df69ce1c404f6340ee057498f5f00246190ea54220576a84883610ed6565b61061d7fe1dcbdb91df27212a29bc27177c840cf2f819ecf2187432e1fac86c2dd5dfca983610ed6565b60008181526007602052604081206104a090611279565b600082815260066020526040902060010154610a5081610ecc565b6105998383610ef8565b6001600160a01b03918216600090815260016020908152604080832093909416825291909152205490565b610a8f82826107dc565b61061d5760008281526006602090815260408083206001600160a01b03851684529091529020805460ff19166001179055610ac73390565b6001600160a01b0316816001600160a01b0316837f2f8788117e7eff1d82e926ec794901d17c78024a50270940304540a733656f0d60405160405180910390a45050565b60006107d5836001600160a01b038416611283565b60006001600160e01b03198216637965db0b60e01b14806104a057506301ffc9a760e01b6001600160e01b03198316146104a0565b6001600160a01b038316610bb75760405162461bcd60e51b8152602060048201526024808201527f45524332303a20617070726f76652066726f6d20746865207a65726f206164646044820152637265737360e01b606482015260840161060a565b6001600160a01b038216610c185760405162461bcd60e51b815260206004820152602260248201527f45524332303a20617070726f766520746f20746865207a65726f206164647265604482015261737360f01b606482015260840161060a565b6001600160a01b0383811660008181526001602090815260408083209487168084529482529182902085905590518481527f8c5be1e5ebec7d5bd14f71427d1e84f3dd0314c0f7b2291e5b200ac8c7c3b925910160405180910390a3505050565b6000610c858484610a5a565b90506000198114610ced5781811015610ce05760405162461bcd60e51b815260206004820152601d60248201527f45524332303a20696e73756666696369656e7420616c6c6f77616e6365000000604482015260640161060a565b610ced8484848403610b55565b50505050565b6001600160a01b038316610d575760405162461bcd60e51b815260206004820152602560248201527f45524332303a207472616e736665722066726f6d20746865207a65726f206164604482015264647265737360d81b606482015260840161060a565b6001600160a01b038216610db95760405162461bcd60e51b815260206004820152602360248201527f45524332303a207472616e7366657220746f20746865207a65726f206164647260448201526265737360e81b606482015260840161060a565b610dc48383836112d2565b6001600160a01b03831660009081526020819052604090205481811015610e3c5760405162461bcd60e51b815260206004820152602660248201527f45524332303a207472616e7366657220616d6f756e7420657863656564732062604482015265616c616e636560d01b606482015260840161060a565b6001600160a01b03808516600090815260208190526040808220858503905591851681529081208054849290610e739084906118e3565b92505081905550826001600160a01b0316846001600160a01b03167fddf252ad1be2c89b69c2b068fc378daa952ba7f163c4a11628f55a4df523b3ef84604051610ebf91815260200190565b60405180910390a3610ced565b6106568133611338565b610ee08282610a85565b60008281526007602052604090206105999082610b0b565b610f02828261139c565b60008281526007602052604090206105999082611403565b60055460ff16610f635760405162461bcd60e51b815260206004820152601460248201527314185d5cd8589b194e881b9bdd081c185d5cd95960621b604482015260640161060a565b6005805460ff191690557f5db9ee0a495bf2e6ff9c91a7834c1ba4fdd244a5e8aa4e537bd38aeae4b073aa335b6040516001600160a01b03909116815260200160405180910390a1565b6001600160a01b0382166110035760405162461bcd60e51b815260206004820152601f60248201527f45524332303a206d696e7420746f20746865207a65726f206164647265737300604482015260640161060a565b61100f600083836112d2565b806002600082825461102191906118e3565b90915550506001600160a01b0382166000908152602081905260408120805483929061104e9084906118e3565b90915550506040518181526001600160a01b038316906000907fddf252ad1be2c89b69c2b068fc378daa952ba7f163c4a11628f55a4df523b3ef9060200160405180910390a35050565b60055460ff16156110de5760405162461bcd60e51b815260206004820152601060248201526f14185d5cd8589b194e881c185d5cd95960821b604482015260640161060a565b6005805460ff191660011790557f62e78cea01bee320cd4e420270b5ea74000d11b0c9f74754ebdbfc544b05a258610f903390565b60006107d58383611418565b6001600160a01b03821661117f5760405162461bcd60e51b815260206004820152602160248201527f45524332303a206275726e2066726f6d20746865207a65726f206164647265736044820152607360f81b606482015260840161060a565b61118b826000836112d2565b6001600160a01b038216600090815260208190526040902054818110156111ff5760405162461bcd60e51b815260206004820152602260248201527f45524332303a206275726e20616d6f756e7420657863656564732062616c616e604482015261636560f01b606482015260840161060a565b6001600160a01b038316600090815260208190526040812083830390556002805484929061122e908490611955565b90915550506040518281526000906001600160a01b038516907fddf252ad1be2c89b69c2b068fc378daa952ba7f163c4a11628f55a4df523b3ef9060200160405180910390a3505050565b60006104a0825490565b60008181526001830160205260408120546112ca575081546001818101845560008481526020808220909301849055845484825282860190935260409020919091556104a0565b5060006104a0565b60055460ff16156105995760405162461bcd60e51b815260206004820152602a60248201527f45524332305061757361626c653a20746f6b656e207472616e736665722077686044820152691a5b19481c185d5cd95960b21b606482015260840161060a565b61134282826107dc565b61061d5761135a816001600160a01b03166014611442565b611365836020611442565b60405160200161137692919061196c565b60408051601f198184030181529082905262461bcd60e51b825261060a91600401611727565b6113a682826107dc565b1561061d5760008281526006602090815260408083206001600160a01b0385168085529252808320805460ff1916905551339285917ff6391f5c32d9c69d2a47ea670b442974b53935d1edc7fd64eb21e047a839171b9190a45050565b60006107d5836001600160a01b0384166115de565b600082600001828154811061142f5761142f6119e1565b9060005260206000200154905092915050565b60606000611451836002611914565b61145c9060026118e3565b67ffffffffffffffff811115611474576114746119f7565b6040519080825280601f01601f19166020018201604052801561149e576020820181803683370190505b509050600360fc1b816000815181106114b9576114b96119e1565b60200101906001600160f81b031916908160001a905350600f60fb1b816001815181106114e8576114e86119e1565b60200101906001600160f81b031916908160001a905350600061150c846002611914565b6115179060016118e3565b90505b600181111561158f576f181899199a1a9b1b9c1cb0b131b232b360811b85600f166010811061154b5761154b6119e1565b1a60f81b828281518110611561576115616119e1565b60200101906001600160f81b031916908160001a90535060049490941c9361158881611a0d565b905061151a565b5083156107d55760405162461bcd60e51b815260206004820181905260248201527f537472696e67733a20686578206c656e67746820696e73756666696369656e74604482015260640161060a565b600081815260018301602052604081205480156116c7576000611602600183611955565b855490915060009061161690600190611955565b905081811461167b576000866000018281548110611636576116366119e1565b9060005260206000200154905080876000018481548110611659576116596119e1565b6000918252602080832090910192909255918252600188019052604090208390555b855486908061168c5761168c611a24565b6001900381819060005260206000200160009055905585600101600086815260200190815260200160002060009055600193505050506104a0565b60009150506104a0565b6000602082840312156116e357600080fd5b81356001600160e01b0319811681146107d557600080fd5b60005b838110156117165781810151838201526020016116fe565b83811115610ced5750506000910152565b60208152600082518060208401526117468160408501602087016116fb565b601f01601f19169190910160400192915050565b6001600160a01b038116811461065657600080fd5b6000806040838503121561178257600080fd5b823561178d8161175a565b946020939093013593505050565b6000806000606084860312156117b057600080fd5b83356117bb8161175a565b925060208401356117cb8161175a565b929592945050506040919091013590565b6000602082840312156117ee57600080fd5b5035919050565b6000806040838503121561180857600080fd5b82359150602083013561181a8161175a565b809150509250929050565b60006020828403121561183757600080fd5b81356107d58161175a565b6000806040838503121561185557600080fd5b50508035926020909101359150565b6000806040838503121561187757600080fd5b82356118828161175a565b9150602083013561181a8161175a565b600181811c908216806118a657607f821691505b602082108114156118c757634e487b7160e01b600052602260045260246000fd5b50919050565b634e487b7160e01b600052601160045260246000fd5b600082198211156118f6576118f66118cd565b500190565b60006020828403121561190d57600080fd5b5051919050565b600081600019048311821515161561192e5761192e6118cd565b500290565b60008261195057634e487b7160e01b600052601260045260246000fd5b500490565b600082821015611967576119676118cd565b500390565b7f416363657373436f6e74726f6c3a206163636f756e74200000000000000000008152600083516119a48160178501602088016116fb565b7001034b99036b4b9b9b4b733903937b6329607d1b60179184019182015283516119d58160288401602088016116fb565b01602801949350505050565b634e487b7160e01b600052603260045260246000fd5b634e487b7160e01b600052604160045260246000fd5b600081611a1c57611a1c6118cd565b506000190190565b634e487b7160e01b600052603160045260246000fdfea264697066735822122035bf93d62f8fd1f8684fc21f096499364cdb8bd82b3c96b00b27e40c7c89501f64736f6c63430008080033",
  "devdoc": {
    "kind": "dev",
    "methods": {
      "allowance(address,address)": {
        "details": "See {IERC20-allowance}."
      },
      "approve(address,uint256)": {
        "details": "See {IERC20-approve}. NOTE: If `amount` is the maximum `uint256`, the allowance is not updated on `transferFrom`. This is semantically equivalent to an infinite approval. Requirements: - `spender` cannot be the zero address."
      },
      "balanceOf(address)": {
        "details": "See {IERC20-balanceOf}."
      },
      "burn(address,uint256)": {
        "params": {
          "amount": "",
          "from": "token"
        }
      },
      "decimals()": {
        "details": "Returns the number of decimals used to get its user representation. For example, if `decimals` equals `2`, a balance of `505` tokens should be displayed to a user as `5.05` (`505 / 10 ** 2`). Tokens usually opt for a value of 18, imitating the relationship between Ether and Wei. This is the value {ERC20} uses, unless this function is overridden; NOTE: This information is only used for _display_ purposes: it in no way affects any of the arithmetic of the contract, including {IERC20-balanceOf} and {IERC20-transfer}."
      },
      "decreaseAllowance(address,uint256)": {
        "details": "Atomically decreases the allowance granted to `spender` by the caller. This is an alternative to {approve} that can be used as a mitigation for problems described in {IERC20-approve}. Emits an {Approval} event indicating the updated allowance. Requirements: - `spender` cannot be the zero address. - `spender` must have allowance for the caller of at least `subtractedValue`."
      },
      "getRoleAdmin(bytes32)": {
        "details": "Returns the admin role that controls `role`. See {grantRole} and {revokeRole}. To change a role's admin, use {_setRoleAdmin}."
      },
      "getRoleMember(bytes32,uint256)": {
        "details": "Returns one of the accounts that have `role`. `index` must be a value between 0 and {getRoleMemberCount}, non-inclusive. Role bearers are not sorted in any particular way, and their ordering may change at any point. WARNING: When using {getRoleMember} and {getRoleMemberCount}, make sure you perform all queries on the same block. See the following https://forum.openzeppelin.com/t/iterating-over-elements-on-enumerableset-in-openzeppelin-contracts/2296[forum post] for more information."
      },
      "getRoleMemberCount(bytes32)": {
        "details": "Returns the number of accounts that have `role`. Can be used together with {getRoleMember} to enumerate all bearers of a role."
      },
      "grantRole(bytes32,address)": {
        "details": "Grants `role` to `account`. If `account` had not been already granted `role`, emits a {RoleGranted} event. Requirements: - the caller must have ``role``'s admin role."
      },
      "hasRole(bytes32,address)": {
        "details": "Returns `true` if `account` has been granted `role`."
      },
      "increaseAllowance(address,uint256)": {
        "details": "Atomically increases the allowance granted to `spender` by the caller. This is an alternative to {approve} that can be used as a mitigation for problems described in {IERC20-approve}. Emits an {Approval} event indicating the updated allowance. Requirements: - `spender` cannot be the zero address."
      },
      "initialize(address)": {
        "params": {
          "treasury_": ""
        }
      },
      "mint(address,uint256)": {
        "params": {
          "amount": "",
          "to": "token"
        }
      },
      "name()": {
        "details": "Returns the name of the token."
      },
      "netWorth()": {
        "returns": {
          "_0": "uint256  bToken"
        }
      },
      "paused()": {
        "details": "Returns true if the contract is paused, and false otherwise."
      },
      "renounceRole(bytes32,address)": {
        "details": "Revokes `role` from the calling account. Roles are often managed via {grantRole} and {revokeRole}: this function's purpose is to provide a mechanism for accounts to lose their privileges if they are compromised (such as when a trusted device is misplaced). If the calling account had been revoked `role`, emits a {RoleRevoked} event. Requirements: - the caller must be `account`."
      },
      "revokeRole(bytes32,address)": {
        "details": "Revokes `role` from `account`. If `account` had been granted `role`, emits a {RoleRevoked} event. Requirements: - the caller must have ``role``'s admin role."
      },
      "supportsInterface(bytes4)": {
        "details": "See {IERC165-supportsInterface}."
      },
      "symbol()": {
        "details": "Returns the symbol of the token, usually a shorter version of the name."
      },
      "totalNetWorth()": {
        "returns": {
          "_0": "uint256    bToken"
        }
      },
      "totalSupply()": {
        "details": "See {IERC20-totalSupply}."
      },
      "transfer(address,uint256)": {
        "details": "See {IERC20-transfer}. Requirements: - `to` cannot be the zero address. - the caller must have a balance of at least `amount`."
      },
      "transferFrom(address,address,uint256)": {
        "details": "See {IERC20-transferFrom}. Emits an {Approval} event indicating the updated allowance. This is not required by the EIP. See the note at the beginning of {ERC20}. NOTE: Does not update the allowance if the current allowance is the maximum `uint256`. Requirements: - `from` and `to` cannot be the zero address. - `from` must have a balance of at least `amount`. - the caller must have allowance for ``from``'s tokens of at least `amount`."
      }
    },
    "version": 1
  },
  "userdoc": {
    "kind": "user",
    "methods": {
      "burn(address,uint256)": {
        "notice": "token,onlyRole(BURNER_ROLE)burnerburn"
      },
      "initialize(address)": {
        "notice": ""
      },
      "mint(address,uint256)": {
        "notice": "token,onlyRole(MINTER_ROLE)mintermint"
      },
      "netWorth()": {
        "notice": "=/"
      },
      "pause()": {
        "notice": ""
      },
      "totalNetWorth()": {
        "notice": "=+"
      },
      "unpause()": {
        "notice": ""
      }
    },
    "version": 1
  },
  "storageLayout": {
    "storage": [
      {
        "astId": 736,
        "contract": "contracts/EzbtERC20.sol:EzbtERC20",
        "label": "_balances",
        "offset": 0,
        "slot": "0",
        "type": "t_mapping(t_address,t_uint256)"
      },
      {
        "astId": 742,
        "contract": "contracts/EzbtERC20.sol:EzbtERC20",
        "label": "_allowances",
        "offset": 0,
        "slot": "1",
        "type": "t_mapping(t_address,t_mapping(t_address,t_uint256))"
      },
      {
        "astId": 744,
        "contract": "contracts/EzbtERC20.sol:EzbtERC20",
        "label": "_totalSupply",
        "offset": 0,
        "slot": "2",
        "type": "t_uint256"
      },
      {
        "astId": 746,
        "contract": "contracts/EzbtERC20.sol:EzbtERC20",
        "label": "_name",
        "offset": 0,
        "slot": "3",
        "type": "t_string_storage"
      },
      {
        "astId": 748,
        "contract": "contracts/EzbtERC20.sol:EzbtERC20",
        "label": "_symbol",
        "offset": 0,
        "slot": "4",
        "type": "t_string_storage"
      },
      {
        "astId": 606,
        "contract": "contracts/EzbtERC20.sol:EzbtERC20",
        "label": "_paused",
        "offset": 0,
        "slot": "5",
        "type": "t_bool"
      },
      {
        "astId": 70,
        "contract": "contracts/EzbtERC20.sol:EzbtERC20",
        "label": "_roles",
        "offset": 0,
        "slot": "6",
        "type": "t_mapping(t_bytes32,t_struct(RoleData)65_storage)"
      },
      {
        "astId": 384,
        "contract": "contracts/EzbtERC20.sol:EzbtERC20",
        "label": "_roleMembers",
        "offset": 0,
        "slot": "7",
        "type": "t_mapping(t_bytes32,t_struct(AddressSet)2850_storage)"
      },
      {
        "astId": 3982,
        "contract": "contracts/EzbtERC20.sol:EzbtERC20",
        "label": "initialized",
        "offset": 0,
        "slot": "8",
        "type": "t_bool"
      },
      {
        "astId": 3988,
        "contract": "contracts/EzbtERC20.sol:EzbtERC20",
        "label": "treasury",
        "offset": 1,
        "slot": "8",
        "type": "t_contract(Treasury)5951"
      }
    ],
    "types": {
      "t_address": {
        "encoding": "inplace",
        "label": "address",
        "numberOfBytes": "20"
      },
      "t_array(t_bytes32)dyn_storage": {
        "base": "t_bytes32",
        "encoding": "dynamic_array",
        "label": "bytes32[]",
        "numberOfBytes": "32"
      },
      "t_bool": {
        "encoding": "inplace",
        "label": "bool",
        "numberOfBytes": "1"
      },
      "t_bytes32": {
        "encoding": "inplace",
        "label": "bytes32",
        "numberOfBytes": "32"
      },
      "t_contract(Treasury)5951": {
        "encoding": "inplace",
        "label": "contract Treasury",
        "numberOfBytes": "20"
      },
      "t_mapping(t_address,t_bool)": {
        "encoding": "mapping",
        "key": "t_address",
        "label": "mapping(address => bool)",
        "numberOfBytes": "32",
        "value": "t_bool"
      },
      "t_mapping(t_address,t_mapping(t_address,t_uint256))": {
        "encoding": "mapping",
        "key": "t_address",
        "label": "mapping(address => mapping(address => uint256))",
        "numberOfBytes": "32",
        "value": "t_mapping(t_address,t_uint256)"
      },
      "t_mapping(t_address,t_uint256)": {
        "encoding": "mapping",
        "key": "t_address",
        "label": "mapping(address => uint256)",
        "numberOfBytes": "32",
        "value": "t_uint256"
      },
      "t_mapping(t_bytes32,t_struct(AddressSet)2850_storage)": {
        "encoding": "mapping",
        "key": "t_bytes32",
        "label": "mapping(bytes32 => struct EnumerableSet.AddressSet)",
        "numberOfBytes": "32",
        "value": "t_struct(AddressSet)2850_storage"
      },
      "t_mapping(t_bytes32,t_struct(RoleData)65_storage)": {
        "encoding": "mapping",
        "key": "t_bytes32",
        "label": "mapping(bytes32 => struct AccessControl.RoleData)",
        "numberOfBytes": "32",
        "value": "t_struct(RoleData)65_storage"
      },
      "t_mapping(t_bytes32,t_uint256)": {
        "encoding": "mapping",
        "key": "t_bytes32",
        "label": "mapping(bytes32 => uint256)",
        "numberOfBytes": "32",
        "value": "t_uint256"
      },
      "t_string_storage": {
        "encoding": "bytes",
        "label": "string",
        "numberOfBytes": "32"
      },
      "t_struct(AddressSet)2850_storage": {
        "encoding": "inplace",
        "label": "struct EnumerableSet.AddressSet",
        "members": [
          {
            "astId": 2849,
            "contract": "contracts/EzbtERC20.sol:EzbtERC20",
            "label": "_inner",
            "offset": 0,
            "slot": "0",
            "type": "t_struct(Set)2549_storage"
          }
        ],
        "numberOfBytes": "64"
      },
      "t_struct(RoleData)65_storage": {
        "encoding": "inplace",
        "label": "struct AccessControl.RoleData",
        "members": [
          {
            "astId": 62,
            "contract": "contracts/EzbtERC20.sol:EzbtERC20",
            "label": "members",
            "offset": 0,
            "slot": "0",
            "type": "t_mapping(t_address,t_bool)"
          },
          {
            "astId": 64,
            "contract": "contracts/EzbtERC20.sol:EzbtERC20",
            "label": "adminRole",
            "offset": 0,
            "slot": "1",
            "type": "t_bytes32"
          }
        ],
        "numberOfBytes": "64"
      },
      "t_struct(Set)2549_storage": {
        "encoding": "inplace",
        "label": "struct EnumerableSet.Set",
        "members": [
          {
            "astId": 2544,
            "contract": "contracts/EzbtERC20.sol:EzbtERC20",
            "label": "_values",
            "offset": 0,
            "slot": "0",
            "type": "t_array(t_bytes32)dyn_storage"
          },
          {
            "astId": 2548,
            "contract": "contracts/EzbtERC20.sol:EzbtERC20",
            "label": "_indexes",
            "offset": 0,
            "slot": "1",
            "type": "t_mapping(t_bytes32,t_uint256)"
          }
        ],
        "numberOfBytes": "64"
      },
      "t_uint256": {
        "encoding": "inplace",
        "label": "uint256",
        "numberOfBytes": "32"
      }
    }
  }
}