{
  "address": "0x04D06f813ebc44c438bE58dA9f7b9cF0bCc43F05",
  "abi": [
    {
      "inputs": [
        {
          "internalType": "contract IERC20Metadata",
          "name": "stableToken_",
          "type": "address"
        },
        {
          "internalType": "contract IERC20Metadata",
          "name": "reserveToken_",
          "type": "address"
        },
        {
          "internalType": "contract EzUSD",
          "name": "aToken_",
          "type": "address"
        },
        {
          "internalType": "contract EzMATIC",
          "name": "bToken_",
          "type": "address"
        },
        {
          "internalType": "contract EzioERC20",
          "name": "cToken_",
          "type": "address"
        },
        {
          "internalType": "uint16",
          "name": "rewardRate_",
          "type": "uint16"
        },
        {
          "internalType": "uint16",
          "name": "redeemFeeRate_",
          "type": "uint16"
        }
      ],
      "stateMutability": "nonpayable",
      "type": "constructor"
    },
    {
      "anonymous": false,
      "inputs": [
        {
          "indexed": true,
          "internalType": "uint256",
          "name": "matchedB",
          "type": "uint256"
        },
        {
          "indexed": true,
          "internalType": "uint256",
          "name": "totalNetWorth",
          "type": "uint256"
        },
        {
          "indexed": false,
          "internalType": "uint256",
          "name": "time",
          "type": "uint256"
        }
      ],
      "name": "CheckConvertDown",
      "type": "event"
    },
    {
      "anonymous": false,
      "inputs": [
        {
          "indexed": true,
          "internalType": "address",
          "name": "previousOwner",
          "type": "address"
        },
        {
          "indexed": true,
          "internalType": "address",
          "name": "newOwner",
          "type": "address"
        }
      ],
      "name": "OwnershipTransferred",
      "type": "event"
    },
    {
      "anonymous": false,
      "inputs": [
        {
          "indexed": true,
          "internalType": "address",
          "name": "account",
          "type": "address"
        },
        {
          "indexed": true,
          "internalType": "enum IEzio.TYPE",
          "name": "type_",
          "type": "uint8"
        },
        {
          "indexed": true,
          "internalType": "uint256",
          "name": "amt_",
          "type": "uint256"
        },
        {
          "indexed": false,
          "internalType": "uint256",
          "name": "qty_",
          "type": "uint256"
        }
      ],
      "name": "Purchase",
      "type": "event"
    },
    {
      "anonymous": false,
      "inputs": [
        {
          "indexed": true,
          "internalType": "address",
          "name": "account",
          "type": "address"
        },
        {
          "indexed": true,
          "internalType": "enum IEzio.TYPE",
          "name": "type_",
          "type": "uint8"
        },
        {
          "indexed": true,
          "internalType": "uint256",
          "name": "qty_",
          "type": "uint256"
        },
        {
          "indexed": false,
          "internalType": "uint256",
          "name": "amt_",
          "type": "uint256"
        }
      ],
      "name": "Redeem",
      "type": "event"
    },
    {
      "anonymous": false,
      "inputs": [
        {
          "indexed": true,
          "internalType": "bytes32",
          "name": "role",
          "type": "bytes32"
        },
        {
          "indexed": true,
          "internalType": "bytes32",
          "name": "previousAdminRole",
          "type": "bytes32"
        },
        {
          "indexed": true,
          "internalType": "bytes32",
          "name": "newAdminRole",
          "type": "bytes32"
        }
      ],
      "name": "RoleAdminChanged",
      "type": "event"
    },
    {
      "anonymous": false,
      "inputs": [
        {
          "indexed": true,
          "internalType": "bytes32",
          "name": "role",
          "type": "bytes32"
        },
        {
          "indexed": true,
          "internalType": "address",
          "name": "account",
          "type": "address"
        },
        {
          "indexed": true,
          "internalType": "address",
          "name": "sender",
          "type": "address"
        }
      ],
      "name": "RoleGranted",
      "type": "event"
    },
    {
      "anonymous": false,
      "inputs": [
        {
          "indexed": true,
          "internalType": "bytes32",
          "name": "role",
          "type": "bytes32"
        },
        {
          "indexed": true,
          "internalType": "address",
          "name": "account",
          "type": "address"
        },
        {
          "indexed": true,
          "internalType": "address",
          "name": "sender",
          "type": "address"
        }
      ],
      "name": "RoleRevoked",
      "type": "event"
    },
    {
      "inputs": [],
      "name": "DEFAULT_ADMIN_ROLE",
      "outputs": [
        {
          "internalType": "bytes32",
          "name": "",
          "type": "bytes32"
        }
      ],
      "stateMutability": "view",
      "type": "function"
    },
    {
      "inputs": [],
      "name": "GOVERNOR_ROLE",
      "outputs": [
        {
          "internalType": "bytes32",
          "name": "",
          "type": "bytes32"
        }
      ],
      "stateMutability": "view",
      "type": "function"
    },
    {
      "inputs": [],
      "name": "LEVERAGE_DENOMINATOR",
      "outputs": [
        {
          "internalType": "uint256",
          "name": "",
          "type": "uint256"
        }
      ],
      "stateMutability": "view",
      "type": "function"
    },
    {
      "inputs": [],
      "name": "REDEEM_RATE_DENOMINATOR",
      "outputs": [
        {
          "internalType": "uint256",
          "name": "",
          "type": "uint256"
        }
      ],
      "stateMutability": "view",
      "type": "function"
    },
    {
      "inputs": [],
      "name": "REWARD_RATE_DENOMINATOR",
      "outputs": [
        {
          "internalType": "uint256",
          "name": "",
          "type": "uint256"
        }
      ],
      "stateMutability": "view",
      "type": "function"
    },
    {
      "inputs": [
        {
          "internalType": "address",
          "name": "tokenAddress",
          "type": "address"
        }
      ],
      "name": "aggregatorAction",
      "outputs": [
        {
          "internalType": "uint256",
          "name": "",
          "type": "uint256"
        }
      ],
      "stateMutability": "view",
      "type": "function"
    },
    {
      "inputs": [],
      "name": "check",
      "outputs": [
        {
          "internalType": "bool",
          "name": "convertDownFlag",
          "type": "bool"
        }
      ],
      "stateMutability": "view",
      "type": "function"
    },
    {
      "inputs": [
        {
          "internalType": "address",
          "name": "sourceAddress",
          "type": "address"
        },
        {
          "internalType": "address",
          "name": "targetAddress",
          "type": "address"
        },
        {
          "internalType": "uint256",
          "name": "sourceAmount",
          "type": "uint256"
        }
      ],
      "name": "convertAmt",
      "outputs": [
        {
          "internalType": "uint256",
          "name": "",
          "type": "uint256"
        }
      ],
      "stateMutability": "view",
      "type": "function"
    },
    {
      "inputs": [
        {
          "components": [
            {
              "internalType": "address",
              "name": "sellToken",
              "type": "address"
            },
            {
              "internalType": "address",
              "name": "buyToken",
              "type": "address"
            },
            {
              "internalType": "uint256",
              "name": "sellAmount",
              "type": "uint256"
            },
            {
              "internalType": "bytes",
              "name": "swapCallData",
              "type": "bytes"
            }
          ],
          "internalType": "struct SwapQuote",
          "name": "quote_",
          "type": "tuple"
        }
      ],
      "name": "convertDown",
      "outputs": [],
      "stateMutability": "nonpayable",
      "type": "function"
    },
    {
      "inputs": [
        {
          "internalType": "address",
          "name": "tokenAddress",
          "type": "address"
        }
      ],
      "name": "getPrice",
      "outputs": [
        {
          "internalType": "uint256",
          "name": "",
          "type": "uint256"
        }
      ],
      "stateMutability": "view",
      "type": "function"
    },
    {
      "inputs": [
        {
          "internalType": "bytes32",
          "name": "role",
          "type": "bytes32"
        }
      ],
      "name": "getRoleAdmin",
      "outputs": [
        {
          "internalType": "bytes32",
          "name": "",
          "type": "bytes32"
        }
      ],
      "stateMutability": "view",
      "type": "function"
    },
    {
      "inputs": [
        {
          "internalType": "bytes32",
          "name": "role",
          "type": "bytes32"
        },
        {
          "internalType": "uint256",
          "name": "index",
          "type": "uint256"
        }
      ],
      "name": "getRoleMember",
      "outputs": [
        {
          "internalType": "address",
          "name": "",
          "type": "address"
        }
      ],
      "stateMutability": "view",
      "type": "function"
    },
    {
      "inputs": [
        {
          "internalType": "bytes32",
          "name": "role",
          "type": "bytes32"
        }
      ],
      "name": "getRoleMemberCount",
      "outputs": [
        {
          "internalType": "uint256",
          "name": "",
          "type": "uint256"
        }
      ],
      "stateMutability": "view",
      "type": "function"
    },
    {
      "inputs": [
        {
          "internalType": "bytes32",
          "name": "role",
          "type": "bytes32"
        },
        {
          "internalType": "address",
          "name": "account",
          "type": "address"
        }
      ],
      "name": "grantRole",
      "outputs": [],
      "stateMutability": "nonpayable",
      "type": "function"
    },
    {
      "inputs": [
        {
          "internalType": "bytes32",
          "name": "role",
          "type": "bytes32"
        },
        {
          "internalType": "address",
          "name": "account",
          "type": "address"
        }
      ],
      "name": "hasRole",
      "outputs": [
        {
          "internalType": "bool",
          "name": "",
          "type": "bool"
        }
      ],
      "stateMutability": "view",
      "type": "function"
    },
    {
      "inputs": [],
      "name": "interestRate",
      "outputs": [
        {
          "internalType": "uint256",
          "name": "",
          "type": "uint256"
        }
      ],
      "stateMutability": "view",
      "type": "function"
    },
    {
      "inputs": [],
      "name": "lastRebaseTime",
      "outputs": [
        {
          "internalType": "uint256",
          "name": "",
          "type": "uint256"
        }
      ],
      "stateMutability": "view",
      "type": "function"
    },
    {
      "inputs": [],
      "name": "leverage",
      "outputs": [
        {
          "internalType": "uint256",
          "name": "",
          "type": "uint256"
        }
      ],
      "stateMutability": "view",
      "type": "function"
    },
    {
      "inputs": [],
      "name": "matchedA",
      "outputs": [
        {
          "internalType": "uint256",
          "name": "",
          "type": "uint256"
        }
      ],
      "stateMutability": "view",
      "type": "function"
    },
    {
      "inputs": [],
      "name": "owner",
      "outputs": [
        {
          "internalType": "address",
          "name": "",
          "type": "address"
        }
      ],
      "stateMutability": "view",
      "type": "function"
    },
    {
      "inputs": [],
      "name": "pooledA",
      "outputs": [
        {
          "internalType": "uint256",
          "name": "",
          "type": "uint256"
        }
      ],
      "stateMutability": "view",
      "type": "function"
    },
    {
      "inputs": [
        {
          "internalType": "enum IEzio.TYPE",
          "name": "type_",
          "type": "uint8"
        },
        {
          "components": [
            {
              "internalType": "address",
              "name": "sellToken",
              "type": "address"
            },
            {
              "internalType": "address",
              "name": "buyToken",
              "type": "address"
            },
            {
              "internalType": "uint256",
              "name": "sellAmount",
              "type": "uint256"
            },
            {
              "internalType": "bytes",
              "name": "swapCallData",
              "type": "bytes"
            }
          ],
          "internalType": "struct SwapQuote[]",
          "name": "quotes_",
          "type": "tuple[]"
        }
      ],
      "name": "purchase",
      "outputs": [],
      "stateMutability": "nonpayable",
      "type": "function"
    },
    {
      "inputs": [],
      "name": "rebase",
      "outputs": [],
      "stateMutability": "nonpayable",
      "type": "function"
    },
    {
      "inputs": [
        {
          "internalType": "enum IEzio.TYPE",
          "name": "type_",
          "type": "uint8"
        },
        {
          "internalType": "uint256",
          "name": "qty_",
          "type": "uint256"
        },
        {
          "components": [
            {
              "internalType": "address",
              "name": "sellToken",
              "type": "address"
            },
            {
              "internalType": "address",
              "name": "buyToken",
              "type": "address"
            },
            {
              "internalType": "uint256",
              "name": "sellAmount",
              "type": "uint256"
            },
            {
              "internalType": "bytes",
              "name": "swapCallData",
              "type": "bytes"
            }
          ],
          "internalType": "struct SwapQuote",
          "name": "quote_",
          "type": "tuple"
        }
      ],
      "name": "redeem",
      "outputs": [],
      "stateMutability": "nonpayable",
      "type": "function"
    },
    {
      "inputs": [],
      "name": "redeemFeeRate",
      "outputs": [
        {
          "internalType": "uint16",
          "name": "",
          "type": "uint16"
        }
      ],
      "stateMutability": "view",
      "type": "function"
    },
    {
      "inputs": [],
      "name": "renounceOwnership",
      "outputs": [],
      "stateMutability": "nonpayable",
      "type": "function"
    },
    {
      "inputs": [
        {
          "internalType": "bytes32",
          "name": "role",
          "type": "bytes32"
        },
        {
          "internalType": "address",
          "name": "account",
          "type": "address"
        }
      ],
      "name": "renounceRole",
      "outputs": [],
      "stateMutability": "nonpayable",
      "type": "function"
    },
    {
      "inputs": [
        {
          "internalType": "bytes32",
          "name": "role",
          "type": "bytes32"
        },
        {
          "internalType": "address",
          "name": "account",
          "type": "address"
        }
      ],
      "name": "revokeRole",
      "outputs": [],
      "stateMutability": "nonpayable",
      "type": "function"
    },
    {
      "inputs": [],
      "name": "rewardRate",
      "outputs": [
        {
          "internalType": "uint16",
          "name": "",
          "type": "uint16"
        }
      ],
      "stateMutability": "view",
      "type": "function"
    },
    {
      "inputs": [
        {
          "internalType": "address",
          "name": "tokenAddress",
          "type": "address"
        },
        {
          "internalType": "address",
          "name": "aggregatorAddress",
          "type": "address"
        }
      ],
      "name": "setAggregators",
      "outputs": [],
      "stateMutability": "nonpayable",
      "type": "function"
    },
    {
      "inputs": [
        {
          "internalType": "uint16",
          "name": "redeemFeeRate_",
          "type": "uint16"
        }
      ],
      "name": "setRedeemFeeRate",
      "outputs": [],
      "stateMutability": "nonpayable",
      "type": "function"
    },
    {
      "inputs": [
        {
          "internalType": "uint16",
          "name": "rewardRate_",
          "type": "uint16"
        }
      ],
      "name": "setRewardRate",
      "outputs": [],
      "stateMutability": "nonpayable",
      "type": "function"
    },
    {
      "inputs": [
        {
          "internalType": "bytes4",
          "name": "interfaceId",
          "type": "bytes4"
        }
      ],
      "name": "supportsInterface",
      "outputs": [
        {
          "internalType": "bool",
          "name": "",
          "type": "bool"
        }
      ],
      "stateMutability": "view",
      "type": "function"
    },
    {
      "inputs": [
        {
          "internalType": "address",
          "name": "",
          "type": "address"
        }
      ],
      "name": "tokenAggregators",
      "outputs": [
        {
          "internalType": "address",
          "name": "",
          "type": "address"
        }
      ],
      "stateMutability": "view",
      "type": "function"
    },
    {
      "inputs": [],
      "name": "totalNetWorth",
      "outputs": [
        {
          "internalType": "uint256",
          "name": "",
          "type": "uint256"
        }
      ],
      "stateMutability": "view",
      "type": "function"
    },
    {
      "inputs": [],
      "name": "totalReserve",
      "outputs": [
        {
          "internalType": "uint256",
          "name": "",
          "type": "uint256"
        }
      ],
      "stateMutability": "view",
      "type": "function"
    },
    {
      "inputs": [
        {
          "internalType": "address",
          "name": "newOwner",
          "type": "address"
        }
      ],
      "name": "transferOwnership",
      "outputs": [],
      "stateMutability": "nonpayable",
      "type": "function"
    }
  ],
  "transactionHash": "0xcf93e50808ee23fc8f7e39fc930ae35c1817a5477e9e57380e2134d2bdc71b84",
  "args": [
    "0x2791bca1f2de4661ed88a30c99a7a9449aa84174",
    "0x3A58a54C066FdC0f2D55FC9C89F0415C92eBf3C4",
    "0xc1e4508a12AA40EAd522d59454d4A4aC08C90203",
    "0xF58F7c6a17B8c46081e42572b301f44c24932bb2",
    "0xc5e6C437e0B9aa69Efff282121Ee42EdD9992ce4",
    3000,
    2
  ],
  "numDeployments": 1,
  "solcInputHash": "31f629265a66252bb940243eed3fdee8",
  "bytecode": "0x60e06040523480156200001157600080fd5b5060405162003483380380620034838339810160408190526200003491620002dd565b60016002558686620000463362000104565b600580546001600160a01b039384166001600160a01b031991821617909155600680549290931691161790556001600160601b0319606086811b821660805285811b821660a05284901b1660c052600a805461ffff80851661ffff199283161790925542600b55600c805492841692909116919091179055620000cb60003362000156565b620000f77f7935bd0ae54bc31f548c14dba4d37c5c64b3f8ca900cb468fb8abd54d5894f553362000156565b5050505050505062000380565b600380546001600160a01b038381166001600160a01b0319831681179093556040519116919082907f8be0079c531659141344cd1fd0a4f28419497f9722a3daafe3b4186f6b6457e090600090a35050565b6200016d82826200019960201b62001e6a1760201c565b60008281526001602090815260409091206200019491839062001eee6200023a821b17901c565b505050565b6000828152602081815260408083206001600160a01b038516845290915290205460ff1662000236576000828152602081815260408083206001600160a01b03851684529091529020805460ff19166001179055620001f53390565b6001600160a01b0316816001600160a01b0316837f2f8788117e7eff1d82e926ec794901d17c78024a50270940304540a733656f0d60405160405180910390a45b5050565b600062000251836001600160a01b0384166200025a565b90505b92915050565b6000818152600183016020526040812054620002a35750815460018181018455600084815260208082209093018490558454848252828601909352604090209190915562000254565b50600062000254565b6001600160a01b0381168114620002c257600080fd5b50565b805161ffff81168114620002d857600080fd5b919050565b600080600080600080600060e0888a031215620002f957600080fd5b87516200030681620002ac565b60208901519097506200031981620002ac565b60408901519096506200032c81620002ac565b60608901519095506200033f81620002ac565b60808901519094506200035281620002ac565b92506200036260a08901620002c5565b91506200037260c08901620002c5565b905092959891949750929550565b60805160601c60a05160601c60c05160601c61307262000411600039600050506000818161061d015281816106c701528181610c8f01528181610d3801528181610e440152818161115c015281816118e401526119ae01526000818161094d01528181610a1701528181610b4901528181610fd00152818161107101528181611673015261173d01526130726000f3fe608060405234801561001057600080fd5b50600436106102275760003560e01c80637b0a47ee116101305780639db389ca116100b8578063ca15c8731161007c578063ca15c8731461045f578063ccc5749014610472578063d1b37b6d14610487578063d547741f1461049a578063f2fde38b146104ad57600080fd5b80639db389ca14610421578063a217fddf14610429578063ab697c7e14610431578063af14052c14610444578063b7576ee31461044c57600080fd5b80639010d07c116100ff5780639010d07c146103d6578063919840ad146103e957806391d14854146103f157806392be8bfd146104045780639c373dc51461041757600080fd5b80637b0a47ee146103725780637c3a00fd146103805780638da5cb5b146103885780638e6334db146103ad57600080fd5b806341976e09116101b3578063535c55ff11610182578063535c55ff146103245780635591ce5a146103375780635872e6fa146103405780636e33bfbe14610361578063715018a61461036a57600080fd5b806341976e09146102ed5780634233799c146103005780634bcf9ae4146103085780634c68df671461031b57600080fd5b8063248a9ca3116101fa578063248a9ca3146102935780632c86d98e146102b65780632f2ff15d146102be578063351fe300146102d157806336568abe146102da57600080fd5b806301ffc9a71461022c57806306a89ca1146102545780631924063e14610269578063247aa8d914610280575b600080fd5b61023f61023a366004612959565b6104c0565b60405190151581526020015b60405180910390f35b610267610262366004612983565b6104eb565b005b610272600b5481565b60405190815260200161024b565b61027261028e3660046129c3565b61051c565b6102726102a13660046129de565b60009081526020819052604090206001015490565b610272610618565b6102676102cc3660046129f7565b61077e565b61027260095481565b6102676102e83660046129f7565b6107a8565b6102726102fb3660046129c3565b610826565b61027261086f565b610267610316366004612983565b6108a2565b61027260075481565b610267610332366004612a4a565b6108d3565b61027260085481565b600c5461034e9061ffff1681565b60405161ffff909116815260200161024b565b6102726103e881565b610267610fb7565b600a5461034e9061ffff1681565b610272610fcb565b6003546001600160a01b03165b6040516001600160a01b03909116815260200161024b565b6103956103bb3660046129c3565b6004602052600090815260409020546001600160a01b031681565b6103956103e4366004612aa1565b61111e565b61023f61113d565b61023f6103ff3660046129f7565b6111f8565b610267610412366004612ac3565b611221565b6102726298968081565b610272606481565b610272600081565b61026761043f366004612aed565b611257565b610267611419565b61026761045a366004612b22565b61149a565b61027261046d3660046129de565b611c6e565b61027260008051602061301d83398151915281565b610272610495366004612ba8565b611c85565b6102676104a83660046129f7565b611dcc565b6102676104bb3660046129c3565b611df1565b60006001600160e01b03198216635a05180f60e01b14806104e557506104e582611f03565b92915050565b60008051602061301d83398151915261050381611f38565b50600a805461ffff191661ffff92909216919091179055565b6001600160a01b038082166000908152600460208190526040808320548151633fabe5a360e21b81529151939416928492849263feaf968c928183019260a092829003018186803b15801561057057600080fd5b505afa158015610584573d6000803e3d6000fd5b505050506040513d601f19601f820116820180604052508101906105a89190612bfe565b50505091505060008112156040518060400160405280601b81526020017f436f6e76657273696f6e3a20476574205072696365204572726f720000000000815250906106105760405162461bcd60e51b81526004016106079190612c7a565b60405180910390fd5b509392505050565b6000807f00000000000000000000000000000000000000000000000000000000000000006001600160a01b0316634233799c6040518163ffffffff1660e01b815260040160206040518083038186803b15801561067457600080fd5b505afa158015610688573d6000803e3d6000fd5b505050506040513d601f19601f820116820180604052508101906106ac9190612cad565b116106b857506107d090565b6106c56103e86001612cdc565b7f00000000000000000000000000000000000000000000000000000000000000006001600160a01b0316634233799c6040518163ffffffff1660e01b815260040160206040518083038186803b15801561071e57600080fd5b505afa158015610732573d6000803e3d6000fd5b505050506040513d601f19601f820116820180604052508101906107569190612cad565b600954610765906103e8612cdc565b61076f9190612cfb565b6107799190612d1d565b905090565b60008281526020819052604090206001015461079981611f38565b6107a38383611f42565b505050565b6001600160a01b03811633146108185760405162461bcd60e51b815260206004820152602f60248201527f416363657373436f6e74726f6c3a2063616e206f6e6c792072656e6f756e636560448201526e103937b632b9903337b91039b2b63360891b6064820152608401610607565b6108228282611f64565b5050565b6005546000908190610840906001600160a01b031661051c565b9050600061084d8461051c565b90508161085d82620f4240612cdc565b6108679190612cfb565b949350505050565b60085460065460009190670de0b6b3a764000090610895906001600160a01b0316610826565b6007546107659190612cdc565b60008051602061301d8339815191526108ba81611f38565b50600c805461ffff191661ffff92909216919091179055565b6108db611f86565b60408051808201909152601581527422bd34b79d102bb937b733902830b930b6b2ba32b960591b6020820152826109255760405162461bcd60e51b81526004016106079190612c7a565b50600083600181111561093a5761093a612d35565b1415610c68576000670de0b6b3a76400007f00000000000000000000000000000000000000000000000000000000000000006001600160a01b031663b4ab0bbd6040518163ffffffff1660e01b815260040160206040518083038186803b1580156109a457600080fd5b505afa1580156109b8573d6000803e3d6000fd5b505050506040513d601f19601f820116820180604052508101906109dc9190612cad565b6109e69085612cdc565b6109f09190612cfb565b90506008548111610ad957604051632770a7eb60e21b8152336004820152602481018490527f00000000000000000000000000000000000000000000000000000000000000006001600160a01b031690639dc29fac90604401600060405180830381600087803b158015610a6357600080fd5b505af1158015610a77573d6000803e3d6000fd5b5050600c54610abc9250339150606490610a959061ffff1682612d4b565b610a9f9085612cdc565b610aa99190612cfb565b6005546001600160a01b03169190611fde565b8060086000828254610ace9190612d4b565b90915550610c1a9050565b600060085482610ae99190612d4b565b600654909150600090610b04906001600160a01b0316610826565b610b1683670de0b6b3a7640000612cdc565b610b209190612cfb565b9050610b2c8482612041565b50604051632770a7eb60e21b8152336004820152602481018690527f00000000000000000000000000000000000000000000000000000000000000006001600160a01b031690639dc29fac90604401600060405180830381600087803b158015610b9557600080fd5b505af1158015610ba9573d6000803e3d6000fd5b5050600c54610bd19250339150606490610bc79061ffff1682612d4b565b610a9f9087612cdc565b8060076000828254610be39190612d4b565b925050819055508160096000828254610bfc9190612d4b565b909155505060088054906000610c128380612d4b565b909155505050505b82846001811115610c2d57610c2d612d35565b60405183815233907f8f65dc25e7d3c2306bde880417fb8ef15a7c1f37276c65b376dfd40cd659c79f9060200160405180910390a450610fad565b6001836001811115610c7c57610c7c612d35565b1415610f6c576000670de0b6b3a76400007f00000000000000000000000000000000000000000000000000000000000000006001600160a01b031663b4ab0bbd6040518163ffffffff1660e01b815260040160206040518083038186803b158015610ce657600080fd5b505afa158015610cfa573d6000803e3d6000fd5b505050506040513d601f19601f82011682018060405250810190610d1e9190612cad565b610d289085612cdc565b610d329190612cfb565b905060007f00000000000000000000000000000000000000000000000000000000000000006001600160a01b03166318160ddd6040518163ffffffff1660e01b815260040160206040518083038186803b158015610d8f57600080fd5b505afa158015610da3573d6000803e3d6000fd5b505050506040513d601f19601f82011682018060405250810190610dc79190612cad565b84610dd061086f565b610dda9190612cdc565b610de49190612cfb565b600654909150600090610dff906001600160a01b0316610826565b610e1183670de0b6b3a7640000612cdc565b610e1b9190612cfb565b9050610e278482612041565b50604051632770a7eb60e21b8152336004820152602481018690527f00000000000000000000000000000000000000000000000000000000000000006001600160a01b031690639dc29fac90604401600060405180830381600087803b158015610e9057600080fd5b505af1158015610ea4573d6000803e3d6000fd5b5050600c54610ec29250339150606490610bc79061ffff1682612d4b565b8060076000828254610ed49190612d4b565b90915550610ee490508383612d4b565b60086000828254610ef59190612d1d565b90915550610f0590508383612d4b565b60096000828254610f169190612d4b565b90915550859050866001811115610f2f57610f2f612d35565b60405185815233907f8f65dc25e7d3c2306bde880417fb8ef15a7c1f37276c65b376dfd40cd659c79f9060200160405180910390a4505050610fad565b604080518082018252601381527222bd34b79d1024b73b30b634b2102a37b5b2b760691b6020820152905162461bcd60e51b81526106079190600401612c7a565b6107a36001600255565b610fbf612156565b610fc960006121b0565b565b6000807f00000000000000000000000000000000000000000000000000000000000000006001600160a01b0316634233799c6040518163ffffffff1660e01b815260040160206040518083038186803b15801561102757600080fd5b505afa15801561103b573d6000803e3d6000fd5b505050506040513d601f19601f8201168201806040525081019061105f9190612cad565b1161106f5750600a5461ffff1690565b7f00000000000000000000000000000000000000000000000000000000000000006001600160a01b0316634233799c6040518163ffffffff1660e01b815260040160206040518083038186803b1580156110c857600080fd5b505afa1580156110dc573d6000803e3d6000fd5b505050506040513d601f19601f820116820180604052508101906111009190612cad565b600a546009546111149161ffff1690612cdc565b6107799190612cfb565b60008281526001602052604081206111369083612202565b9392505050565b6000600560095460036111509190612cdc565b61115a9190612cfb565b7f00000000000000000000000000000000000000000000000000000000000000006001600160a01b0316634233799c6040518163ffffffff1660e01b815260040160206040518083038186803b1580156111b357600080fd5b505afa1580156111c7573d6000803e3d6000fd5b505050506040513d601f19601f820116820180604052508101906111eb9190612cad565b10156111f5575060015b90565b6000918252602082815260408084206001600160a01b0393909316845291905290205460ff1690565b611229612156565b6001600160a01b03918216600090815260046020526040902080546001600160a01b03191691909216179055565b60008051602061301d83398151915261126f81611f38565b6006546001600160a01b031661128860208401846129c3565b6001600160a01b0316146040518060400160405280601681526020017522bd34b79d102bb937b7339029b2b636102a37b5b2b760511b815250906112df5760405162461bcd60e51b81526004016106079190612c7a565b506005546001600160a01b03166112fc60408401602085016129c3565b6001600160a01b0316146040518060400160405280601581526020017422bd34b79d102bb937b73390213abc902a37b5b2b760591b815250906113525760405162461bcd60e51b81526004016106079190612c7a565b50816040013560046007546113679190612cfb565b146040518060400160405280601581526020017422bd34b79d102bb937b733902830b930b6b2ba32b960591b815250906113b45760405162461bcd60e51b81526004016106079190612c7a565b5060006113c5838460400135612041565b90508260400135600760008282546113dd9190612d4b565b9250508190555080600960008282546113f69190612d4b565b92505081905550806008600082825461140f9190612d1d565b9091555050505050565b611421611f86565b62015180600b54426114339190612d4b565b1061149057600a5460095462989680916114539161ffff90911690612cdc565b61145d9190612cfb565b6009600082825461146e9190612d1d565b9250508190555062015180600b600082825461148a9190612d1d565b90915550505b610fc96001600255565b6114a2611f86565b60018114806114b15750600281145b6040518060400160405280601581526020017422bd34b79d102bb937b733902830b930b6b2ba32b960591b815250906114fd5760405162461bcd60e51b81526004016106079190612c7a565b50368282600081811061151257611512612d62565b90506020028101906115249190612d78565b604080518082018252601581527422bd34b79d102bb937b733902830b930b6b2ba32b960591b60208201529192508201356115725760405162461bcd60e51b81526004016106079190612c7a565b50600061158260208301836129c3565b905061159d6001600160a01b0382163330604086013561220e565b6000808660018111156115b2576115b2612d35565b14156117f7576005546001600160a01b03166115d160208501856129c3565b6001600160a01b031614156115eb5750604082013561166f565b6005546001600160a01b031661160760408501602086016129c3565b6001600160a01b0316146040518060400160405280601581526020017422bd34b79d102bb937b73390213abc902a37b5b2b760591b8152509061165d5760405162461bcd60e51b81526004016106079190612c7a565b5061166c838460400135612041565b90505b60007f00000000000000000000000000000000000000000000000000000000000000006001600160a01b031663b4ab0bbd6040518163ffffffff1660e01b815260040160206040518083038186803b1580156116ca57600080fd5b505afa1580156116de573d6000803e3d6000fd5b505050506040513d601f19601f820116820180604052508101906117029190612cad565b61171483670de0b6b3a7640000612cdc565b61171e9190612cfb565b6040516340c10f1960e01b8152336004820152602481018290529091507f00000000000000000000000000000000000000000000000000000000000000006001600160a01b0316906340c10f1990604401600060405180830381600087803b15801561178957600080fd5b505af115801561179d573d6000803e3d6000fd5b5050505081600860008282546117b39190612d1d565b90915550829050600060405183815233907f3d60765a278f9d0bc631ef54bbbded8c7ae1bc91f027d10d6dfd053c0e1756489060200160405180910390a450611a77565b600186600181111561180b5761180b612d35565b1415610f6c576006546001600160a01b031661182d60408501602086016129c3565b6001600160a01b0316146040518060400160405280601581526020017422bd34b79d102bb937b73390213abc902a37b5b2b760591b815250906118835760405162461bcd60e51b81526004016106079190612c7a565b506005546001600160a01b031661189d60208501856129c3565b6001600160a01b031614156118b7575060408201356118e0565b6118dd6118c760208501856129c3565b6005546001600160a01b03166040860135611c85565b90505b60007f00000000000000000000000000000000000000000000000000000000000000006001600160a01b031663b4ab0bbd6040518163ffffffff1660e01b815260040160206040518083038186803b15801561193b57600080fd5b505afa15801561194f573d6000803e3d6000fd5b505050506040513d601f19601f820116820180604052508101906119739190612cad565b61198583670de0b6b3a7640000612cdc565b61198f9190612cfb565b6040516340c10f1960e01b8152336004820152602481018290529091507f00000000000000000000000000000000000000000000000000000000000000006001600160a01b0316906340c10f1990604401600060405180830381600087803b1580156119fa57600080fd5b505af1158015611a0e573d6000803e3d6000fd5b505050506000611a22858660400135612041565b90508060076000828254611a369190612d1d565b90915550839050600160405184815233907f3d60765a278f9d0bc631ef54bbbded8c7ae1bc91f027d10d6dfd053c0e1756489060200160405180910390a450505b6002841415611c61576001866001811115611a9457611a94612d35565b146040518060400160405280601581526020017422bd34b79d102bb937b733902830b930b6b2ba32b960591b81525090611ae15760405162461bcd60e51b81526004016106079190612c7a565b503685856001818110611af657611af6612d62565b9050602002810190611b089190612d78565b6006549091506001600160a01b0316611b2760408301602084016129c3565b6001600160a01b0316146040518060400160405280601581526020017422bd34b79d102bb937b73390213abc902a37b5b2b760591b81525090611b7d5760405162461bcd60e51b81526004016106079190612c7a565b506005546001600160a01b0316611b9760208301836129c3565b6001600160a01b0316146040518060400160405280601681526020017522bd34b79d102bb937b7339029b2b636102a37b5b2b760511b81525090611bee5760405162461bcd60e51b81526004016106079190612c7a565b506000826008541115611c02575081611c07565b506008545b8060086000828254611c199190612d4b565b925050819055508060096000828254611c329190612d1d565b9091555060009050611c448383612041565b90508060076000828254611c589190612d1d565b90915550505050505b5050506107a36001600255565b60008181526001602052604081206104e59061224c565b6000808490506000849050816001600160a01b031663313ce5676040518163ffffffff1660e01b815260040160206040518083038186803b158015611cc957600080fd5b505afa158015611cdd573d6000803e3d6000fd5b505050506040513d601f19601f82011682018060405250810190611d019190612d98565b611d0c90600a612e9f565b611d1586610826565b611d1f9190612cdc565b816001600160a01b031663313ce5676040518163ffffffff1660e01b815260040160206040518083038186803b158015611d5857600080fd5b505afa158015611d6c573d6000803e3d6000fd5b505050506040513d601f19601f82011682018060405250810190611d909190612d98565b611d9b90600a612e9f565b611da488610826565b611dae9087612cdc565b611db89190612cdc565b611dc29190612cfb565b9695505050505050565b600082815260208190526040902060010154611de781611f38565b6107a38383611f64565b611df9612156565b6001600160a01b038116611e5e5760405162461bcd60e51b815260206004820152602660248201527f4f776e61626c653a206e6577206f776e657220697320746865207a65726f206160448201526564647265737360d01b6064820152608401610607565b611e67816121b0565b50565b611e7482826111f8565b610822576000828152602081815260408083206001600160a01b03851684529091529020805460ff19166001179055611eaa3390565b6001600160a01b0316816001600160a01b0316837f2f8788117e7eff1d82e926ec794901d17c78024a50270940304540a733656f0d60405160405180910390a45050565b6000611136836001600160a01b038416612256565b60006001600160e01b03198216637965db0b60e01b14806104e557506301ffc9a760e01b6001600160e01b03198316146104e5565b611e6781336122a5565b611f4c8282611e6a565b60008281526001602052604090206107a39082611eee565b611f6e82826122fe565b60008281526001602052604090206107a39082612363565b600280541415611fd85760405162461bcd60e51b815260206004820152601f60248201527f5265656e7472616e637947756172643a207265656e7472616e742063616c6c006044820152606401610607565b60028055565b6040516001600160a01b0383166024820152604481018290526107a390849063a9059cbb60e01b906064015b60408051601f198184030181529190526020810180516001600160e01b03166001600160e01b031990931692909217909152612378565b6000612079731111111254eeb25477b68fb85ed929f73a9605828361206960208701876129c3565b6001600160a01b0316919061244a565b600080731111111254eeb25477b68fb85ed929f73a96058261209e6060870187612eae565b6040516120ac929190612efc565b6000604051808303816000865af19150503d80600081146120e9576040519150601f19603f3d011682016040523d82523d6000602084013e6120ee565b606091505b50915091506000818060200190518101906121099190612f0c565b5090508261214d5760405162461bcd60e51b81526020600482015260116024820152700c525b98da0b5cddd85c0b59985a5b1959607a1b6044820152606401610607565b95945050505050565b6003546001600160a01b03163314610fc95760405162461bcd60e51b815260206004820181905260248201527f4f776e61626c653a2063616c6c6572206973206e6f7420746865206f776e65726044820152606401610607565b600380546001600160a01b038381166001600160a01b0319831681179093556040519116919082907f8be0079c531659141344cd1fd0a4f28419497f9722a3daafe3b4186f6b6457e090600090a35050565b6000611136838361256e565b6040516001600160a01b03808516602483015283166044820152606481018290526122469085906323b872dd60e01b9060840161200a565b50505050565b60006104e5825490565b600081815260018301602052604081205461229d575081546001818101845560008481526020808220909301849055845484825282860190935260409020919091556104e5565b5060006104e5565b6122af82826111f8565b610822576122bc81612598565b6122c78360206125aa565b6040516020016122d8929190612f30565b60408051601f198184030181529082905262461bcd60e51b825261060791600401612c7a565b61230882826111f8565b15610822576000828152602081815260408083206001600160a01b0385168085529252808320805460ff1916905551339285917ff6391f5c32d9c69d2a47ea670b442974b53935d1edc7fd64eb21e047a839171b9190a45050565b6000611136836001600160a01b038416612746565b60006123cd826040518060400160405280602081526020017f5361666545524332303a206c6f772d6c6576656c2063616c6c206661696c6564815250856001600160a01b03166128399092919063ffffffff16565b8051909150156107a357808060200190518101906123eb9190612fa5565b6107a35760405162461bcd60e51b815260206004820152602a60248201527f5361666545524332303a204552433230206f7065726174696f6e20646964206e6044820152691bdd081cdd58d8d9595960b21b6064820152608401610607565b8015806124d35750604051636eb1769f60e11b81523060048201526001600160a01b03838116602483015284169063dd62ed3e9060440160206040518083038186803b15801561249957600080fd5b505afa1580156124ad573d6000803e3d6000fd5b505050506040513d601f19601f820116820180604052508101906124d19190612cad565b155b61253e5760405162461bcd60e51b815260206004820152603660248201527f5361666545524332303a20617070726f76652066726f6d206e6f6e2d7a65726f60448201527520746f206e6f6e2d7a65726f20616c6c6f77616e636560501b6064820152608401610607565b6040516001600160a01b0383166024820152604481018290526107a390849063095ea7b360e01b9060640161200a565b600082600001828154811061258557612585612d62565b9060005260206000200154905092915050565b60606104e56001600160a01b03831660145b606060006125b9836002612cdc565b6125c4906002612d1d565b67ffffffffffffffff8111156125dc576125dc612fc7565b6040519080825280601f01601f191660200182016040528015612606576020820181803683370190505b509050600360fc1b8160008151811061262157612621612d62565b60200101906001600160f81b031916908160001a905350600f60fb1b8160018151811061265057612650612d62565b60200101906001600160f81b031916908160001a9053506000612674846002612cdc565b61267f906001612d1d565b90505b60018111156126f7576f181899199a1a9b1b9c1cb0b131b232b360811b85600f16601081106126b3576126b3612d62565b1a60f81b8282815181106126c9576126c9612d62565b60200101906001600160f81b031916908160001a90535060049490941c936126f081612fdd565b9050612682565b5083156111365760405162461bcd60e51b815260206004820181905260248201527f537472696e67733a20686578206c656e67746820696e73756666696369656e746044820152606401610607565b6000818152600183016020526040812054801561282f57600061276a600183612d4b565b855490915060009061277e90600190612d4b565b90508181146127e357600086600001828154811061279e5761279e612d62565b90600052602060002001549050808760000184815481106127c1576127c1612d62565b6000918252602080832090910192909255918252600188019052604090208390555b85548690806127f4576127f4612ff4565b6001900381819060005260206000200160009055905585600101600086815260200190815260200160002060009055600193505050506104e5565b60009150506104e5565b6060610867848460008585600080866001600160a01b03168587604051612860919061300a565b60006040518083038185875af1925050503d806000811461289d576040519150601f19603f3d011682016040523d82523d6000602084013e6128a2565b606091505b50915091506128b3878383876128be565b979650505050505050565b6060831561292a578251612923576001600160a01b0385163b6129235760405162461bcd60e51b815260206004820152601d60248201527f416464726573733a2063616c6c20746f206e6f6e2d636f6e74726163740000006044820152606401610607565b5081610867565b610867838381511561293f5781518083602001fd5b8060405162461bcd60e51b81526004016106079190612c7a565b60006020828403121561296b57600080fd5b81356001600160e01b03198116811461113657600080fd5b60006020828403121561299557600080fd5b813561ffff8116811461113657600080fd5b80356001600160a01b03811681146129be57600080fd5b919050565b6000602082840312156129d557600080fd5b611136826129a7565b6000602082840312156129f057600080fd5b5035919050565b60008060408385031215612a0a57600080fd5b82359150612a1a602084016129a7565b90509250929050565b8035600281106129be57600080fd5b600060808284031215612a4457600080fd5b50919050565b600080600060608486031215612a5f57600080fd5b612a6884612a23565b925060208401359150604084013567ffffffffffffffff811115612a8b57600080fd5b612a9786828701612a32565b9150509250925092565b60008060408385031215612ab457600080fd5b50508035926020909101359150565b60008060408385031215612ad657600080fd5b612adf836129a7565b9150612a1a602084016129a7565b600060208284031215612aff57600080fd5b813567ffffffffffffffff811115612b1657600080fd5b61086784828501612a32565b600080600060408486031215612b3757600080fd5b612b4084612a23565b9250602084013567ffffffffffffffff80821115612b5d57600080fd5b818601915086601f830112612b7157600080fd5b813581811115612b8057600080fd5b8760208260051b8501011115612b9557600080fd5b6020830194508093505050509250925092565b600080600060608486031215612bbd57600080fd5b612bc6846129a7565b9250612bd4602085016129a7565b9150604084013590509250925092565b805169ffffffffffffffffffff811681146129be57600080fd5b600080600080600060a08688031215612c1657600080fd5b612c1f86612be4565b9450602086015193506040860151925060608601519150612c4260808701612be4565b90509295509295909350565b60005b83811015612c69578181015183820152602001612c51565b838111156122465750506000910152565b6020815260008251806020840152612c99816040850160208701612c4e565b601f01601f19169190910160400192915050565b600060208284031215612cbf57600080fd5b5051919050565b634e487b7160e01b600052601160045260246000fd5b6000816000190483118215151615612cf657612cf6612cc6565b500290565b600082612d1857634e487b7160e01b600052601260045260246000fd5b500490565b60008219821115612d3057612d30612cc6565b500190565b634e487b7160e01b600052602160045260246000fd5b600082821015612d5d57612d5d612cc6565b500390565b634e487b7160e01b600052603260045260246000fd5b60008235607e19833603018112612d8e57600080fd5b9190910192915050565b600060208284031215612daa57600080fd5b815160ff8116811461113657600080fd5b600181815b80851115612df6578160001904821115612ddc57612ddc612cc6565b80851615612de957918102915b93841c9390800290612dc0565b509250929050565b600082612e0d575060016104e5565b81612e1a575060006104e5565b8160018114612e305760028114612e3a57612e56565b60019150506104e5565b60ff841115612e4b57612e4b612cc6565b50506001821b6104e5565b5060208310610133831016604e8410600b8410161715612e79575081810a6104e5565b612e838383612dbb565b8060001904821115612e9757612e97612cc6565b029392505050565b600061113660ff841683612dfe565b6000808335601e19843603018112612ec557600080fd5b83018035915067ffffffffffffffff821115612ee057600080fd5b602001915036819003821315612ef557600080fd5b9250929050565b8183823760009101908152919050565b60008060408385031215612f1f57600080fd5b505080516020909101519092909150565b7f416363657373436f6e74726f6c3a206163636f756e7420000000000000000000815260008351612f68816017850160208801612c4e565b7001034b99036b4b9b9b4b733903937b6329607d1b6017918401918201528351612f99816028840160208801612c4e565b01602801949350505050565b600060208284031215612fb757600080fd5b8151801515811461113657600080fd5b634e487b7160e01b600052604160045260246000fd5b600081612fec57612fec612cc6565b506000190190565b634e487b7160e01b600052603160045260246000fd5b60008251612d8e818460208701612c4e56fe7935bd0ae54bc31f548c14dba4d37c5c64b3f8ca900cb468fb8abd54d5894f55a2646970667358221220fa100d6b63484888fb413eae0d0e1c4a1b2067ee793b5f6abb122e29a81075bd64736f6c63430008080033",
  "devdoc": {
    "kind": "dev",
    "methods": {
      "aggregatorAction(address)": {
        "returns": {
          "_0": "uint256"
        }
      },
      "convertAmt(address,address,uint256)": {
        "params": {
          "sourceAddress": "token",
          "sourceAmount": "token",
          "targetAddress": "token"
        },
        "returns": {
          "_0": "uint256        token"
        }
      },
      "convertDown((address,address,uint256,bytes))": {
        "params": {
          "quote_": ""
        }
      },
      "getPrice(address)": {
        "returns": {
          "_0": "uint256"
        }
      },
      "getRoleAdmin(bytes32)": {
        "details": "Returns the admin role that controls `role`. See {grantRole} and {revokeRole}. To change a role's admin, use {_setRoleAdmin}."
      },
      "getRoleMember(bytes32,uint256)": {
        "details": "Returns one of the accounts that have `role`. `index` must be a value between 0 and {getRoleMemberCount}, non-inclusive. Role bearers are not sorted in any particular way, and their ordering may change at any point. WARNING: When using {getRoleMember} and {getRoleMemberCount}, make sure you perform all queries on the same block. See the following https://forum.openzeppelin.com/t/iterating-over-elements-on-enumerableset-in-openzeppelin-contracts/2296[forum post] for more information."
      },
      "getRoleMemberCount(bytes32)": {
        "details": "Returns the number of accounts that have `role`. Can be used together with {getRoleMember} to enumerate all bearers of a role."
      },
      "grantRole(bytes32,address)": {
        "details": "Grants `role` to `account`. If `account` had not been already granted `role`, emits a {RoleGranted} event. Requirements: - the caller must have ``role``'s admin role. May emit a {RoleGranted} event."
      },
      "hasRole(bytes32,address)": {
        "details": "Returns `true` if `account` has been granted `role`."
      },
      "leverage()": {
        "returns": {
          "_0": "uint256   bToken"
        }
      },
      "owner()": {
        "details": "Returns the address of the current owner."
      },
      "purchase(uint8,(address,address,uint256,bytes)[])": {
        "params": {
          "quotes_": "",
          "type_": "0aToken,1bToken"
        }
      },
      "redeem(uint8,uint256,(address,address,uint256,bytes))": {
        "params": {
          "qty_": "",
          "quote_": "",
          "type_": "0aToken,1bToken"
        }
      },
      "renounceOwnership()": {
        "details": "Leaves the contract without owner. It will not be possible to call `onlyOwner` functions anymore. Can only be called by the current owner. NOTE: Renouncing ownership will leave the contract without an owner, thereby removing any functionality that is only available to the owner."
      },
      "renounceRole(bytes32,address)": {
        "details": "Revokes `role` from the calling account. Roles are often managed via {grantRole} and {revokeRole}: this function's purpose is to provide a mechanism for accounts to lose their privileges if they are compromised (such as when a trusted device is misplaced). If the calling account had been revoked `role`, emits a {RoleRevoked} event. Requirements: - the caller must be `account`. May emit a {RoleRevoked} event."
      },
      "revokeRole(bytes32,address)": {
        "details": "Revokes `role` from `account`. If `account` had been granted `role`, emits a {RoleRevoked} event. Requirements: - the caller must have ``role``'s admin role. May emit a {RoleRevoked} event."
      },
      "supportsInterface(bytes4)": {
        "details": "See {IERC165-supportsInterface}."
      },
      "totalNetWorth()": {
        "returns": {
          "_0": "uint256       "
        }
      },
      "transferOwnership(address)": {
        "details": "Transfers ownership of the contract to a new account (`newOwner`). Can only be called by the current owner."
      }
    },
    "stateVariables": {
      "matchedA": {
        "return": "uint256",
        "returns": {
          "_0": "uint256"
        }
      },
      "pooledA": {
        "return": "uint256",
        "returns": {
          "_0": "uint256"
        }
      }
    },
    "version": 1
  },
  "userdoc": {
    "kind": "user",
    "methods": {
      "aggregatorAction(address)": {
        "notice": "chainlinktokenETH"
      },
      "check()": {
        "notice": "bToken,aToken60%"
      },
      "convertAmt(address,address,uint256)": {
        "notice": "ERC20token:sourceAmount*sourcePrice/sourceDecimals=targetAmount*targetPrice/targetDecimals"
      },
      "convertDown((address,address,uint256,bytes))": {
        "notice": ","
      },
      "getPrice(address)": {
        "notice": "tokenSTABLE_COIN"
      },
      "interestRate()": {
        "notice": "aToken"
      },
      "leverage()": {
        "notice": "=aToken/bToken+1"
      },
      "matchedA()": {
        "notice": "A"
      },
      "pooledA()": {
        "notice": "A"
      },
      "purchase(uint8,(address,address,uint256,bytes)[])": {
        "notice": "aTokenbToken"
      },
      "rebase()": {
        "notice": ",aToken"
      },
      "redeem(uint8,uint256,(address,address,uint256,bytes))": {
        "notice": "aTokenbToken"
      },
      "setAggregators(address,address)": {
        "notice": "token"
      },
      "setRedeemFeeRate(uint16)": {
        "notice": ""
      },
      "setRewardRate(uint16)": {
        "notice": ""
      },
      "totalNetWorth()": {
        "notice": "=*+pooledA"
      }
    },
    "version": 1
  },
  "storageLayout": {
    "storage": [
      {
        "astId": 1601,
        "contract": "contracts/EzioV1.sol:EzioV1",
        "label": "_roles",
        "offset": 0,
        "slot": "0",
        "type": "t_mapping(t_bytes32,t_struct(RoleData)1596_storage)"
      },
      {
        "astId": 1911,
        "contract": "contracts/EzioV1.sol:EzioV1",
        "label": "_roleMembers",
        "offset": 0,
        "slot": "1",
        "type": "t_mapping(t_bytes32,t_struct(AddressSet)5188_storage)"
      },
      {
        "astId": 2347,
        "contract": "contracts/EzioV1.sol:EzioV1",
        "label": "_status",
        "offset": 0,
        "slot": "2",
        "type": "t_uint256"
      },
      {
        "astId": 2123,
        "contract": "contracts/EzioV1.sol:EzioV1",
        "label": "_owner",
        "offset": 0,
        "slot": "3",
        "type": "t_address"
      },
      {
        "astId": 5886,
        "contract": "contracts/EzioV1.sol:EzioV1",
        "label": "tokenAggregators",
        "offset": 0,
        "slot": "4",
        "type": "t_mapping(t_address,t_address)"
      },
      {
        "astId": 5889,
        "contract": "contracts/EzioV1.sol:EzioV1",
        "label": "stableToken",
        "offset": 0,
        "slot": "5",
        "type": "t_contract(IERC20Metadata)3117"
      },
      {
        "astId": 5892,
        "contract": "contracts/EzioV1.sol:EzioV1",
        "label": "reserveToken",
        "offset": 0,
        "slot": "6",
        "type": "t_contract(IERC20Metadata)3117"
      },
      {
        "astId": 6731,
        "contract": "contracts/EzioV1.sol:EzioV1",
        "label": "totalReserve",
        "offset": 0,
        "slot": "7",
        "type": "t_uint256"
      },
      {
        "astId": 6733,
        "contract": "contracts/EzioV1.sol:EzioV1",
        "label": "pooledA",
        "offset": 0,
        "slot": "8",
        "type": "t_uint256"
      },
      {
        "astId": 6735,
        "contract": "contracts/EzioV1.sol:EzioV1",
        "label": "matchedA",
        "offset": 0,
        "slot": "9",
        "type": "t_uint256"
      },
      {
        "astId": 6737,
        "contract": "contracts/EzioV1.sol:EzioV1",
        "label": "rewardRate",
        "offset": 0,
        "slot": "10",
        "type": "t_uint16"
      },
      {
        "astId": 6742,
        "contract": "contracts/EzioV1.sol:EzioV1",
        "label": "lastRebaseTime",
        "offset": 0,
        "slot": "11",
        "type": "t_uint256"
      },
      {
        "astId": 6747,
        "contract": "contracts/EzioV1.sol:EzioV1",
        "label": "redeemFeeRate",
        "offset": 0,
        "slot": "12",
        "type": "t_uint16"
      }
    ],
    "types": {
      "t_address": {
        "encoding": "inplace",
        "label": "address",
        "numberOfBytes": "20"
      },
      "t_array(t_bytes32)dyn_storage": {
        "base": "t_bytes32",
        "encoding": "dynamic_array",
        "label": "bytes32[]",
        "numberOfBytes": "32"
      },
      "t_bool": {
        "encoding": "inplace",
        "label": "bool",
        "numberOfBytes": "1"
      },
      "t_bytes32": {
        "encoding": "inplace",
        "label": "bytes32",
        "numberOfBytes": "32"
      },
      "t_contract(IERC20Metadata)3117": {
        "encoding": "inplace",
        "label": "contract IERC20Metadata",
        "numberOfBytes": "20"
      },
      "t_mapping(t_address,t_address)": {
        "encoding": "mapping",
        "key": "t_address",
        "label": "mapping(address => address)",
        "numberOfBytes": "32",
        "value": "t_address"
      },
      "t_mapping(t_address,t_bool)": {
        "encoding": "mapping",
        "key": "t_address",
        "label": "mapping(address => bool)",
        "numberOfBytes": "32",
        "value": "t_bool"
      },
      "t_mapping(t_bytes32,t_struct(AddressSet)5188_storage)": {
        "encoding": "mapping",
        "key": "t_bytes32",
        "label": "mapping(bytes32 => struct EnumerableSet.AddressSet)",
        "numberOfBytes": "32",
        "value": "t_struct(AddressSet)5188_storage"
      },
      "t_mapping(t_bytes32,t_struct(RoleData)1596_storage)": {
        "encoding": "mapping",
        "key": "t_bytes32",
        "label": "mapping(bytes32 => struct AccessControl.RoleData)",
        "numberOfBytes": "32",
        "value": "t_struct(RoleData)1596_storage"
      },
      "t_mapping(t_bytes32,t_uint256)": {
        "encoding": "mapping",
        "key": "t_bytes32",
        "label": "mapping(bytes32 => uint256)",
        "numberOfBytes": "32",
        "value": "t_uint256"
      },
      "t_struct(AddressSet)5188_storage": {
        "encoding": "inplace",
        "label": "struct EnumerableSet.AddressSet",
        "members": [
          {
            "astId": 5187,
            "contract": "contracts/EzioV1.sol:EzioV1",
            "label": "_inner",
            "offset": 0,
            "slot": "0",
            "type": "t_struct(Set)4873_storage"
          }
        ],
        "numberOfBytes": "64"
      },
      "t_struct(RoleData)1596_storage": {
        "encoding": "inplace",
        "label": "struct AccessControl.RoleData",
        "members": [
          {
            "astId": 1593,
            "contract": "contracts/EzioV1.sol:EzioV1",
            "label": "members",
            "offset": 0,
            "slot": "0",
            "type": "t_mapping(t_address,t_bool)"
          },
          {
            "astId": 1595,
            "contract": "contracts/EzioV1.sol:EzioV1",
            "label": "adminRole",
            "offset": 0,
            "slot": "1",
            "type": "t_bytes32"
          }
        ],
        "numberOfBytes": "64"
      },
      "t_struct(Set)4873_storage": {
        "encoding": "inplace",
        "label": "struct EnumerableSet.Set",
        "members": [
          {
            "astId": 4868,
            "contract": "contracts/EzioV1.sol:EzioV1",
            "label": "_values",
            "offset": 0,
            "slot": "0",
            "type": "t_array(t_bytes32)dyn_storage"
          },
          {
            "astId": 4872,
            "contract": "contracts/EzioV1.sol:EzioV1",
            "label": "_indexes",
            "offset": 0,
            "slot": "1",
            "type": "t_mapping(t_bytes32,t_uint256)"
          }
        ],
        "numberOfBytes": "64"
      },
      "t_uint16": {
        "encoding": "inplace",
        "label": "uint16",
        "numberOfBytes": "2"
      },
      "t_uint256": {
        "encoding": "inplace",
        "label": "uint256",
        "numberOfBytes": "32"
      }
    }
  }
}