{
  "address": "0xF58F7c6a17B8c46081e42572b301f44c24932bb2",
  "abi": [
    {
      "inputs": [],
      "stateMutability": "nonpayable",
      "type": "constructor"
    },
    {
      "anonymous": false,
      "inputs": [
        {
          "indexed": true,
          "internalType": "address",
          "name": "owner",
          "type": "address"
        },
        {
          "indexed": true,
          "internalType": "address",
          "name": "spender",
          "type": "address"
        },
        {
          "indexed": false,
          "internalType": "uint256",
          "name": "value",
          "type": "uint256"
        }
      ],
      "name": "Approval",
      "type": "event"
    },
    {
      "anonymous": false,
      "inputs": [
        {
          "indexed": false,
          "internalType": "address",
          "name": "account",
          "type": "address"
        }
      ],
      "name": "Paused",
      "type": "event"
    },
    {
      "anonymous": false,
      "inputs": [
        {
          "indexed": true,
          "internalType": "bytes32",
          "name": "role",
          "type": "bytes32"
        },
        {
          "indexed": true,
          "internalType": "bytes32",
          "name": "previousAdminRole",
          "type": "bytes32"
        },
        {
          "indexed": true,
          "internalType": "bytes32",
          "name": "newAdminRole",
          "type": "bytes32"
        }
      ],
      "name": "RoleAdminChanged",
      "type": "event"
    },
    {
      "anonymous": false,
      "inputs": [
        {
          "indexed": true,
          "internalType": "bytes32",
          "name": "role",
          "type": "bytes32"
        },
        {
          "indexed": true,
          "internalType": "address",
          "name": "account",
          "type": "address"
        },
        {
          "indexed": true,
          "internalType": "address",
          "name": "sender",
          "type": "address"
        }
      ],
      "name": "RoleGranted",
      "type": "event"
    },
    {
      "anonymous": false,
      "inputs": [
        {
          "indexed": true,
          "internalType": "bytes32",
          "name": "role",
          "type": "bytes32"
        },
        {
          "indexed": true,
          "internalType": "address",
          "name": "account",
          "type": "address"
        },
        {
          "indexed": true,
          "internalType": "address",
          "name": "sender",
          "type": "address"
        }
      ],
      "name": "RoleRevoked",
      "type": "event"
    },
    {
      "anonymous": false,
      "inputs": [
        {
          "indexed": true,
          "internalType": "address",
          "name": "from",
          "type": "address"
        },
        {
          "indexed": true,
          "internalType": "address",
          "name": "to",
          "type": "address"
        },
        {
          "indexed": false,
          "internalType": "uint256",
          "name": "value",
          "type": "uint256"
        }
      ],
      "name": "Transfer",
      "type": "event"
    },
    {
      "anonymous": false,
      "inputs": [
        {
          "indexed": false,
          "internalType": "address",
          "name": "account",
          "type": "address"
        }
      ],
      "name": "Unpaused",
      "type": "event"
    },
    {
      "inputs": [],
      "name": "BURNER_ROLE",
      "outputs": [
        {
          "internalType": "bytes32",
          "name": "",
          "type": "bytes32"
        }
      ],
      "stateMutability": "view",
      "type": "function"
    },
    {
      "inputs": [],
      "name": "DEFAULT_ADMIN_ROLE",
      "outputs": [
        {
          "internalType": "bytes32",
          "name": "",
          "type": "bytes32"
        }
      ],
      "stateMutability": "view",
      "type": "function"
    },
    {
      "inputs": [],
      "name": "GOVERNOR_ROLE",
      "outputs": [
        {
          "internalType": "bytes32",
          "name": "",
          "type": "bytes32"
        }
      ],
      "stateMutability": "view",
      "type": "function"
    },
    {
      "inputs": [],
      "name": "MINTER_ROLE",
      "outputs": [
        {
          "internalType": "bytes32",
          "name": "",
          "type": "bytes32"
        }
      ],
      "stateMutability": "view",
      "type": "function"
    },
    {
      "inputs": [
        {
          "internalType": "address",
          "name": "owner",
          "type": "address"
        },
        {
          "internalType": "address",
          "name": "spender",
          "type": "address"
        }
      ],
      "name": "allowance",
      "outputs": [
        {
          "internalType": "uint256",
          "name": "",
          "type": "uint256"
        }
      ],
      "stateMutability": "view",
      "type": "function"
    },
    {
      "inputs": [
        {
          "internalType": "address",
          "name": "spender",
          "type": "address"
        },
        {
          "internalType": "uint256",
          "name": "amount",
          "type": "uint256"
        }
      ],
      "name": "approve",
      "outputs": [
        {
          "internalType": "bool",
          "name": "",
          "type": "bool"
        }
      ],
      "stateMutability": "nonpayable",
      "type": "function"
    },
    {
      "inputs": [
        {
          "internalType": "address",
          "name": "account",
          "type": "address"
        }
      ],
      "name": "balanceOf",
      "outputs": [
        {
          "internalType": "uint256",
          "name": "",
          "type": "uint256"
        }
      ],
      "stateMutability": "view",
      "type": "function"
    },
    {
      "inputs": [
        {
          "internalType": "address",
          "name": "from",
          "type": "address"
        },
        {
          "internalType": "uint256",
          "name": "amount",
          "type": "uint256"
        }
      ],
      "name": "burn",
      "outputs": [],
      "stateMutability": "nonpayable",
      "type": "function"
    },
    {
      "inputs": [],
      "name": "decimals",
      "outputs": [
        {
          "internalType": "uint8",
          "name": "",
          "type": "uint8"
        }
      ],
      "stateMutability": "view",
      "type": "function"
    },
    {
      "inputs": [
        {
          "internalType": "address",
          "name": "spender",
          "type": "address"
        },
        {
          "internalType": "uint256",
          "name": "subtractedValue",
          "type": "uint256"
        }
      ],
      "name": "decreaseAllowance",
      "outputs": [
        {
          "internalType": "bool",
          "name": "",
          "type": "bool"
        }
      ],
      "stateMutability": "nonpayable",
      "type": "function"
    },
    {
      "inputs": [
        {
          "internalType": "bytes32",
          "name": "role",
          "type": "bytes32"
        }
      ],
      "name": "getRoleAdmin",
      "outputs": [
        {
          "internalType": "bytes32",
          "name": "",
          "type": "bytes32"
        }
      ],
      "stateMutability": "view",
      "type": "function"
    },
    {
      "inputs": [
        {
          "internalType": "bytes32",
          "name": "role",
          "type": "bytes32"
        },
        {
          "internalType": "uint256",
          "name": "index",
          "type": "uint256"
        }
      ],
      "name": "getRoleMember",
      "outputs": [
        {
          "internalType": "address",
          "name": "",
          "type": "address"
        }
      ],
      "stateMutability": "view",
      "type": "function"
    },
    {
      "inputs": [
        {
          "internalType": "bytes32",
          "name": "role",
          "type": "bytes32"
        }
      ],
      "name": "getRoleMemberCount",
      "outputs": [
        {
          "internalType": "uint256",
          "name": "",
          "type": "uint256"
        }
      ],
      "stateMutability": "view",
      "type": "function"
    },
    {
      "inputs": [
        {
          "internalType": "bytes32",
          "name": "role",
          "type": "bytes32"
        },
        {
          "internalType": "address",
          "name": "account",
          "type": "address"
        }
      ],
      "name": "grantRole",
      "outputs": [],
      "stateMutability": "nonpayable",
      "type": "function"
    },
    {
      "inputs": [
        {
          "internalType": "bytes32",
          "name": "role",
          "type": "bytes32"
        },
        {
          "internalType": "address",
          "name": "account",
          "type": "address"
        }
      ],
      "name": "hasRole",
      "outputs": [
        {
          "internalType": "bool",
          "name": "",
          "type": "bool"
        }
      ],
      "stateMutability": "view",
      "type": "function"
    },
    {
      "inputs": [
        {
          "internalType": "address",
          "name": "spender",
          "type": "address"
        },
        {
          "internalType": "uint256",
          "name": "addedValue",
          "type": "uint256"
        }
      ],
      "name": "increaseAllowance",
      "outputs": [
        {
          "internalType": "bool",
          "name": "",
          "type": "bool"
        }
      ],
      "stateMutability": "nonpayable",
      "type": "function"
    },
    {
      "inputs": [
        {
          "internalType": "address",
          "name": "addr_",
          "type": "address"
        }
      ],
      "name": "initialize",
      "outputs": [],
      "stateMutability": "nonpayable",
      "type": "function"
    },
    {
      "inputs": [
        {
          "internalType": "address",
          "name": "to",
          "type": "address"
        },
        {
          "internalType": "uint256",
          "name": "amount",
          "type": "uint256"
        }
      ],
      "name": "mint",
      "outputs": [],
      "stateMutability": "nonpayable",
      "type": "function"
    },
    {
      "inputs": [],
      "name": "name",
      "outputs": [
        {
          "internalType": "string",
          "name": "",
          "type": "string"
        }
      ],
      "stateMutability": "view",
      "type": "function"
    },
    {
      "inputs": [],
      "name": "netWorth",
      "outputs": [
        {
          "internalType": "uint256",
          "name": "",
          "type": "uint256"
        }
      ],
      "stateMutability": "view",
      "type": "function"
    },
    {
      "inputs": [],
      "name": "pause",
      "outputs": [],
      "stateMutability": "nonpayable",
      "type": "function"
    },
    {
      "inputs": [],
      "name": "paused",
      "outputs": [
        {
          "internalType": "bool",
          "name": "",
          "type": "bool"
        }
      ],
      "stateMutability": "view",
      "type": "function"
    },
    {
      "inputs": [
        {
          "internalType": "bytes32",
          "name": "role",
          "type": "bytes32"
        },
        {
          "internalType": "address",
          "name": "account",
          "type": "address"
        }
      ],
      "name": "renounceRole",
      "outputs": [],
      "stateMutability": "nonpayable",
      "type": "function"
    },
    {
      "inputs": [
        {
          "internalType": "bytes32",
          "name": "role",
          "type": "bytes32"
        },
        {
          "internalType": "address",
          "name": "account",
          "type": "address"
        }
      ],
      "name": "revokeRole",
      "outputs": [],
      "stateMutability": "nonpayable",
      "type": "function"
    },
    {
      "inputs": [
        {
          "internalType": "bytes4",
          "name": "interfaceId",
          "type": "bytes4"
        }
      ],
      "name": "supportsInterface",
      "outputs": [
        {
          "internalType": "bool",
          "name": "",
          "type": "bool"
        }
      ],
      "stateMutability": "view",
      "type": "function"
    },
    {
      "inputs": [],
      "name": "symbol",
      "outputs": [
        {
          "internalType": "string",
          "name": "",
          "type": "string"
        }
      ],
      "stateMutability": "view",
      "type": "function"
    },
    {
      "inputs": [],
      "name": "totalNetWorth",
      "outputs": [
        {
          "internalType": "uint256",
          "name": "",
          "type": "uint256"
        }
      ],
      "stateMutability": "view",
      "type": "function"
    },
    {
      "inputs": [],
      "name": "totalSupply",
      "outputs": [
        {
          "internalType": "uint256",
          "name": "",
          "type": "uint256"
        }
      ],
      "stateMutability": "view",
      "type": "function"
    },
    {
      "inputs": [
        {
          "internalType": "address",
          "name": "to",
          "type": "address"
        },
        {
          "internalType": "uint256",
          "name": "amount",
          "type": "uint256"
        }
      ],
      "name": "transfer",
      "outputs": [
        {
          "internalType": "bool",
          "name": "",
          "type": "bool"
        }
      ],
      "stateMutability": "nonpayable",
      "type": "function"
    },
    {
      "inputs": [
        {
          "internalType": "address",
          "name": "from",
          "type": "address"
        },
        {
          "internalType": "address",
          "name": "to",
          "type": "address"
        },
        {
          "internalType": "uint256",
          "name": "amount",
          "type": "uint256"
        }
      ],
      "name": "transferFrom",
      "outputs": [
        {
          "internalType": "bool",
          "name": "",
          "type": "bool"
        }
      ],
      "stateMutability": "nonpayable",
      "type": "function"
    },
    {
      "inputs": [],
      "name": "unpause",
      "outputs": [],
      "stateMutability": "nonpayable",
      "type": "function"
    }
  ],
  "transactionHash": "0xc3093ecd11fb4f8e9e94307cbb2cded0d0e670490db9b1fe9a40db03f563ef46",
  "args": [],
  "numDeployments": 1,
  "solcInputHash": "31f629265a66252bb940243eed3fdee8",
  "bytecode": "0x60806040523480156200001157600080fd5b506040518060400160405280601081526020016f22b73a32b9383934b9b2902a37b5b2b760811b81525060405180604001604052806007815260200166457a4d4154494360c81b815250600082828160039080519060200190620000779291906200037e565b5080516200008d9060049060208401906200037e565b50506005805460ff1916905550620000b933620000b383670de0b6b3a76400006200043a565b620000cf565b620000c6600033620001a5565b505050620004b4565b6001600160a01b0382166200012b5760405162461bcd60e51b815260206004820152601f60248201527f45524332303a206d696e7420746f20746865207a65726f20616464726573730060448201526064015b60405180910390fd5b6200013960008383620001e8565b80600260008282546200014d91906200045c565b90915550506001600160a01b038216600081815260208181526040808320805486019055518481527fddf252ad1be2c89b69c2b068fc378daa952ba7f163c4a11628f55a4df523b3ef910160405180910390a35b5050565b620001bc82826200026860201b62000b101760201c565b6000828152600760209081526040909120620001e391839062000b966200030c821b17901c565b505050565b62000200838383620001e360201b620005991760201c565b60055460ff1615620001e35760405162461bcd60e51b815260206004820152602a60248201527f45524332305061757361626c653a20746f6b656e207472616e736665722077686044820152691a5b19481c185d5cd95960b21b606482015260840162000122565b60008281526006602090815260408083206001600160a01b038516845290915290205460ff16620001a15760008281526006602090815260408083206001600160a01b03851684529091529020805460ff19166001179055620002c83390565b6001600160a01b0316816001600160a01b0316837f2f8788117e7eff1d82e926ec794901d17c78024a50270940304540a733656f0d60405160405180910390a45050565b600062000323836001600160a01b0384166200032c565b90505b92915050565b6000818152600183016020526040812054620003755750815460018181018455600084815260208082209093018490558454848252828601909352604090209190915562000326565b50600062000326565b8280546200038c9062000477565b90600052602060002090601f016020900481019282620003b05760008555620003fb565b82601f10620003cb57805160ff1916838001178555620003fb565b82800160010185558215620003fb579182015b82811115620003fb578251825591602001919060010190620003de565b50620004099291506200040d565b5090565b5b808211156200040957600081556001016200040e565b634e487b7160e01b600052601160045260246000fd5b600081600019048311821515161562000457576200045762000424565b500290565b6000821982111562000472576200047262000424565b500190565b600181811c908216806200048c57607f821691505b60208210811415620004ae57634e487b7160e01b600052602260045260246000fd5b50919050565b611aa480620004c46000396000f3fe608060405234801561001057600080fd5b50600436106101e55760003560e01c806370a082311161010f578063a9059cbb116100a2578063ccc5749011610071578063ccc5749014610407578063d53913931461042e578063d547741f14610455578063dd62ed3e1461046857600080fd5b8063a9059cbb146103c6578063b4ab0bbd146103d9578063c4d66de8146103e1578063ca15c873146103f457600080fd5b806395d89b41116100de57806395d89b41146103905780639dc29fac14610398578063a217fddf146103ab578063a457c2d7146103b357600080fd5b806370a08231146103215780638456cb591461034a5780639010d07c1461035257806391d148541461037d57600080fd5b80632f2ff15d116101875780633f4ba83a116101565780633f4ba83a146102f357806340c10f19146102fb5780634233799c1461030e5780635c975abb1461031657600080fd5b80632f2ff15d146102a9578063313ce567146102be57806336568abe146102cd57806339509351146102e057600080fd5b806318160ddd116101c357806318160ddd1461023a57806323b872dd1461024c578063248a9ca31461025f578063282c51f31461028257600080fd5b806301ffc9a7146101ea57806306fdde0314610212578063095ea7b314610227575b600080fd5b6101fd6101f836600461170f565b61047b565b60405190151581526020015b60405180910390f35b61021a6104a6565b6040516102099190611765565b6101fd6102353660046117b4565b610538565b6002545b604051908152602001610209565b6101fd61025a3660046117de565b610550565b61023e61026d36600461181a565b60009081526006602052604090206001015490565b61023e7f3c11d16cbaffd01df69ce1c404f6340ee057498f5f00246190ea54220576a84881565b6102bc6102b7366004611833565b610574565b005b60405160128152602001610209565b6102bc6102db366004611833565b61059e565b6101fd6102ee3660046117b4565b610621565b6102bc610643565b6102bc6103093660046117b4565b610659565b61023e61068d565b60055460ff166101fd565b61023e61032f36600461185f565b6001600160a01b031660009081526020819052604090205490565b6102bc61083a565b61036561036036600461187a565b61084d565b6040516001600160a01b039091168152602001610209565b6101fd61038b366004611833565b61086c565b61021a610897565b6102bc6103a63660046117b4565b6108a6565b61023e600081565b6101fd6103c13660046117b4565b6108da565b6101fd6103d43660046117b4565b610955565b61023e610963565b6102bc6103ef36600461185f565b6109a2565b61023e61040236600461181a565b610aa9565b61023e7f7935bd0ae54bc31f548c14dba4d37c5c64b3f8ca900cb468fb8abd54d5894f5581565b61023e7f9f2df0fed2c77648de5860a4cc508cd0818c85b8b8a1ab4ceeef8d981c8956a681565b6102bc610463366004611833565b610ac0565b61023e61047636600461189c565b610ae5565b60006001600160e01b03198216635a05180f60e01b14806104a057506104a082610bab565b92915050565b6060600380546104b5906118c6565b80601f01602080910402602001604051908101604052809291908181526020018280546104e1906118c6565b801561052e5780601f106105035761010080835404028352916020019161052e565b820191906000526020600020905b81548152906001019060200180831161051157829003601f168201915b5050505050905090565b600033610546818585610be0565b5060019392505050565b60003361055e858285610d04565b610569858585610d7e565b506001949350505050565b60008281526006602052604090206001015461058f81610f2d565b6105998383610f37565b505050565b6001600160a01b03811633146106135760405162461bcd60e51b815260206004820152602f60248201527f416363657373436f6e74726f6c3a2063616e206f6e6c792072656e6f756e636560448201526e103937b632b9903337b91039b2b63360891b60648201526084015b60405180910390fd5b61061d8282610f59565b5050565b6000336105468185856106348383610ae5565b61063e9190611917565b610be0565b600061064e81610f2d565b610656610f7b565b50565b7f9f2df0fed2c77648de5860a4cc508cd0818c85b8b8a1ab4ceeef8d981c8956a661068381610f2d565b6105998383610fcd565b6000600860019054906101000a90046001600160a01b03166001600160a01b0316635591ce5a6040518163ffffffff1660e01b815260040160206040518083038186803b1580156106dd57600080fd5b505afa1580156106f1573d6000803e3d6000fd5b505050506040513d601f19601f82011682018060405250810190610715919061192f565b600860019054906101000a90046001600160a01b03166001600160a01b031663351fe3006040518163ffffffff1660e01b815260040160206040518083038186803b15801561076357600080fd5b505afa158015610777573d6000803e3d6000fd5b505050506040513d601f19601f8201168201806040525081019061079b919061192f565b600860019054906101000a90046001600160a01b03166001600160a01b0316634233799c6040518163ffffffff1660e01b815260040160206040518083038186803b1580156107e957600080fd5b505afa1580156107fd573d6000803e3d6000fd5b505050506040513d601f19601f82011682018060405250810190610821919061192f565b61082b9190611948565b6108359190611948565b905090565b600061084581610f2d565b610656611098565b600082815260076020526040812061086590836110d5565b9392505050565b60009182526006602090815260408084206001600160a01b0393909316845291905290205460ff1690565b6060600480546104b5906118c6565b7f3c11d16cbaffd01df69ce1c404f6340ee057498f5f00246190ea54220576a8486108d081610f2d565b61059983836110e1565b600033816108e88286610ae5565b9050838110156109485760405162461bcd60e51b815260206004820152602560248201527f45524332303a2064656372656173656420616c6c6f77616e63652062656c6f77604482015264207a65726f60d81b606482015260840161060a565b6105698286868403610be0565b600033610546818585610d7e565b600061096e60025490565b1561099a5760025461097e61068d565b61099090670de0b6b3a764000061195f565b610835919061197e565b50620f424090565b60006109ad81610f2d565b60085460408051808201909152601c81527f436f6e747261637420416c726561647920496e697469616c697a65640000000060208201529060ff1615610a065760405162461bcd60e51b815260040161060a9190611765565b50600880546001600160a01b038416610100026001600160a81b0319909116176001179055610a557f9f2df0fed2c77648de5860a4cc508cd0818c85b8b8a1ab4ceeef8d981c8956a683610f37565b610a7f7f3c11d16cbaffd01df69ce1c404f6340ee057498f5f00246190ea54220576a84883610f37565b61061d7f7935bd0ae54bc31f548c14dba4d37c5c64b3f8ca900cb468fb8abd54d5894f5583610f37565b60008181526007602052604081206104a09061121f565b600082815260066020526040902060010154610adb81610f2d565b6105998383610f59565b6001600160a01b03918216600090815260016020908152604080832093909416825291909152205490565b610b1a828261086c565b61061d5760008281526006602090815260408083206001600160a01b03851684529091529020805460ff19166001179055610b523390565b6001600160a01b0316816001600160a01b0316837f2f8788117e7eff1d82e926ec794901d17c78024a50270940304540a733656f0d60405160405180910390a45050565b6000610865836001600160a01b038416611229565b60006001600160e01b03198216637965db0b60e01b14806104a057506301ffc9a760e01b6001600160e01b03198316146104a0565b6001600160a01b038316610c425760405162461bcd60e51b8152602060048201526024808201527f45524332303a20617070726f76652066726f6d20746865207a65726f206164646044820152637265737360e01b606482015260840161060a565b6001600160a01b038216610ca35760405162461bcd60e51b815260206004820152602260248201527f45524332303a20617070726f766520746f20746865207a65726f206164647265604482015261737360f01b606482015260840161060a565b6001600160a01b0383811660008181526001602090815260408083209487168084529482529182902085905590518481527f8c5be1e5ebec7d5bd14f71427d1e84f3dd0314c0f7b2291e5b200ac8c7c3b925910160405180910390a3505050565b6000610d108484610ae5565b90506000198114610d785781811015610d6b5760405162461bcd60e51b815260206004820152601d60248201527f45524332303a20696e73756666696369656e7420616c6c6f77616e6365000000604482015260640161060a565b610d788484848403610be0565b50505050565b6001600160a01b038316610de25760405162461bcd60e51b815260206004820152602560248201527f45524332303a207472616e736665722066726f6d20746865207a65726f206164604482015264647265737360d81b606482015260840161060a565b6001600160a01b038216610e445760405162461bcd60e51b815260206004820152602360248201527f45524332303a207472616e7366657220746f20746865207a65726f206164647260448201526265737360e81b606482015260840161060a565b610e4f838383611278565b6001600160a01b03831660009081526020819052604090205481811015610ec75760405162461bcd60e51b815260206004820152602660248201527f45524332303a207472616e7366657220616d6f756e7420657863656564732062604482015265616c616e636560d01b606482015260840161060a565b6001600160a01b03848116600081815260208181526040808320878703905593871680835291849020805487019055925185815290927fddf252ad1be2c89b69c2b068fc378daa952ba7f163c4a11628f55a4df523b3ef910160405180910390a3610d78565b61065681336112de565b610f418282610b10565b60008281526007602052604090206105999082610b96565b610f638282611337565b6000828152600760205260409020610599908261139e565b610f836113b3565b6005805460ff191690557f5db9ee0a495bf2e6ff9c91a7834c1ba4fdd244a5e8aa4e537bd38aeae4b073aa335b6040516001600160a01b03909116815260200160405180910390a1565b6001600160a01b0382166110235760405162461bcd60e51b815260206004820152601f60248201527f45524332303a206d696e7420746f20746865207a65726f206164647265737300604482015260640161060a565b61102f60008383611278565b80600260008282546110419190611917565b90915550506001600160a01b038216600081815260208181526040808320805486019055518481527fddf252ad1be2c89b69c2b068fc378daa952ba7f163c4a11628f55a4df523b3ef910160405180910390a35050565b6110a06113fe565b6005805460ff191660011790557f62e78cea01bee320cd4e420270b5ea74000d11b0c9f74754ebdbfc544b05a258610fb03390565b60006108658383611444565b6001600160a01b0382166111415760405162461bcd60e51b815260206004820152602160248201527f45524332303a206275726e2066726f6d20746865207a65726f206164647265736044820152607360f81b606482015260840161060a565b61114d82600083611278565b6001600160a01b038216600090815260208190526040902054818110156111c15760405162461bcd60e51b815260206004820152602260248201527f45524332303a206275726e20616d6f756e7420657863656564732062616c616e604482015261636560f01b606482015260840161060a565b6001600160a01b0383166000818152602081815260408083208686039055600280548790039055518581529192917fddf252ad1be2c89b69c2b068fc378daa952ba7f163c4a11628f55a4df523b3ef910160405180910390a3505050565b60006104a0825490565b6000818152600183016020526040812054611270575081546001818101845560008481526020808220909301849055845484825282860190935260409020919091556104a0565b5060006104a0565b60055460ff16156105995760405162461bcd60e51b815260206004820152602a60248201527f45524332305061757361626c653a20746f6b656e207472616e736665722077686044820152691a5b19481c185d5cd95960b21b606482015260840161060a565b6112e8828261086c565b61061d576112f58161146e565b611300836020611480565b6040516020016113119291906119a0565b60408051601f198184030181529082905262461bcd60e51b825261060a91600401611765565b611341828261086c565b1561061d5760008281526006602090815260408083206001600160a01b0385168085529252808320805460ff1916905551339285917ff6391f5c32d9c69d2a47ea670b442974b53935d1edc7fd64eb21e047a839171b9190a45050565b6000610865836001600160a01b03841661161c565b60055460ff166113fc5760405162461bcd60e51b815260206004820152601460248201527314185d5cd8589b194e881b9bdd081c185d5cd95960621b604482015260640161060a565b565b60055460ff16156113fc5760405162461bcd60e51b815260206004820152601060248201526f14185d5cd8589b194e881c185d5cd95960821b604482015260640161060a565b600082600001828154811061145b5761145b611a15565b9060005260206000200154905092915050565b60606104a06001600160a01b03831660145b6060600061148f83600261195f565b61149a906002611917565b67ffffffffffffffff8111156114b2576114b2611a2b565b6040519080825280601f01601f1916602001820160405280156114dc576020820181803683370190505b509050600360fc1b816000815181106114f7576114f7611a15565b60200101906001600160f81b031916908160001a905350600f60fb1b8160018151811061152657611526611a15565b60200101906001600160f81b031916908160001a905350600061154a84600261195f565b611555906001611917565b90505b60018111156115cd576f181899199a1a9b1b9c1cb0b131b232b360811b85600f166010811061158957611589611a15565b1a60f81b82828151811061159f5761159f611a15565b60200101906001600160f81b031916908160001a90535060049490941c936115c681611a41565b9050611558565b5083156108655760405162461bcd60e51b815260206004820181905260248201527f537472696e67733a20686578206c656e67746820696e73756666696369656e74604482015260640161060a565b60008181526001830160205260408120548015611705576000611640600183611948565b855490915060009061165490600190611948565b90508181146116b957600086600001828154811061167457611674611a15565b906000526020600020015490508087600001848154811061169757611697611a15565b6000918252602080832090910192909255918252600188019052604090208390555b85548690806116ca576116ca611a58565b6001900381819060005260206000200160009055905585600101600086815260200190815260200160002060009055600193505050506104a0565b60009150506104a0565b60006020828403121561172157600080fd5b81356001600160e01b03198116811461086557600080fd5b60005b8381101561175457818101518382015260200161173c565b83811115610d785750506000910152565b6020815260008251806020840152611784816040850160208701611739565b601f01601f19169190910160400192915050565b80356001600160a01b03811681146117af57600080fd5b919050565b600080604083850312156117c757600080fd5b6117d083611798565b946020939093013593505050565b6000806000606084860312156117f357600080fd5b6117fc84611798565b925061180a60208501611798565b9150604084013590509250925092565b60006020828403121561182c57600080fd5b5035919050565b6000806040838503121561184657600080fd5b8235915061185660208401611798565b90509250929050565b60006020828403121561187157600080fd5b61086582611798565b6000806040838503121561188d57600080fd5b50508035926020909101359150565b600080604083850312156118af57600080fd5b6118b883611798565b915061185660208401611798565b600181811c908216806118da57607f821691505b602082108114156118fb57634e487b7160e01b600052602260045260246000fd5b50919050565b634e487b7160e01b600052601160045260246000fd5b6000821982111561192a5761192a611901565b500190565b60006020828403121561194157600080fd5b5051919050565b60008282101561195a5761195a611901565b500390565b600081600019048311821515161561197957611979611901565b500290565b60008261199b57634e487b7160e01b600052601260045260246000fd5b500490565b7f416363657373436f6e74726f6c3a206163636f756e74200000000000000000008152600083516119d8816017850160208801611739565b7001034b99036b4b9b9b4b733903937b6329607d1b6017918401918201528351611a09816028840160208801611739565b01602801949350505050565b634e487b7160e01b600052603260045260246000fd5b634e487b7160e01b600052604160045260246000fd5b600081611a5057611a50611901565b506000190190565b634e487b7160e01b600052603160045260246000fdfea264697066735822122049764bc6823d38b977abe1e3830824fbd38bb2221e2cfa562d4b50f02d4d0fdb64736f6c63430008080033",
  "devdoc": {
    "kind": "dev",
    "methods": {
      "allowance(address,address)": {
        "details": "See {IERC20-allowance}."
      },
      "approve(address,uint256)": {
        "details": "See {IERC20-approve}. NOTE: If `amount` is the maximum `uint256`, the allowance is not updated on `transferFrom`. This is semantically equivalent to an infinite approval. Requirements: - `spender` cannot be the zero address."
      },
      "balanceOf(address)": {
        "details": "See {IERC20-balanceOf}."
      },
      "burn(address,uint256)": {
        "params": {
          "amount": "",
          "from": "token"
        }
      },
      "decimals()": {
        "details": "Returns the number of decimals used to get its user representation. For example, if `decimals` equals `2`, a balance of `505` tokens should be displayed to a user as `5.05` (`505 / 10 ** 2`). Tokens usually opt for a value of 18, imitating the relationship between Ether and Wei. This is the value {ERC20} uses, unless this function is overridden; NOTE: This information is only used for _display_ purposes: it in no way affects any of the arithmetic of the contract, including {IERC20-balanceOf} and {IERC20-transfer}."
      },
      "decreaseAllowance(address,uint256)": {
        "details": "Atomically decreases the allowance granted to `spender` by the caller. This is an alternative to {approve} that can be used as a mitigation for problems described in {IERC20-approve}. Emits an {Approval} event indicating the updated allowance. Requirements: - `spender` cannot be the zero address. - `spender` must have allowance for the caller of at least `subtractedValue`."
      },
      "getRoleAdmin(bytes32)": {
        "details": "Returns the admin role that controls `role`. See {grantRole} and {revokeRole}. To change a role's admin, use {_setRoleAdmin}."
      },
      "getRoleMember(bytes32,uint256)": {
        "details": "Returns one of the accounts that have `role`. `index` must be a value between 0 and {getRoleMemberCount}, non-inclusive. Role bearers are not sorted in any particular way, and their ordering may change at any point. WARNING: When using {getRoleMember} and {getRoleMemberCount}, make sure you perform all queries on the same block. See the following https://forum.openzeppelin.com/t/iterating-over-elements-on-enumerableset-in-openzeppelin-contracts/2296[forum post] for more information."
      },
      "getRoleMemberCount(bytes32)": {
        "details": "Returns the number of accounts that have `role`. Can be used together with {getRoleMember} to enumerate all bearers of a role."
      },
      "grantRole(bytes32,address)": {
        "details": "Grants `role` to `account`. If `account` had not been already granted `role`, emits a {RoleGranted} event. Requirements: - the caller must have ``role``'s admin role. May emit a {RoleGranted} event."
      },
      "hasRole(bytes32,address)": {
        "details": "Returns `true` if `account` has been granted `role`."
      },
      "increaseAllowance(address,uint256)": {
        "details": "Atomically increases the allowance granted to `spender` by the caller. This is an alternative to {approve} that can be used as a mitigation for problems described in {IERC20-approve}. Emits an {Approval} event indicating the updated allowance. Requirements: - `spender` cannot be the zero address."
      },
      "initialize(address)": {
        "params": {
          "addr_": "Ezio"
        }
      },
      "mint(address,uint256)": {
        "params": {
          "amount": "",
          "to": "token"
        }
      },
      "name()": {
        "details": "Returns the name of the token."
      },
      "netWorth()": {
        "returns": {
          "_0": "uint256  bToken"
        }
      },
      "paused()": {
        "details": "Returns true if the contract is paused, and false otherwise."
      },
      "renounceRole(bytes32,address)": {
        "details": "Revokes `role` from the calling account. Roles are often managed via {grantRole} and {revokeRole}: this function's purpose is to provide a mechanism for accounts to lose their privileges if they are compromised (such as when a trusted device is misplaced). If the calling account had been revoked `role`, emits a {RoleRevoked} event. Requirements: - the caller must be `account`. May emit a {RoleRevoked} event."
      },
      "revokeRole(bytes32,address)": {
        "details": "Revokes `role` from `account`. If `account` had been granted `role`, emits a {RoleRevoked} event. Requirements: - the caller must have ``role``'s admin role. May emit a {RoleRevoked} event."
      },
      "supportsInterface(bytes4)": {
        "details": "See {IERC165-supportsInterface}."
      },
      "symbol()": {
        "details": "Returns the symbol of the token, usually a shorter version of the name."
      },
      "totalNetWorth()": {
        "returns": {
          "_0": "uint256    bToken"
        }
      },
      "totalSupply()": {
        "details": "See {IERC20-totalSupply}."
      },
      "transfer(address,uint256)": {
        "details": "See {IERC20-transfer}. Requirements: - `to` cannot be the zero address. - the caller must have a balance of at least `amount`."
      },
      "transferFrom(address,address,uint256)": {
        "details": "See {IERC20-transferFrom}. Emits an {Approval} event indicating the updated allowance. This is not required by the EIP. See the note at the beginning of {ERC20}. NOTE: Does not update the allowance if the current allowance is the maximum `uint256`. Requirements: - `from` and `to` cannot be the zero address. - `from` must have a balance of at least `amount`. - the caller must have allowance for ``from``'s tokens of at least `amount`."
      }
    },
    "version": 1
  },
  "userdoc": {
    "kind": "user",
    "methods": {
      "burn(address,uint256)": {
        "notice": "token,onlyRole(BURNER_ROLE)burnerburn"
      },
      "initialize(address)": {
        "notice": ""
      },
      "mint(address,uint256)": {
        "notice": "token,onlyRole(MINTER_ROLE)mintermint"
      },
      "netWorth()": {
        "notice": "=/"
      },
      "pause()": {
        "notice": ""
      },
      "totalNetWorth()": {
        "notice": "=-aToken"
      },
      "unpause()": {
        "notice": ""
      }
    },
    "version": 1
  },
  "storageLayout": {
    "storage": [
      {
        "astId": 2406,
        "contract": "contracts/EzMATIC.sol:EzMATIC",
        "label": "_balances",
        "offset": 0,
        "slot": "0",
        "type": "t_mapping(t_address,t_uint256)"
      },
      {
        "astId": 2412,
        "contract": "contracts/EzMATIC.sol:EzMATIC",
        "label": "_allowances",
        "offset": 0,
        "slot": "1",
        "type": "t_mapping(t_address,t_mapping(t_address,t_uint256))"
      },
      {
        "astId": 2414,
        "contract": "contracts/EzMATIC.sol:EzMATIC",
        "label": "_totalSupply",
        "offset": 0,
        "slot": "2",
        "type": "t_uint256"
      },
      {
        "astId": 2416,
        "contract": "contracts/EzMATIC.sol:EzMATIC",
        "label": "_name",
        "offset": 0,
        "slot": "3",
        "type": "t_string_storage"
      },
      {
        "astId": 2418,
        "contract": "contracts/EzMATIC.sol:EzMATIC",
        "label": "_symbol",
        "offset": 0,
        "slot": "4",
        "type": "t_string_storage"
      },
      {
        "astId": 2246,
        "contract": "contracts/EzMATIC.sol:EzMATIC",
        "label": "_paused",
        "offset": 0,
        "slot": "5",
        "type": "t_bool"
      },
      {
        "astId": 1601,
        "contract": "contracts/EzMATIC.sol:EzMATIC",
        "label": "_roles",
        "offset": 0,
        "slot": "6",
        "type": "t_mapping(t_bytes32,t_struct(RoleData)1596_storage)"
      },
      {
        "astId": 1911,
        "contract": "contracts/EzMATIC.sol:EzMATIC",
        "label": "_roleMembers",
        "offset": 0,
        "slot": "7",
        "type": "t_mapping(t_bytes32,t_struct(AddressSet)5188_storage)"
      },
      {
        "astId": 6059,
        "contract": "contracts/EzMATIC.sol:EzMATIC",
        "label": "initialized",
        "offset": 0,
        "slot": "8",
        "type": "t_bool"
      },
      {
        "astId": 6065,
        "contract": "contracts/EzMATIC.sol:EzMATIC",
        "label": "ezio",
        "offset": 1,
        "slot": "8",
        "type": "t_contract(IEzio)8403"
      }
    ],
    "types": {
      "t_address": {
        "encoding": "inplace",
        "label": "address",
        "numberOfBytes": "20"
      },
      "t_array(t_bytes32)dyn_storage": {
        "base": "t_bytes32",
        "encoding": "dynamic_array",
        "label": "bytes32[]",
        "numberOfBytes": "32"
      },
      "t_bool": {
        "encoding": "inplace",
        "label": "bool",
        "numberOfBytes": "1"
      },
      "t_bytes32": {
        "encoding": "inplace",
        "label": "bytes32",
        "numberOfBytes": "32"
      },
      "t_contract(IEzio)8403": {
        "encoding": "inplace",
        "label": "contract IEzio",
        "numberOfBytes": "20"
      },
      "t_mapping(t_address,t_bool)": {
        "encoding": "mapping",
        "key": "t_address",
        "label": "mapping(address => bool)",
        "numberOfBytes": "32",
        "value": "t_bool"
      },
      "t_mapping(t_address,t_mapping(t_address,t_uint256))": {
        "encoding": "mapping",
        "key": "t_address",
        "label": "mapping(address => mapping(address => uint256))",
        "numberOfBytes": "32",
        "value": "t_mapping(t_address,t_uint256)"
      },
      "t_mapping(t_address,t_uint256)": {
        "encoding": "mapping",
        "key": "t_address",
        "label": "mapping(address => uint256)",
        "numberOfBytes": "32",
        "value": "t_uint256"
      },
      "t_mapping(t_bytes32,t_struct(AddressSet)5188_storage)": {
        "encoding": "mapping",
        "key": "t_bytes32",
        "label": "mapping(bytes32 => struct EnumerableSet.AddressSet)",
        "numberOfBytes": "32",
        "value": "t_struct(AddressSet)5188_storage"
      },
      "t_mapping(t_bytes32,t_struct(RoleData)1596_storage)": {
        "encoding": "mapping",
        "key": "t_bytes32",
        "label": "mapping(bytes32 => struct AccessControl.RoleData)",
        "numberOfBytes": "32",
        "value": "t_struct(RoleData)1596_storage"
      },
      "t_mapping(t_bytes32,t_uint256)": {
        "encoding": "mapping",
        "key": "t_bytes32",
        "label": "mapping(bytes32 => uint256)",
        "numberOfBytes": "32",
        "value": "t_uint256"
      },
      "t_string_storage": {
        "encoding": "bytes",
        "label": "string",
        "numberOfBytes": "32"
      },
      "t_struct(AddressSet)5188_storage": {
        "encoding": "inplace",
        "label": "struct EnumerableSet.AddressSet",
        "members": [
          {
            "astId": 5187,
            "contract": "contracts/EzMATIC.sol:EzMATIC",
            "label": "_inner",
            "offset": 0,
            "slot": "0",
            "type": "t_struct(Set)4873_storage"
          }
        ],
        "numberOfBytes": "64"
      },
      "t_struct(RoleData)1596_storage": {
        "encoding": "inplace",
        "label": "struct AccessControl.RoleData",
        "members": [
          {
            "astId": 1593,
            "contract": "contracts/EzMATIC.sol:EzMATIC",
            "label": "members",
            "offset": 0,
            "slot": "0",
            "type": "t_mapping(t_address,t_bool)"
          },
          {
            "astId": 1595,
            "contract": "contracts/EzMATIC.sol:EzMATIC",
            "label": "adminRole",
            "offset": 0,
            "slot": "1",
            "type": "t_bytes32"
          }
        ],
        "numberOfBytes": "64"
      },
      "t_struct(Set)4873_storage": {
        "encoding": "inplace",
        "label": "struct EnumerableSet.Set",
        "members": [
          {
            "astId": 4868,
            "contract": "contracts/EzMATIC.sol:EzMATIC",
            "label": "_values",
            "offset": 0,
            "slot": "0",
            "type": "t_array(t_bytes32)dyn_storage"
          },
          {
            "astId": 4872,
            "contract": "contracts/EzMATIC.sol:EzMATIC",
            "label": "_indexes",
            "offset": 0,
            "slot": "1",
            "type": "t_mapping(t_bytes32,t_uint256)"
          }
        ],
        "numberOfBytes": "64"
      },
      "t_uint256": {
        "encoding": "inplace",
        "label": "uint256",
        "numberOfBytes": "32"
      }
    }
  }
}