{
  "address": "0xC264ef02F21A50bcF77542852c3D8955E16afaD0",
  "abi": [
    {
      "inputs": [
        {
          "internalType": "uint256",
          "name": "initialSupply_",
          "type": "uint256"
        }
      ],
      "stateMutability": "nonpayable",
      "type": "constructor"
    },
    {
      "anonymous": false,
      "inputs": [
        {
          "indexed": true,
          "internalType": "address",
          "name": "owner",
          "type": "address"
        },
        {
          "indexed": true,
          "internalType": "address",
          "name": "spender",
          "type": "address"
        },
        {
          "indexed": false,
          "internalType": "uint256",
          "name": "value",
          "type": "uint256"
        }
      ],
      "name": "Approval",
      "type": "event"
    },
    {
      "anonymous": false,
      "inputs": [
        {
          "indexed": true,
          "internalType": "bytes32",
          "name": "role",
          "type": "bytes32"
        },
        {
          "indexed": true,
          "internalType": "bytes32",
          "name": "previousAdminRole",
          "type": "bytes32"
        },
        {
          "indexed": true,
          "internalType": "bytes32",
          "name": "newAdminRole",
          "type": "bytes32"
        }
      ],
      "name": "RoleAdminChanged",
      "type": "event"
    },
    {
      "anonymous": false,
      "inputs": [
        {
          "indexed": true,
          "internalType": "bytes32",
          "name": "role",
          "type": "bytes32"
        },
        {
          "indexed": true,
          "internalType": "address",
          "name": "account",
          "type": "address"
        },
        {
          "indexed": true,
          "internalType": "address",
          "name": "sender",
          "type": "address"
        }
      ],
      "name": "RoleGranted",
      "type": "event"
    },
    {
      "anonymous": false,
      "inputs": [
        {
          "indexed": true,
          "internalType": "bytes32",
          "name": "role",
          "type": "bytes32"
        },
        {
          "indexed": true,
          "internalType": "address",
          "name": "account",
          "type": "address"
        },
        {
          "indexed": true,
          "internalType": "address",
          "name": "sender",
          "type": "address"
        }
      ],
      "name": "RoleRevoked",
      "type": "event"
    },
    {
      "anonymous": false,
      "inputs": [
        {
          "indexed": true,
          "internalType": "address",
          "name": "account",
          "type": "address"
        },
        {
          "indexed": false,
          "internalType": "uint256",
          "name": "preRebaseTokenAmount",
          "type": "uint256"
        },
        {
          "indexed": false,
          "internalType": "uint256",
          "name": "postRebaseTokenAmount",
          "type": "uint256"
        },
        {
          "indexed": false,
          "internalType": "uint256",
          "name": "sharesAmount",
          "type": "uint256"
        }
      ],
      "name": "SharesBurnt",
      "type": "event"
    },
    {
      "anonymous": false,
      "inputs": [
        {
          "indexed": true,
          "internalType": "address",
          "name": "from",
          "type": "address"
        },
        {
          "indexed": true,
          "internalType": "address",
          "name": "to",
          "type": "address"
        },
        {
          "indexed": false,
          "internalType": "uint256",
          "name": "value",
          "type": "uint256"
        }
      ],
      "name": "Transfer",
      "type": "event"
    },
    {
      "anonymous": false,
      "inputs": [
        {
          "indexed": true,
          "internalType": "address",
          "name": "from",
          "type": "address"
        },
        {
          "indexed": true,
          "internalType": "address",
          "name": "to",
          "type": "address"
        },
        {
          "indexed": false,
          "internalType": "uint256",
          "name": "sharesValue",
          "type": "uint256"
        }
      ],
      "name": "TransferShares",
      "type": "event"
    },
    {
      "inputs": [],
      "name": "DEFAULT_ADMIN_ROLE",
      "outputs": [
        {
          "internalType": "bytes32",
          "name": "",
          "type": "bytes32"
        }
      ],
      "stateMutability": "view",
      "type": "function"
    },
    {
      "inputs": [],
      "name": "GOVERNOR_ROLE",
      "outputs": [
        {
          "internalType": "bytes32",
          "name": "",
          "type": "bytes32"
        }
      ],
      "stateMutability": "view",
      "type": "function"
    },
    {
      "inputs": [
        {
          "internalType": "address",
          "name": "_owner",
          "type": "address"
        },
        {
          "internalType": "address",
          "name": "_spender",
          "type": "address"
        }
      ],
      "name": "allowance",
      "outputs": [
        {
          "internalType": "uint256",
          "name": "",
          "type": "uint256"
        }
      ],
      "stateMutability": "view",
      "type": "function"
    },
    {
      "inputs": [
        {
          "internalType": "address",
          "name": "_spender",
          "type": "address"
        },
        {
          "internalType": "uint256",
          "name": "_amount",
          "type": "uint256"
        }
      ],
      "name": "approve",
      "outputs": [
        {
          "internalType": "bool",
          "name": "",
          "type": "bool"
        }
      ],
      "stateMutability": "nonpayable",
      "type": "function"
    },
    {
      "inputs": [
        {
          "internalType": "address",
          "name": "_account",
          "type": "address"
        }
      ],
      "name": "balanceOf",
      "outputs": [
        {
          "internalType": "uint256",
          "name": "",
          "type": "uint256"
        }
      ],
      "stateMutability": "view",
      "type": "function"
    },
    {
      "inputs": [],
      "name": "decimals",
      "outputs": [
        {
          "internalType": "uint8",
          "name": "",
          "type": "uint8"
        }
      ],
      "stateMutability": "pure",
      "type": "function"
    },
    {
      "inputs": [
        {
          "internalType": "address",
          "name": "_spender",
          "type": "address"
        },
        {
          "internalType": "uint256",
          "name": "_subtractedValue",
          "type": "uint256"
        }
      ],
      "name": "decreaseAllowance",
      "outputs": [
        {
          "internalType": "bool",
          "name": "",
          "type": "bool"
        }
      ],
      "stateMutability": "nonpayable",
      "type": "function"
    },
    {
      "inputs": [
        {
          "internalType": "uint256",
          "name": "_sharesAmount",
          "type": "uint256"
        }
      ],
      "name": "getPooledEthByShares",
      "outputs": [
        {
          "internalType": "uint256",
          "name": "",
          "type": "uint256"
        }
      ],
      "stateMutability": "view",
      "type": "function"
    },
    {
      "inputs": [
        {
          "internalType": "bytes32",
          "name": "role",
          "type": "bytes32"
        }
      ],
      "name": "getRoleAdmin",
      "outputs": [
        {
          "internalType": "bytes32",
          "name": "",
          "type": "bytes32"
        }
      ],
      "stateMutability": "view",
      "type": "function"
    },
    {
      "inputs": [
        {
          "internalType": "bytes32",
          "name": "role",
          "type": "bytes32"
        },
        {
          "internalType": "uint256",
          "name": "index",
          "type": "uint256"
        }
      ],
      "name": "getRoleMember",
      "outputs": [
        {
          "internalType": "address",
          "name": "",
          "type": "address"
        }
      ],
      "stateMutability": "view",
      "type": "function"
    },
    {
      "inputs": [
        {
          "internalType": "bytes32",
          "name": "role",
          "type": "bytes32"
        }
      ],
      "name": "getRoleMemberCount",
      "outputs": [
        {
          "internalType": "uint256",
          "name": "",
          "type": "uint256"
        }
      ],
      "stateMutability": "view",
      "type": "function"
    },
    {
      "inputs": [
        {
          "internalType": "uint256",
          "name": "_ethAmount",
          "type": "uint256"
        }
      ],
      "name": "getSharesByPooledEth",
      "outputs": [
        {
          "internalType": "uint256",
          "name": "",
          "type": "uint256"
        }
      ],
      "stateMutability": "view",
      "type": "function"
    },
    {
      "inputs": [],
      "name": "getTotalPooledEther",
      "outputs": [
        {
          "internalType": "uint256",
          "name": "",
          "type": "uint256"
        }
      ],
      "stateMutability": "view",
      "type": "function"
    },
    {
      "inputs": [],
      "name": "getTotalShares",
      "outputs": [
        {
          "internalType": "uint256",
          "name": "",
          "type": "uint256"
        }
      ],
      "stateMutability": "view",
      "type": "function"
    },
    {
      "inputs": [
        {
          "internalType": "bytes32",
          "name": "role",
          "type": "bytes32"
        },
        {
          "internalType": "address",
          "name": "account",
          "type": "address"
        }
      ],
      "name": "grantRole",
      "outputs": [],
      "stateMutability": "nonpayable",
      "type": "function"
    },
    {
      "inputs": [
        {
          "internalType": "bytes32",
          "name": "role",
          "type": "bytes32"
        },
        {
          "internalType": "address",
          "name": "account",
          "type": "address"
        }
      ],
      "name": "hasRole",
      "outputs": [
        {
          "internalType": "bool",
          "name": "",
          "type": "bool"
        }
      ],
      "stateMutability": "view",
      "type": "function"
    },
    {
      "inputs": [
        {
          "internalType": "address",
          "name": "_spender",
          "type": "address"
        },
        {
          "internalType": "uint256",
          "name": "_addedValue",
          "type": "uint256"
        }
      ],
      "name": "increaseAllowance",
      "outputs": [
        {
          "internalType": "bool",
          "name": "",
          "type": "bool"
        }
      ],
      "stateMutability": "nonpayable",
      "type": "function"
    },
    {
      "inputs": [],
      "name": "name",
      "outputs": [
        {
          "internalType": "string",
          "name": "",
          "type": "string"
        }
      ],
      "stateMutability": "pure",
      "type": "function"
    },
    {
      "inputs": [
        {
          "internalType": "bytes32",
          "name": "role",
          "type": "bytes32"
        },
        {
          "internalType": "address",
          "name": "account",
          "type": "address"
        }
      ],
      "name": "renounceRole",
      "outputs": [],
      "stateMutability": "nonpayable",
      "type": "function"
    },
    {
      "inputs": [
        {
          "internalType": "bytes32",
          "name": "role",
          "type": "bytes32"
        },
        {
          "internalType": "address",
          "name": "account",
          "type": "address"
        }
      ],
      "name": "revokeRole",
      "outputs": [],
      "stateMutability": "nonpayable",
      "type": "function"
    },
    {
      "inputs": [
        {
          "internalType": "address",
          "name": "_account",
          "type": "address"
        }
      ],
      "name": "sharesOf",
      "outputs": [
        {
          "internalType": "uint256",
          "name": "",
          "type": "uint256"
        }
      ],
      "stateMutability": "view",
      "type": "function"
    },
    {
      "inputs": [
        {
          "internalType": "bytes4",
          "name": "interfaceId",
          "type": "bytes4"
        }
      ],
      "name": "supportsInterface",
      "outputs": [
        {
          "internalType": "bool",
          "name": "",
          "type": "bool"
        }
      ],
      "stateMutability": "view",
      "type": "function"
    },
    {
      "inputs": [],
      "name": "symbol",
      "outputs": [
        {
          "internalType": "string",
          "name": "",
          "type": "string"
        }
      ],
      "stateMutability": "pure",
      "type": "function"
    },
    {
      "inputs": [],
      "name": "totalSupply",
      "outputs": [
        {
          "internalType": "uint256",
          "name": "",
          "type": "uint256"
        }
      ],
      "stateMutability": "view",
      "type": "function"
    },
    {
      "inputs": [
        {
          "internalType": "address",
          "name": "_recipient",
          "type": "address"
        },
        {
          "internalType": "uint256",
          "name": "_amount",
          "type": "uint256"
        }
      ],
      "name": "transfer",
      "outputs": [
        {
          "internalType": "bool",
          "name": "",
          "type": "bool"
        }
      ],
      "stateMutability": "nonpayable",
      "type": "function"
    },
    {
      "inputs": [
        {
          "internalType": "address",
          "name": "_sender",
          "type": "address"
        },
        {
          "internalType": "address",
          "name": "_recipient",
          "type": "address"
        },
        {
          "internalType": "uint256",
          "name": "_amount",
          "type": "uint256"
        }
      ],
      "name": "transferFrom",
      "outputs": [
        {
          "internalType": "bool",
          "name": "",
          "type": "bool"
        }
      ],
      "stateMutability": "nonpayable",
      "type": "function"
    },
    {
      "inputs": [
        {
          "internalType": "address",
          "name": "_recipient",
          "type": "address"
        },
        {
          "internalType": "uint256",
          "name": "_sharesAmount",
          "type": "uint256"
        }
      ],
      "name": "transferShares",
      "outputs": [
        {
          "internalType": "uint256",
          "name": "",
          "type": "uint256"
        }
      ],
      "stateMutability": "nonpayable",
      "type": "function"
    }
  ],
  "transactionHash": "0xf4f18603c4d9caccf04d9e8ac463fe73eb7912e1a3fafa1687bc6431506b48ac",
  "args": [
    5000000000
  ],
  "numDeployments": 1,
  "solcInputHash": "4c8b3cd1d4d5f7cf14126fc49044ecb9",
  "bytecode": "0x60806040523480156200001157600080fd5b50604051620017a9380380620017a98339810160408190526200003491620002d8565b6200004881670de0b6b3a764000062000308565b6005556200006a336200006483670de0b6b3a764000062000308565b6200009e565b50620000977f7935bd0ae54bc31f548c14dba4d37c5c64b3f8ca900cb468fb8abd54d5894f55336200017a565b5062000345565b60006001600160a01b038316620000fb5760405162461bcd60e51b815260206004820152601860248201527f4d494e545f544f5f5448455f5a45524f5f414444524553530000000000000000604482015260640160405180910390fd5b6200011e826200010a60045490565b620001bd60201b6200088f1790919060201c565b60048190556001600160a01b03841660009081526002602090815260409091205491925062000159919084906200088f620001bd821b17901c565b6001600160a01b039093166000908152600260205260409020929092555090565b620001918282620001d460201b6200089b1760201c565b6000828152600160209081526040909120620001b89183906200091f62000275821b17901c565b505050565b6000620001cb82846200032a565b90505b92915050565b6000828152602081815260408083206001600160a01b038516845290915290205460ff1662000271576000828152602081815260408083206001600160a01b03851684529091529020805460ff19166001179055620002303390565b6001600160a01b0316816001600160a01b0316837f2f8788117e7eff1d82e926ec794901d17c78024a50270940304540a733656f0d60405160405180910390a45b5050565b6000620001cb836001600160a01b0384166000818152600183016020526040812054620002cf57508154600181810184556000848152602080822090930184905584548482528286019093526040902091909155620001ce565b506000620001ce565b600060208284031215620002eb57600080fd5b5051919050565b634e487b7160e01b600052601160045260246000fd5b6000816000190483118215151615620003255762000325620002f2565b500290565b60008219821115620003405762000340620002f2565b500190565b61145480620003556000396000f3fe608060405234801561001057600080fd5b50600436106101a95760003560e01c80637a28fb88116100f9578063a9059cbb11610097578063d5002f2e11610071578063d5002f2e146103d4578063d547741f146103dc578063dd62ed3e146103ef578063f5eb42dc1461042857600080fd5b8063a9059cbb14610387578063ca15c8731461039a578063ccc57490146103ad57600080fd5b806391d14854116100d357806391d148541461033857806395d89b411461034b578063a217fddf1461036c578063a457c2d71461037457600080fd5b80637a28fb88146102e75780638fcb4e5b146102fa5780639010d07c1461030d57600080fd5b8063248a9ca31161016657806336568abe1161014057806336568abe146102ae57806337cfdaca1461022b57806339509351146102c157806370a08231146102d457600080fd5b8063248a9ca3146102675780632f2ff15d1461028a578063313ce5671461029f57600080fd5b806301ffc9a7146101ae57806306fdde03146101d6578063095ea7b31461021857806318160ddd1461022b578063192084511461024157806323b872dd14610254575b600080fd5b6101c16101bc36600461110f565b61043b565b60405190151581526020015b60405180910390f35b60408051808201909152601781527f4c6971756964207374616b656420457468657220322e3000000000000000000060208201525b6040516101cd9190611169565b6101c16102263660046111b8565b610466565b61023361047c565b6040519081526020016101cd565b61023361024f3660046111e2565b61048c565b6101c16102623660046111fb565b6104cc565b6102336102753660046111e2565b60009081526020819052604090206001015490565b61029d610298366004611237565b610579565b005b604051601281526020016101cd565b61029d6102bc366004611237565b6105a3565b6101c16102cf3660046111b8565b610621565b6102336102e2366004611263565b610657565b6102336102f53660046111e2565b610675565b6102336103083660046111b8565b6106a1565b61032061031b36600461127e565b61074f565b6040516001600160a01b0390911681526020016101cd565b6101c1610346366004611237565b610767565b6040805180820190915260058152640e6e88aa8960db1b602082015261020b565b610233600081565b6101c16103823660046111b8565b610790565b6101c16103953660046111b8565b61081d565b6102336103a83660046111e2565b61082a565b6102337f7935bd0ae54bc31f548c14dba4d37c5c64b3f8ca900cb468fb8abd54d5894f5581565b610233610841565b61029d6103ea366004611237565b61084c565b6102336103fd3660046112a0565b6001600160a01b03918216600090815260036020908152604080832093909416825291909152205490565b610233610436366004611263565b610871565b60006001600160e01b03198216635a05180f60e01b1480610460575061046082610934565b92915050565b6000610473338484610969565b50600192915050565b600061048760055490565b905090565b60008061049860055490565b9050806104a85750600092915050565b6104c5816104bf6104b860045490565b8690610a76565b90610a82565b9392505050565b6001600160a01b03831660009081526003602090815260408083203384529091528120548281101561054f5760405162461bcd60e51b815260206004820152602160248201527f5452414e534645525f414d4f554e545f455843454544535f414c4c4f57414e436044820152604560f81b60648201526084015b60405180910390fd5b61055a858585610a8e565b61056e85336105698487610b46565b610969565b506001949350505050565b60008281526020819052604090206001015461059481610b52565b61059e8383610b5f565b505050565b6001600160a01b03811633146106135760405162461bcd60e51b815260206004820152602f60248201527f416363657373436f6e74726f6c3a2063616e206f6e6c792072656e6f756e636560448201526e103937b632b9903337b91039b2b63360891b6064820152608401610546565b61061d8282610b81565b5050565b3360008181526003602090815260408083206001600160a01b03871684529091528120549091610473918590610569908661088f565b6001600160a01b038116600090815260026020526040812054610460905b60008061068160045490565b9050806106915750600092915050565b6104c5816104bf6104b860055490565b60006106ae338484610ba3565b6040518281526001600160a01b0384169033907f9d9c909296d9c674451c0c24f02cb64981eb3b727f99865939192f880a755dcb9060200160405180910390a360006106f983610675565b9050836001600160a01b0316336001600160a01b03167fddf252ad1be2c89b69c2b068fc378daa952ba7f163c4a11628f55a4df523b3ef8360405161074091815260200190565b60405180910390a39392505050565b60008281526001602052604081206104c59083610d13565b6000918252602082815260408084206001600160a01b0393909316845291905290205460ff1690565b3360009081526003602090815260408083206001600160a01b0386168452909152812054828110156108045760405162461bcd60e51b815260206004820152601e60248201527f4445435245415345445f414c4c4f57414e43455f42454c4f575f5a45524f00006044820152606401610546565b61081333856105698487610b46565b5060019392505050565b6000610473338484610a8e565b600081815260016020526040812061046090610d1f565b600061048760045490565b60008281526020819052604090206001015461086781610b52565b61059e8383610b81565b6001600160a01b038116600090815260026020526040812054610460565b60006104c582846112e0565b6108a58282610767565b61061d576000828152602081815260408083206001600160a01b03851684529091529020805460ff191660011790556108db3390565b6001600160a01b0316816001600160a01b0316837f2f8788117e7eff1d82e926ec794901d17c78024a50270940304540a733656f0d60405160405180910390a45050565b60006104c5836001600160a01b038416610d29565b60006001600160e01b03198216637965db0b60e01b148061046057506301ffc9a760e01b6001600160e01b0319831614610460565b6001600160a01b0383166109bf5760405162461bcd60e51b815260206004820152601960248201527f415050524f56455f46524f4d5f5a45524f5f41444452455353000000000000006044820152606401610546565b6001600160a01b038216610a155760405162461bcd60e51b815260206004820152601760248201527f415050524f56455f544f5f5a45524f5f414444524553530000000000000000006044820152606401610546565b6001600160a01b0383811660008181526003602090815260408083209487168084529482529182902085905590518481527f8c5be1e5ebec7d5bd14f71427d1e84f3dd0314c0f7b2291e5b200ac8c7c3b925910160405180910390a3505050565b60006104c582846112f8565b60006104c58284611317565b6000610a998261048c565b9050610aa6848483610ba3565b826001600160a01b0316846001600160a01b03167fddf252ad1be2c89b69c2b068fc378daa952ba7f163c4a11628f55a4df523b3ef84604051610aeb91815260200190565b60405180910390a3826001600160a01b0316846001600160a01b03167f9d9c909296d9c674451c0c24f02cb64981eb3b727f99865939192f880a755dcb83604051610b3891815260200190565b60405180910390a350505050565b60006104c58284611339565b610b5c8133610d78565b50565b610b69828261089b565b600082815260016020526040902061059e908261091f565b610b8b8282610ddc565b600082815260016020526040902061059e9082610e41565b6001600160a01b038316610bf95760405162461bcd60e51b815260206004820152601e60248201527f5452414e534645525f46524f4d5f5448455f5a45524f5f4144445245535300006044820152606401610546565b6001600160a01b038216610c4f5760405162461bcd60e51b815260206004820152601c60248201527f5452414e534645525f544f5f5448455f5a45524f5f41444452455353000000006044820152606401610546565b6001600160a01b03831660009081526002602052604090205480821115610cb85760405162461bcd60e51b815260206004820152601f60248201527f5452414e534645525f414d4f554e545f455843454544535f42414c414e4345006044820152606401610546565b610cc28183610b46565b6001600160a01b038086166000908152600260205260408082209390935590851681522054610cf1908361088f565b6001600160a01b03909316600090815260026020526040902092909255505050565b60006104c58383610e56565b6000610460825490565b6000818152600183016020526040812054610d7057508154600181810184556000848152602080822090930184905584548482528286019093526040902091909155610460565b506000610460565b610d828282610767565b61061d57610d9a816001600160a01b03166014610e80565b610da5836020610e80565b604051602001610db6929190611350565b60408051601f198184030181529082905262461bcd60e51b825261054691600401611169565b610de68282610767565b1561061d576000828152602081815260408083206001600160a01b0385168085529252808320805460ff1916905551339285917ff6391f5c32d9c69d2a47ea670b442974b53935d1edc7fd64eb21e047a839171b9190a45050565b60006104c5836001600160a01b03841661101c565b6000826000018281548110610e6d57610e6d6113c5565b9060005260206000200154905092915050565b60606000610e8f8360026112f8565b610e9a9060026112e0565b67ffffffffffffffff811115610eb257610eb26113db565b6040519080825280601f01601f191660200182016040528015610edc576020820181803683370190505b509050600360fc1b81600081518110610ef757610ef76113c5565b60200101906001600160f81b031916908160001a905350600f60fb1b81600181518110610f2657610f266113c5565b60200101906001600160f81b031916908160001a9053506000610f4a8460026112f8565b610f559060016112e0565b90505b6001811115610fcd576f181899199a1a9b1b9c1cb0b131b232b360811b85600f1660108110610f8957610f896113c5565b1a60f81b828281518110610f9f57610f9f6113c5565b60200101906001600160f81b031916908160001a90535060049490941c93610fc6816113f1565b9050610f58565b5083156104c55760405162461bcd60e51b815260206004820181905260248201527f537472696e67733a20686578206c656e67746820696e73756666696369656e746044820152606401610546565b60008181526001830160205260408120548015611105576000611040600183611339565b855490915060009061105490600190611339565b90508181146110b9576000866000018281548110611074576110746113c5565b9060005260206000200154905080876000018481548110611097576110976113c5565b6000918252602080832090910192909255918252600188019052604090208390555b85548690806110ca576110ca611408565b600190038181906000526020600020016000905590558560010160008681526020019081526020016000206000905560019350505050610460565b6000915050610460565b60006020828403121561112157600080fd5b81356001600160e01b0319811681146104c557600080fd5b60005b8381101561115457818101518382015260200161113c565b83811115611163576000848401525b50505050565b6020815260008251806020840152611188816040850160208701611139565b601f01601f19169190910160400192915050565b80356001600160a01b03811681146111b357600080fd5b919050565b600080604083850312156111cb57600080fd5b6111d48361119c565b946020939093013593505050565b6000602082840312156111f457600080fd5b5035919050565b60008060006060848603121561121057600080fd5b6112198461119c565b92506112276020850161119c565b9150604084013590509250925092565b6000806040838503121561124a57600080fd5b8235915061125a6020840161119c565b90509250929050565b60006020828403121561127557600080fd5b6104c58261119c565b6000806040838503121561129157600080fd5b50508035926020909101359150565b600080604083850312156112b357600080fd5b6112bc8361119c565b915061125a6020840161119c565b634e487b7160e01b600052601160045260246000fd5b600082198211156112f3576112f36112ca565b500190565b6000816000190483118215151615611312576113126112ca565b500290565b60008261133457634e487b7160e01b600052601260045260246000fd5b500490565b60008282101561134b5761134b6112ca565b500390565b7f416363657373436f6e74726f6c3a206163636f756e7420000000000000000000815260008351611388816017850160208801611139565b7001034b99036b4b9b9b4b733903937b6329607d1b60179184019182015283516113b9816028840160208801611139565b01602801949350505050565b634e487b7160e01b600052603260045260246000fd5b634e487b7160e01b600052604160045260246000fd5b600081611400576114006112ca565b506000190190565b634e487b7160e01b600052603160045260246000fdfea2646970667358221220555129ef92451fbc3e19a5b9d9b005a0457f9d35f5e90feaa89fff630e4d92f264736f6c63430008080033",
  "devdoc": {
    "events": {
      "SharesBurnt(address,uint256,uint256,uint256)": {
        "details": "Reports simultaneously burnt shares amount and corresponding stETH amount. The stETH amount is calculated twice: before and after the burning incurred rebase.",
        "params": {
          "account": "holder of the burnt shares",
          "postRebaseTokenAmount": "amount of stETH the burnt shares corresponded to after the burn",
          "preRebaseTokenAmount": "amount of stETH the burnt shares corresponded to before the burn",
          "sharesAmount": "amount of burnt shares"
        }
      },
      "TransferShares(address,address,uint256)": {
        "details": "emitted in pair with an ERC20-defined `Transfer` event."
      }
    },
    "kind": "dev",
    "methods": {
      "allowance(address,address)": {
        "details": "This value changes when `approve` or `transferFrom` is called.",
        "returns": {
          "_0": "the remaining number of tokens that `_spender` is allowed to spend on behalf of `_owner` through `transferFrom`. This is zero by default."
        }
      },
      "approve(address,uint256)": {
        "details": "The `_amount` argument is the amount of tokens, not shares.",
        "returns": {
          "_0": "a boolean value indicating whether the operation succeeded. Emits an `Approval` event. Requirements: - `_spender` cannot be the zero address. - the contract must not be paused."
        }
      },
      "balanceOf(address)": {
        "details": "Balances are dynamic and equal the `_account`'s share in the amount of the total Ether controlled by the protocol. See `sharesOf`.",
        "returns": {
          "_0": "the amount of tokens owned by the `_account`."
        }
      },
      "decimals()": {
        "returns": {
          "_0": "the number of decimals for getting user representation of a token amount."
        }
      },
      "getPooledEthByShares(uint256)": {
        "returns": {
          "_0": "the amount of Ether that corresponds to `_sharesAmount` token shares."
        }
      },
      "getRoleAdmin(bytes32)": {
        "details": "Returns the admin role that controls `role`. See {grantRole} and {revokeRole}. To change a role's admin, use {_setRoleAdmin}."
      },
      "getRoleMember(bytes32,uint256)": {
        "details": "Returns one of the accounts that have `role`. `index` must be a value between 0 and {getRoleMemberCount}, non-inclusive. Role bearers are not sorted in any particular way, and their ordering may change at any point. WARNING: When using {getRoleMember} and {getRoleMemberCount}, make sure you perform all queries on the same block. See the following https://forum.openzeppelin.com/t/iterating-over-elements-on-enumerableset-in-openzeppelin-contracts/2296[forum post] for more information."
      },
      "getRoleMemberCount(bytes32)": {
        "details": "Returns the number of accounts that have `role`. Can be used together with {getRoleMember} to enumerate all bearers of a role."
      },
      "getSharesByPooledEth(uint256)": {
        "returns": {
          "_0": "the amount of shares that corresponds to `_ethAmount` protocol-controlled Ether."
        }
      },
      "getTotalPooledEther()": {
        "details": "The sum of all ETH balances in the protocol, equals to the total supply of stETH.",
        "returns": {
          "_0": "the entire amount of Ether controlled by the protocol."
        }
      },
      "getTotalShares()": {
        "details": "The sum of all accounts' shares can be an arbitrary number, therefore it is necessary to store it in order to calculate each account's relative share.",
        "returns": {
          "_0": "the total amount of shares in existence."
        }
      },
      "grantRole(bytes32,address)": {
        "details": "Grants `role` to `account`. If `account` had not been already granted `role`, emits a {RoleGranted} event. Requirements: - the caller must have ``role``'s admin role."
      },
      "hasRole(bytes32,address)": {
        "details": "Returns `true` if `account` has been granted `role`."
      },
      "name()": {
        "returns": {
          "_0": "the name of the token."
        }
      },
      "renounceRole(bytes32,address)": {
        "details": "Revokes `role` from the calling account. Roles are often managed via {grantRole} and {revokeRole}: this function's purpose is to provide a mechanism for accounts to lose their privileges if they are compromised (such as when a trusted device is misplaced). If the calling account had been revoked `role`, emits a {RoleRevoked} event. Requirements: - the caller must be `account`."
      },
      "revokeRole(bytes32,address)": {
        "details": "Revokes `role` from `account`. If `account` had been granted `role`, emits a {RoleRevoked} event. Requirements: - the caller must have ``role``'s admin role."
      },
      "sharesOf(address)": {
        "returns": {
          "_0": "the amount of shares owned by `_account`."
        }
      },
      "supportsInterface(bytes4)": {
        "details": "See {IERC165-supportsInterface}."
      },
      "symbol()": {
        "returns": {
          "_0": "the symbol of the token, usually a shorter version of the name."
        }
      },
      "totalSupply()": {
        "details": "Always equals to `_getTotalPooledEther()` since token amount is pegged to the total amount of Ether controlled by the protocol.",
        "returns": {
          "_0": "the amount of tokens in existence."
        }
      },
      "transfer(address,uint256)": {
        "details": "The `_amount` argument is the amount of tokens, not shares.",
        "returns": {
          "_0": "a boolean value indicating whether the operation succeeded. Emits a `Transfer` event. Emits a `TransferShares` event. Requirements: - `_recipient` cannot be the zero address. - the caller must have a balance of at least `_amount`. - the contract must not be paused."
        }
      },
      "transferFrom(address,address,uint256)": {
        "details": "The `_amount` argument is the amount of tokens, not shares.",
        "returns": {
          "_0": "a boolean value indicating whether the operation succeeded. Emits a `Transfer` event. Emits a `TransferShares` event. Emits an `Approval` event indicating the updated allowance. Requirements: - `_sender` and `_recipient` cannot be the zero addresses. - `_sender` must have a balance of at least `_amount`. - the caller must have allowance for `_sender`'s tokens of at least `_amount`. - the contract must not be paused."
        }
      },
      "transferShares(address,uint256)": {
        "details": "The `_sharesAmount` argument is the amount of shares, not tokens.",
        "returns": {
          "_0": "amount of transferred tokens. Emits a `TransferShares` event. Emits a `Transfer` event. Requirements: - `_recipient` cannot be the zero address. - the caller must have at least `_sharesAmount` shares. - the contract must not be paused."
        }
      }
    },
    "stateVariables": {
      "allowances": {
        "details": "Allowances are nominated in tokens, not token shares."
      },
      "shares": {
        "details": "StETH balances are dynamic and are calculated based on the accounts' shares and the total amount of Ether controlled by the protocol. Account shares aren't normalized, so the contract also stores the sum of all shares to calculate each account's token balance which equals to:   shares[account] * _getTotalPooledEther() / _getTotalShares()"
      }
    },
    "title": "Interest-bearing ERC20-like token for Lido Liquid Stacking protocol. This contract is abstract. To make the contract deployable override the `_getTotalPooledEther` function. `Lido.sol` contract inherits StETH and defines the `_getTotalPooledEther` function. StETH balances are dynamic and represent the holder's share in the total amount of Ether controlled by the protocol. Account shares aren't normalized, so the contract also stores the sum of all shares to calculate each account's token balance which equals to:   shares[account] * _getTotalPooledEther() / _getTotalShares() For example, assume that we have:   _getTotalPooledEther() -> 10 ETH   sharesOf(user1) -> 100   sharesOf(user2) -> 400 Therefore:   balanceOf(user1) -> 2 tokens which corresponds 2 ETH   balanceOf(user2) -> 8 tokens which corresponds 8 ETH Since balances of all token holders change when the amount of total pooled Ether changes, this token cannot fully implement ERC20 standard: it only emits `Transfer` events upon explicit transfer between holders. In contrast, when total amount of pooled Ether increases, no `Transfer` events are generated: doing so would require emitting an event for each token holder and thus running an unbounded loop. The token inherits from `Pausable` and uses `whenNotStopped` modifier for methods which change `shares` or `allowances`. `_stop` and `_resume` functions are overridden in `Lido.sol` and might be called by an account with the `PAUSE_ROLE` assigned by the DAO. This is useful for emergency scenarios, e.g. a protocol bug, where one might want to freeze all token transfers and approvals until the emergency is resolved.",
    "version": 1
  },
  "userdoc": {
    "events": {
      "SharesBurnt(address,uint256,uint256,uint256)": {
        "notice": "An executed `burnShares` request"
      },
      "TransferShares(address,address,uint256)": {
        "notice": "An executed shares transfer from `sender` to `recipient`."
      }
    },
    "kind": "user",
    "methods": {
      "approve(address,uint256)": {
        "notice": "Sets `_amount` as the allowance of `_spender` over the caller's tokens."
      },
      "decreaseAllowance(address,uint256)": {
        "notice": "Atomically decreases the allowance granted to `_spender` by the caller by `_subtractedValue`. This is an alternative to `approve` that can be used as a mitigation for problems described in: https://github.com/OpenZeppelin/openzeppelin-contracts/blob/master/contracts/token/ERC20/IERC20.sol#L42 Emits an `Approval` event indicating the updated allowance. Requirements: - `_spender` cannot be the zero address. - `_spender` must have allowance for the caller of at least `_subtractedValue`. - the contract must not be paused."
      },
      "increaseAllowance(address,uint256)": {
        "notice": "Atomically increases the allowance granted to `_spender` by the caller by `_addedValue`. This is an alternative to `approve` that can be used as a mitigation for problems described in: https://github.com/OpenZeppelin/openzeppelin-contracts/blob/master/contracts/token/ERC20/IERC20.sol#L42 Emits an `Approval` event indicating the updated allowance. Requirements: - `_spender` cannot be the the zero address. - the contract must not be paused."
      },
      "transfer(address,uint256)": {
        "notice": "Moves `_amount` tokens from the caller's account to the `_recipient` account."
      },
      "transferFrom(address,address,uint256)": {
        "notice": "Moves `_amount` tokens from `_sender` to `_recipient` using the allowance mechanism. `_amount` is then deducted from the caller's allowance."
      },
      "transferShares(address,uint256)": {
        "notice": "Moves `_sharesAmount` token shares from the caller's account to the `_recipient` account."
      }
    },
    "version": 1
  },
  "storageLayout": {
    "storage": [
      {
        "astId": 70,
        "contract": "contracts/StETH.sol:StETH",
        "label": "_roles",
        "offset": 0,
        "slot": "0",
        "type": "t_mapping(t_bytes32,t_struct(RoleData)65_storage)"
      },
      {
        "astId": 384,
        "contract": "contracts/StETH.sol:StETH",
        "label": "_roleMembers",
        "offset": 0,
        "slot": "1",
        "type": "t_mapping(t_bytes32,t_struct(AddressSet)2850_storage)"
      },
      {
        "astId": 4171,
        "contract": "contracts/StETH.sol:StETH",
        "label": "shares",
        "offset": 0,
        "slot": "2",
        "type": "t_mapping(t_address,t_uint256)"
      },
      {
        "astId": 4178,
        "contract": "contracts/StETH.sol:StETH",
        "label": "allowances",
        "offset": 0,
        "slot": "3",
        "type": "t_mapping(t_address,t_mapping(t_address,t_uint256))"
      },
      {
        "astId": 4180,
        "contract": "contracts/StETH.sol:StETH",
        "label": "_totalShare",
        "offset": 0,
        "slot": "4",
        "type": "t_uint256"
      },
      {
        "astId": 4182,
        "contract": "contracts/StETH.sol:StETH",
        "label": "_totalPooledEther",
        "offset": 0,
        "slot": "5",
        "type": "t_uint256"
      }
    ],
    "types": {
      "t_address": {
        "encoding": "inplace",
        "label": "address",
        "numberOfBytes": "20"
      },
      "t_array(t_bytes32)dyn_storage": {
        "base": "t_bytes32",
        "encoding": "dynamic_array",
        "label": "bytes32[]",
        "numberOfBytes": "32"
      },
      "t_bool": {
        "encoding": "inplace",
        "label": "bool",
        "numberOfBytes": "1"
      },
      "t_bytes32": {
        "encoding": "inplace",
        "label": "bytes32",
        "numberOfBytes": "32"
      },
      "t_mapping(t_address,t_bool)": {
        "encoding": "mapping",
        "key": "t_address",
        "label": "mapping(address => bool)",
        "numberOfBytes": "32",
        "value": "t_bool"
      },
      "t_mapping(t_address,t_mapping(t_address,t_uint256))": {
        "encoding": "mapping",
        "key": "t_address",
        "label": "mapping(address => mapping(address => uint256))",
        "numberOfBytes": "32",
        "value": "t_mapping(t_address,t_uint256)"
      },
      "t_mapping(t_address,t_uint256)": {
        "encoding": "mapping",
        "key": "t_address",
        "label": "mapping(address => uint256)",
        "numberOfBytes": "32",
        "value": "t_uint256"
      },
      "t_mapping(t_bytes32,t_struct(AddressSet)2850_storage)": {
        "encoding": "mapping",
        "key": "t_bytes32",
        "label": "mapping(bytes32 => struct EnumerableSet.AddressSet)",
        "numberOfBytes": "32",
        "value": "t_struct(AddressSet)2850_storage"
      },
      "t_mapping(t_bytes32,t_struct(RoleData)65_storage)": {
        "encoding": "mapping",
        "key": "t_bytes32",
        "label": "mapping(bytes32 => struct AccessControl.RoleData)",
        "numberOfBytes": "32",
        "value": "t_struct(RoleData)65_storage"
      },
      "t_mapping(t_bytes32,t_uint256)": {
        "encoding": "mapping",
        "key": "t_bytes32",
        "label": "mapping(bytes32 => uint256)",
        "numberOfBytes": "32",
        "value": "t_uint256"
      },
      "t_struct(AddressSet)2850_storage": {
        "encoding": "inplace",
        "label": "struct EnumerableSet.AddressSet",
        "members": [
          {
            "astId": 2849,
            "contract": "contracts/StETH.sol:StETH",
            "label": "_inner",
            "offset": 0,
            "slot": "0",
            "type": "t_struct(Set)2549_storage"
          }
        ],
        "numberOfBytes": "64"
      },
      "t_struct(RoleData)65_storage": {
        "encoding": "inplace",
        "label": "struct AccessControl.RoleData",
        "members": [
          {
            "astId": 62,
            "contract": "contracts/StETH.sol:StETH",
            "label": "members",
            "offset": 0,
            "slot": "0",
            "type": "t_mapping(t_address,t_bool)"
          },
          {
            "astId": 64,
            "contract": "contracts/StETH.sol:StETH",
            "label": "adminRole",
            "offset": 0,
            "slot": "1",
            "type": "t_bytes32"
          }
        ],
        "numberOfBytes": "64"
      },
      "t_struct(Set)2549_storage": {
        "encoding": "inplace",
        "label": "struct EnumerableSet.Set",
        "members": [
          {
            "astId": 2544,
            "contract": "contracts/StETH.sol:StETH",
            "label": "_values",
            "offset": 0,
            "slot": "0",
            "type": "t_array(t_bytes32)dyn_storage"
          },
          {
            "astId": 2548,
            "contract": "contracts/StETH.sol:StETH",
            "label": "_indexes",
            "offset": 0,
            "slot": "1",
            "type": "t_mapping(t_bytes32,t_uint256)"
          }
        ],
        "numberOfBytes": "64"
      },
      "t_uint256": {
        "encoding": "inplace",
        "label": "uint256",
        "numberOfBytes": "32"
      }
    }
  }
}