{
  "address": "0x0AE6FB9A465eC35981fEC902c27d1cC73277D333",
  "abi": [
    {
      "inputs": [
        {
          "internalType": "address",
          "name": "usdt_",
          "type": "address"
        },
        {
          "internalType": "address",
          "name": "stEth_",
          "type": "address"
        }
      ],
      "stateMutability": "nonpayable",
      "type": "constructor"
    },
    {
      "anonymous": false,
      "inputs": [
        {
          "indexed": true,
          "internalType": "bytes32",
          "name": "role",
          "type": "bytes32"
        },
        {
          "indexed": true,
          "internalType": "bytes32",
          "name": "previousAdminRole",
          "type": "bytes32"
        },
        {
          "indexed": true,
          "internalType": "bytes32",
          "name": "newAdminRole",
          "type": "bytes32"
        }
      ],
      "name": "RoleAdminChanged",
      "type": "event"
    },
    {
      "anonymous": false,
      "inputs": [
        {
          "indexed": true,
          "internalType": "bytes32",
          "name": "role",
          "type": "bytes32"
        },
        {
          "indexed": true,
          "internalType": "address",
          "name": "account",
          "type": "address"
        },
        {
          "indexed": true,
          "internalType": "address",
          "name": "sender",
          "type": "address"
        }
      ],
      "name": "RoleGranted",
      "type": "event"
    },
    {
      "anonymous": false,
      "inputs": [
        {
          "indexed": true,
          "internalType": "bytes32",
          "name": "role",
          "type": "bytes32"
        },
        {
          "indexed": true,
          "internalType": "address",
          "name": "account",
          "type": "address"
        },
        {
          "indexed": true,
          "internalType": "address",
          "name": "sender",
          "type": "address"
        }
      ],
      "name": "RoleRevoked",
      "type": "event"
    },
    {
      "inputs": [],
      "name": "DEFAULT_ADMIN_ROLE",
      "outputs": [
        {
          "internalType": "bytes32",
          "name": "",
          "type": "bytes32"
        }
      ],
      "stateMutability": "view",
      "type": "function"
    },
    {
      "inputs": [],
      "name": "GOVERNOR_ROLE",
      "outputs": [
        {
          "internalType": "bytes32",
          "name": "",
          "type": "bytes32"
        }
      ],
      "stateMutability": "view",
      "type": "function"
    },
    {
      "inputs": [
        {
          "internalType": "uint256",
          "name": "amount_",
          "type": "uint256"
        }
      ],
      "name": "buyEther",
      "outputs": [
        {
          "internalType": "uint256",
          "name": "",
          "type": "uint256"
        }
      ],
      "stateMutability": "nonpayable",
      "type": "function"
    },
    {
      "inputs": [
        {
          "internalType": "bytes32",
          "name": "role",
          "type": "bytes32"
        }
      ],
      "name": "getRoleAdmin",
      "outputs": [
        {
          "internalType": "bytes32",
          "name": "",
          "type": "bytes32"
        }
      ],
      "stateMutability": "view",
      "type": "function"
    },
    {
      "inputs": [
        {
          "internalType": "bytes32",
          "name": "role",
          "type": "bytes32"
        },
        {
          "internalType": "uint256",
          "name": "index",
          "type": "uint256"
        }
      ],
      "name": "getRoleMember",
      "outputs": [
        {
          "internalType": "address",
          "name": "",
          "type": "address"
        }
      ],
      "stateMutability": "view",
      "type": "function"
    },
    {
      "inputs": [
        {
          "internalType": "bytes32",
          "name": "role",
          "type": "bytes32"
        }
      ],
      "name": "getRoleMemberCount",
      "outputs": [
        {
          "internalType": "uint256",
          "name": "",
          "type": "uint256"
        }
      ],
      "stateMutability": "view",
      "type": "function"
    },
    {
      "inputs": [
        {
          "internalType": "bytes32",
          "name": "role",
          "type": "bytes32"
        },
        {
          "internalType": "address",
          "name": "account",
          "type": "address"
        }
      ],
      "name": "grantRole",
      "outputs": [],
      "stateMutability": "nonpayable",
      "type": "function"
    },
    {
      "inputs": [
        {
          "internalType": "bytes32",
          "name": "role",
          "type": "bytes32"
        },
        {
          "internalType": "address",
          "name": "account",
          "type": "address"
        }
      ],
      "name": "hasRole",
      "outputs": [
        {
          "internalType": "bool",
          "name": "",
          "type": "bool"
        }
      ],
      "stateMutability": "view",
      "type": "function"
    },
    {
      "inputs": [],
      "name": "price",
      "outputs": [
        {
          "internalType": "uint256",
          "name": "_price",
          "type": "uint256"
        }
      ],
      "stateMutability": "view",
      "type": "function"
    },
    {
      "inputs": [
        {
          "internalType": "bytes32",
          "name": "role",
          "type": "bytes32"
        },
        {
          "internalType": "address",
          "name": "account",
          "type": "address"
        }
      ],
      "name": "renounceRole",
      "outputs": [],
      "stateMutability": "nonpayable",
      "type": "function"
    },
    {
      "inputs": [
        {
          "internalType": "bytes32",
          "name": "role",
          "type": "bytes32"
        },
        {
          "internalType": "address",
          "name": "account",
          "type": "address"
        }
      ],
      "name": "revokeRole",
      "outputs": [],
      "stateMutability": "nonpayable",
      "type": "function"
    },
    {
      "inputs": [
        {
          "internalType": "uint256",
          "name": "ethAmount",
          "type": "uint256"
        }
      ],
      "name": "saleEther",
      "outputs": [
        {
          "internalType": "uint256",
          "name": "",
          "type": "uint256"
        }
      ],
      "stateMutability": "nonpayable",
      "type": "function"
    },
    {
      "inputs": [
        {
          "internalType": "bytes4",
          "name": "interfaceId",
          "type": "bytes4"
        }
      ],
      "name": "supportsInterface",
      "outputs": [
        {
          "internalType": "bool",
          "name": "",
          "type": "bool"
        }
      ],
      "stateMutability": "view",
      "type": "function"
    },
    {
      "stateMutability": "payable",
      "type": "receive"
    }
  ],
  "transactionHash": "0x1ddfa1211f8ad32ebe250ed2e6d942bebea66c02f0c92ba926bd4adbabb02001",
  "args": [
    "0xC4aF38C24FAAf495C497CDc0bF892a684B665057",
    "0xC264ef02F21A50bcF77542852c3D8955E16afaD0"
  ],
  "numDeployments": 1,
  "solcInputHash": "4c8b3cd1d4d5f7cf14126fc49044ecb9",
  "bytecode": "0x60c06040523480156200001157600080fd5b50604051620013fe380380620013fe83398101604081905262000034916200021b565b6001600160601b0319606083811b821660805282901b1660a052600280546001600160a01b03191673d4a33860578de61dbabdc8bfdb98fd742fa7028e179055620000a07f7935bd0ae54bc31f548c14dba4d37c5c64b3f8ca900cb468fb8abd54d5894f5533620000a8565b505062000253565b620000bf8282620000eb60201b6200062b1760201c565b6000828152600160209081526040909120620000e6918390620006af6200018c821b17901c565b505050565b6000828152602081815260408083206001600160a01b038516845290915290205460ff1662000188576000828152602081815260408083206001600160a01b03851684529091529020805460ff19166001179055620001473390565b6001600160a01b0316816001600160a01b0316837f2f8788117e7eff1d82e926ec794901d17c78024a50270940304540a733656f0d60405160405180910390a45b5050565b6000620001a3836001600160a01b038416620001ac565b90505b92915050565b6000818152600183016020526040812054620001f557508154600181810184556000848152602080822090930184905584548482528286019093526040902091909155620001a6565b506000620001a6565b80516001600160a01b03811681146200021657600080fd5b919050565b600080604083850312156200022f57600080fd5b6200023a83620001fe565b91506200024a60208401620001fe565b90509250929050565b60805160601c60a05160601c6111716200028d60003960008181610447015261060401526000818161041301526105cf01526111716000f3fe6080604052600436106100c65760003560e01c806391d148541161007f578063ca15c87311610059578063ca15c87314610229578063ccc5749014610249578063d547741f1461027d578063e48283671461029d57600080fd5b806391d14854146101df578063a035b1fe146101ff578063a217fddf1461021457600080fd5b806301ffc9a7146100d2578063248a9ca3146101075780632f2ff15d1461014557806336568abe1461016757806376046150146101875780639010d07c146101a757600080fd5b366100cd57005b600080fd5b3480156100de57600080fd5b506100f26100ed366004610e3a565b6102bd565b60405190151581526020015b60405180910390f35b34801561011357600080fd5b50610137610122366004610e64565b60009081526020819052604090206001015490565b6040519081526020016100fe565b34801561015157600080fd5b50610165610160366004610e7d565b6102e8565b005b34801561017357600080fd5b50610165610182366004610e7d565b610312565b34801561019357600080fd5b506101376101a2366004610e64565b610395565b3480156101b357600080fd5b506101c76101c2366004610eb9565b61046f565b6040516001600160a01b0390911681526020016100fe565b3480156101eb57600080fd5b506100f26101fa366004610e7d565b61048e565b34801561020b57600080fd5b506101376104b7565b34801561022057600080fd5b50610137600081565b34801561023557600080fd5b50610137610244366004610e64565b61055d565b34801561025557600080fd5b506101377f7935bd0ae54bc31f548c14dba4d37c5c64b3f8ca900cb468fb8abd54d5894f5581565b34801561028957600080fd5b50610165610298366004610e7d565b610574565b3480156102a957600080fd5b506101376102b8366004610e64565b610599565b60006001600160e01b03198216635a05180f60e01b14806102e257506102e2826106c4565b92915050565b600082815260208190526040902060010154610303816106f9565b61030d8383610706565b505050565b6001600160a01b03811633146103875760405162461bcd60e51b815260206004820152602f60248201527f416363657373436f6e74726f6c3a2063616e206f6e6c792072656e6f756e636560448201526e103937b632b9903337b91039b2b63360891b60648201526084015b60405180910390fd5b6103918282610728565b5050565b60008082116103dd5760405162461bcd60e51b815260206004820152601460248201527316995c9bc8115d1a195c995d5b48105b5bdd5b9d60621b604482015260640161037e565b6000670de0b6b3a76400006103f06104b7565b6103fa9085610ef1565b6104049190610f10565b905061043a6001600160a01b037f000000000000000000000000000000000000000000000000000000000000000016338361074a565b6102e26001600160a01b037f0000000000000000000000000000000000000000000000000000000000000000163330866107ad565b600082815260016020526040812061048790836107eb565b9392505050565b6000918252602082815260408084206001600160a01b0393909316845291905290205460ff1690565b600080600260009054906101000a90046001600160a01b03166001600160a01b031663feaf968c6040518163ffffffff1660e01b815260040160a06040518083038186803b15801561050857600080fd5b505afa15801561051c573d6000803e3d6000fd5b505050506040513d601f19601f820116820180604052508101906105409190610f51565b505050915050806402540be4006105579190610ef1565b91505090565b60008181526001602052604081206102e2906107f7565b60008281526020819052604090206001015461058f816106f9565b61030d8383610728565b6000806105a46104b7565b6105b684670de0b6b3a7640000610ef1565b6105c09190610f10565b90506105f76001600160a01b037f0000000000000000000000000000000000000000000000000000000000000000163330866107ad565b6102e26001600160a01b037f000000000000000000000000000000000000000000000000000000000000000016338361074a565b610635828261048e565b610391576000828152602081815260408083206001600160a01b03851684529091529020805460ff1916600117905561066b3390565b6001600160a01b0316816001600160a01b0316837f2f8788117e7eff1d82e926ec794901d17c78024a50270940304540a733656f0d60405160405180910390a45050565b6000610487836001600160a01b038416610801565b60006001600160e01b03198216637965db0b60e01b14806102e257506301ffc9a760e01b6001600160e01b03198316146102e2565b6107038133610850565b50565b610710828261062b565b600082815260016020526040902061030d90826106af565b61073282826108b4565b600082815260016020526040902061030d9082610919565b6040516001600160a01b03831660248201526044810182905261030d90849063a9059cbb60e01b906064015b60408051601f198184030181529190526020810180516001600160e01b03166001600160e01b03199093169290921790915261092e565b6040516001600160a01b03808516602483015283166044820152606481018290526107e59085906323b872dd60e01b90608401610776565b50505050565b60006104878383610a00565b60006102e2825490565b6000818152600183016020526040812054610848575081546001818101845560008481526020808220909301849055845484825282860190935260409020919091556102e2565b5060006102e2565b61085a828261048e565b61039157610872816001600160a01b03166014610a2a565b61087d836020610a2a565b60405160200161088e929190610fcd565b60408051601f198184030181529082905262461bcd60e51b825261037e91600401611042565b6108be828261048e565b15610391576000828152602081815260408083206001600160a01b0385168085529252808320805460ff1916905551339285917ff6391f5c32d9c69d2a47ea670b442974b53935d1edc7fd64eb21e047a839171b9190a45050565b6000610487836001600160a01b038416610bc6565b6000610983826040518060400160405280602081526020017f5361666545524332303a206c6f772d6c6576656c2063616c6c206661696c6564815250856001600160a01b0316610cb99092919063ffffffff16565b80519091501561030d57808060200190518101906109a19190611075565b61030d5760405162461bcd60e51b815260206004820152602a60248201527f5361666545524332303a204552433230206f7065726174696f6e20646964206e6044820152691bdd081cdd58d8d9595960b21b606482015260840161037e565b6000826000018281548110610a1757610a17611097565b9060005260206000200154905092915050565b60606000610a39836002610ef1565b610a449060026110ad565b67ffffffffffffffff811115610a5c57610a5c6110c5565b6040519080825280601f01601f191660200182016040528015610a86576020820181803683370190505b509050600360fc1b81600081518110610aa157610aa1611097565b60200101906001600160f81b031916908160001a905350600f60fb1b81600181518110610ad057610ad0611097565b60200101906001600160f81b031916908160001a9053506000610af4846002610ef1565b610aff9060016110ad565b90505b6001811115610b77576f181899199a1a9b1b9c1cb0b131b232b360811b85600f1660108110610b3357610b33611097565b1a60f81b828281518110610b4957610b49611097565b60200101906001600160f81b031916908160001a90535060049490941c93610b70816110db565b9050610b02565b5083156104875760405162461bcd60e51b815260206004820181905260248201527f537472696e67733a20686578206c656e67746820696e73756666696369656e74604482015260640161037e565b60008181526001830160205260408120548015610caf576000610bea6001836110f2565b8554909150600090610bfe906001906110f2565b9050818114610c63576000866000018281548110610c1e57610c1e611097565b9060005260206000200154905080876000018481548110610c4157610c41611097565b6000918252602080832090910192909255918252600188019052604090208390555b8554869080610c7457610c74611109565b6001900381819060005260206000200160009055905585600101600086815260200190815260200160002060009055600193505050506102e2565b60009150506102e2565b6060610cc88484600085610cd0565b949350505050565b606082471015610d315760405162461bcd60e51b815260206004820152602660248201527f416464726573733a20696e73756666696369656e742062616c616e636520666f6044820152651c8818d85b1b60d21b606482015260840161037e565b6001600160a01b0385163b610d885760405162461bcd60e51b815260206004820152601d60248201527f416464726573733a2063616c6c20746f206e6f6e2d636f6e7472616374000000604482015260640161037e565b600080866001600160a01b03168587604051610da4919061111f565b60006040518083038185875af1925050503d8060008114610de1576040519150601f19603f3d011682016040523d82523d6000602084013e610de6565b606091505b5091509150610df6828286610e01565b979650505050505050565b60608315610e10575081610487565b825115610e205782518084602001fd5b8160405162461bcd60e51b815260040161037e9190611042565b600060208284031215610e4c57600080fd5b81356001600160e01b03198116811461048757600080fd5b600060208284031215610e7657600080fd5b5035919050565b60008060408385031215610e9057600080fd5b8235915060208301356001600160a01b0381168114610eae57600080fd5b809150509250929050565b60008060408385031215610ecc57600080fd5b50508035926020909101359150565b634e487b7160e01b600052601160045260246000fd5b6000816000190483118215151615610f0b57610f0b610edb565b500290565b600082610f2d57634e487b7160e01b600052601260045260246000fd5b500490565b805169ffffffffffffffffffff81168114610f4c57600080fd5b919050565b600080600080600060a08688031215610f6957600080fd5b610f7286610f32565b9450602086015193506040860151925060608601519150610f9560808701610f32565b90509295509295909350565b60005b83811015610fbc578181015183820152602001610fa4565b838111156107e55750506000910152565b7f416363657373436f6e74726f6c3a206163636f756e7420000000000000000000815260008351611005816017850160208801610fa1565b7001034b99036b4b9b9b4b733903937b6329607d1b6017918401918201528351611036816028840160208801610fa1565b01602801949350505050565b6020815260008251806020840152611061816040850160208701610fa1565b601f01601f19169190910160400192915050565b60006020828403121561108757600080fd5b8151801515811461048757600080fd5b634e487b7160e01b600052603260045260246000fd5b600082198211156110c0576110c0610edb565b500190565b634e487b7160e01b600052604160045260246000fd5b6000816110ea576110ea610edb565b506000190190565b60008282101561110457611104610edb565b500390565b634e487b7160e01b600052603160045260246000fd5b60008251611131818460208701610fa1565b919091019291505056fea26469706673582212204a1cca4f501392077f41d7a7519b5ed44c2a21ce570810b4297a4a7d84b5ace164736f6c63430008080033",
  "devdoc": {
    "kind": "dev",
    "methods": {
      "buyEther(uint256)": {
        "params": {
          "amount_": "stEthUSDT"
        },
        "returns": {
          "_0": "uint256     stEth,wei"
        }
      },
      "getRoleAdmin(bytes32)": {
        "details": "Returns the admin role that controls `role`. See {grantRole} and {revokeRole}. To change a role's admin, use {_setRoleAdmin}."
      },
      "getRoleMember(bytes32,uint256)": {
        "details": "Returns one of the accounts that have `role`. `index` must be a value between 0 and {getRoleMemberCount}, non-inclusive. Role bearers are not sorted in any particular way, and their ordering may change at any point. WARNING: When using {getRoleMember} and {getRoleMemberCount}, make sure you perform all queries on the same block. See the following https://forum.openzeppelin.com/t/iterating-over-elements-on-enumerableset-in-openzeppelin-contracts/2296[forum post] for more information."
      },
      "getRoleMemberCount(bytes32)": {
        "details": "Returns the number of accounts that have `role`. Can be used together with {getRoleMember} to enumerate all bearers of a role."
      },
      "grantRole(bytes32,address)": {
        "details": "Grants `role` to `account`. If `account` had not been already granted `role`, emits a {RoleGranted} event. Requirements: - the caller must have ``role``'s admin role."
      },
      "hasRole(bytes32,address)": {
        "details": "Returns `true` if `account` has been granted `role`."
      },
      "renounceRole(bytes32,address)": {
        "details": "Revokes `role` from the calling account. Roles are often managed via {grantRole} and {revokeRole}: this function's purpose is to provide a mechanism for accounts to lose their privileges if they are compromised (such as when a trusted device is misplaced). If the calling account had been revoked `role`, emits a {RoleRevoked} event. Requirements: - the caller must be `account`."
      },
      "revokeRole(bytes32,address)": {
        "details": "Revokes `role` from `account`. If `account` had been granted `role`, emits a {RoleRevoked} event. Requirements: - the caller must have ``role``'s admin role."
      },
      "saleEther(uint256)": {
        "params": {
          "ethAmount": "stEth"
        },
        "returns": {
          "_0": "uint256       USDT"
        }
      },
      "supportsInterface(bytes4)": {
        "details": "See {IERC165-supportsInterface}."
      }
    },
    "version": 1
  },
  "userdoc": {
    "kind": "user",
    "methods": {
      "buyEther(uint256)": {
        "notice": "stEth"
      },
      "saleEther(uint256)": {
        "notice": "stEthUSDT"
      }
    },
    "version": 1
  },
  "storageLayout": {
    "storage": [
      {
        "astId": 70,
        "contract": "contracts/Swap.sol:Swap",
        "label": "_roles",
        "offset": 0,
        "slot": "0",
        "type": "t_mapping(t_bytes32,t_struct(RoleData)65_storage)"
      },
      {
        "astId": 384,
        "contract": "contracts/Swap.sol:Swap",
        "label": "_roleMembers",
        "offset": 0,
        "slot": "1",
        "type": "t_mapping(t_bytes32,t_struct(AddressSet)2850_storage)"
      },
      {
        "astId": 4955,
        "contract": "contracts/Swap.sol:Swap",
        "label": "priceFeed",
        "offset": 0,
        "slot": "2",
        "type": "t_contract(AggregatorV3Interface)45"
      }
    ],
    "types": {
      "t_address": {
        "encoding": "inplace",
        "label": "address",
        "numberOfBytes": "20"
      },
      "t_array(t_bytes32)dyn_storage": {
        "base": "t_bytes32",
        "encoding": "dynamic_array",
        "label": "bytes32[]",
        "numberOfBytes": "32"
      },
      "t_bool": {
        "encoding": "inplace",
        "label": "bool",
        "numberOfBytes": "1"
      },
      "t_bytes32": {
        "encoding": "inplace",
        "label": "bytes32",
        "numberOfBytes": "32"
      },
      "t_contract(AggregatorV3Interface)45": {
        "encoding": "inplace",
        "label": "contract AggregatorV3Interface",
        "numberOfBytes": "20"
      },
      "t_mapping(t_address,t_bool)": {
        "encoding": "mapping",
        "key": "t_address",
        "label": "mapping(address => bool)",
        "numberOfBytes": "32",
        "value": "t_bool"
      },
      "t_mapping(t_bytes32,t_struct(AddressSet)2850_storage)": {
        "encoding": "mapping",
        "key": "t_bytes32",
        "label": "mapping(bytes32 => struct EnumerableSet.AddressSet)",
        "numberOfBytes": "32",
        "value": "t_struct(AddressSet)2850_storage"
      },
      "t_mapping(t_bytes32,t_struct(RoleData)65_storage)": {
        "encoding": "mapping",
        "key": "t_bytes32",
        "label": "mapping(bytes32 => struct AccessControl.RoleData)",
        "numberOfBytes": "32",
        "value": "t_struct(RoleData)65_storage"
      },
      "t_mapping(t_bytes32,t_uint256)": {
        "encoding": "mapping",
        "key": "t_bytes32",
        "label": "mapping(bytes32 => uint256)",
        "numberOfBytes": "32",
        "value": "t_uint256"
      },
      "t_struct(AddressSet)2850_storage": {
        "encoding": "inplace",
        "label": "struct EnumerableSet.AddressSet",
        "members": [
          {
            "astId": 2849,
            "contract": "contracts/Swap.sol:Swap",
            "label": "_inner",
            "offset": 0,
            "slot": "0",
            "type": "t_struct(Set)2549_storage"
          }
        ],
        "numberOfBytes": "64"
      },
      "t_struct(RoleData)65_storage": {
        "encoding": "inplace",
        "label": "struct AccessControl.RoleData",
        "members": [
          {
            "astId": 62,
            "contract": "contracts/Swap.sol:Swap",
            "label": "members",
            "offset": 0,
            "slot": "0",
            "type": "t_mapping(t_address,t_bool)"
          },
          {
            "astId": 64,
            "contract": "contracts/Swap.sol:Swap",
            "label": "adminRole",
            "offset": 0,
            "slot": "1",
            "type": "t_bytes32"
          }
        ],
        "numberOfBytes": "64"
      },
      "t_struct(Set)2549_storage": {
        "encoding": "inplace",
        "label": "struct EnumerableSet.Set",
        "members": [
          {
            "astId": 2544,
            "contract": "contracts/Swap.sol:Swap",
            "label": "_values",
            "offset": 0,
            "slot": "0",
            "type": "t_array(t_bytes32)dyn_storage"
          },
          {
            "astId": 2548,
            "contract": "contracts/Swap.sol:Swap",
            "label": "_indexes",
            "offset": 0,
            "slot": "1",
            "type": "t_mapping(t_bytes32,t_uint256)"
          }
        ],
        "numberOfBytes": "64"
      },
      "t_uint256": {
        "encoding": "inplace",
        "label": "uint256",
        "numberOfBytes": "32"
      }
    }
  }
}