{
  "address": "0x6D720A93Bf2d137C254e581A9298bf508DBB9fA0",
  "abi": [
    {
      "inputs": [
        {
          "internalType": "address",
          "name": "usdt_",
          "type": "address"
        },
        {
          "internalType": "address",
          "name": "aToken_",
          "type": "address"
        },
        {
          "internalType": "address",
          "name": "bToken_",
          "type": "address"
        },
        {
          "internalType": "address",
          "name": "cToken_",
          "type": "address"
        },
        {
          "internalType": "address",
          "name": "stEth_",
          "type": "address"
        },
        {
          "internalType": "address payable",
          "name": "swap_",
          "type": "address"
        },
        {
          "internalType": "uint256",
          "name": "rewardRate_",
          "type": "uint256"
        }
      ],
      "stateMutability": "nonpayable",
      "type": "constructor"
    },
    {
      "anonymous": false,
      "inputs": [
        {
          "indexed": true,
          "internalType": "uint256",
          "name": "amt",
          "type": "uint256"
        },
        {
          "indexed": true,
          "internalType": "uint256",
          "name": "ethQty",
          "type": "uint256"
        },
        {
          "indexed": true,
          "internalType": "uint256",
          "name": "totalReserve",
          "type": "uint256"
        }
      ],
      "name": "Buy",
      "type": "event"
    },
    {
      "anonymous": false,
      "inputs": [
        {
          "indexed": true,
          "internalType": "uint256",
          "name": "amountA",
          "type": "uint256"
        },
        {
          "indexed": true,
          "internalType": "uint256",
          "name": "amountB",
          "type": "uint256"
        }
      ],
      "name": "Invest",
      "type": "event"
    },
    {
      "anonymous": false,
      "inputs": [
        {
          "indexed": true,
          "internalType": "bytes32",
          "name": "role",
          "type": "bytes32"
        },
        {
          "indexed": true,
          "internalType": "bytes32",
          "name": "previousAdminRole",
          "type": "bytes32"
        },
        {
          "indexed": true,
          "internalType": "bytes32",
          "name": "newAdminRole",
          "type": "bytes32"
        }
      ],
      "name": "RoleAdminChanged",
      "type": "event"
    },
    {
      "anonymous": false,
      "inputs": [
        {
          "indexed": true,
          "internalType": "bytes32",
          "name": "role",
          "type": "bytes32"
        },
        {
          "indexed": true,
          "internalType": "address",
          "name": "account",
          "type": "address"
        },
        {
          "indexed": true,
          "internalType": "address",
          "name": "sender",
          "type": "address"
        }
      ],
      "name": "RoleGranted",
      "type": "event"
    },
    {
      "anonymous": false,
      "inputs": [
        {
          "indexed": true,
          "internalType": "bytes32",
          "name": "role",
          "type": "bytes32"
        },
        {
          "indexed": true,
          "internalType": "address",
          "name": "account",
          "type": "address"
        },
        {
          "indexed": true,
          "internalType": "address",
          "name": "sender",
          "type": "address"
        }
      ],
      "name": "RoleRevoked",
      "type": "event"
    },
    {
      "anonymous": false,
      "inputs": [
        {
          "indexed": true,
          "internalType": "uint256",
          "name": "ethQty",
          "type": "uint256"
        },
        {
          "indexed": true,
          "internalType": "uint256",
          "name": "amt",
          "type": "uint256"
        },
        {
          "indexed": true,
          "internalType": "uint256",
          "name": "totalReserve",
          "type": "uint256"
        }
      ],
      "name": "Sale",
      "type": "event"
    },
    {
      "anonymous": false,
      "inputs": [
        {
          "indexed": true,
          "internalType": "address",
          "name": "to",
          "type": "address"
        },
        {
          "indexed": true,
          "internalType": "uint256",
          "name": "qty",
          "type": "uint256"
        }
      ],
      "name": "Transfer",
      "type": "event"
    },
    {
      "inputs": [],
      "name": "DEFAULT_ADMIN_ROLE",
      "outputs": [
        {
          "internalType": "bytes32",
          "name": "",
          "type": "bytes32"
        }
      ],
      "stateMutability": "view",
      "type": "function"
    },
    {
      "inputs": [],
      "name": "GOVERNOR_ROLE",
      "outputs": [
        {
          "internalType": "bytes32",
          "name": "",
          "type": "bytes32"
        }
      ],
      "stateMutability": "view",
      "type": "function"
    },
    {
      "inputs": [],
      "name": "LEVERAGE_DENOMINATOR",
      "outputs": [
        {
          "internalType": "uint256",
          "name": "",
          "type": "uint256"
        }
      ],
      "stateMutability": "view",
      "type": "function"
    },
    {
      "inputs": [],
      "name": "PURCHASE_ROLE",
      "outputs": [
        {
          "internalType": "bytes32",
          "name": "",
          "type": "bytes32"
        }
      ],
      "stateMutability": "view",
      "type": "function"
    },
    {
      "inputs": [],
      "name": "REWARD_RATE_DENOMINATOR",
      "outputs": [
        {
          "internalType": "uint256",
          "name": "",
          "type": "uint256"
        }
      ],
      "stateMutability": "view",
      "type": "function"
    },
    {
      "inputs": [
        {
          "internalType": "uint8",
          "name": "type_",
          "type": "uint8"
        },
        {
          "internalType": "address",
          "name": "from_",
          "type": "address"
        },
        {
          "internalType": "uint256",
          "name": "qty_",
          "type": "uint256"
        }
      ],
      "name": "burn",
      "outputs": [],
      "stateMutability": "nonpayable",
      "type": "function"
    },
    {
      "inputs": [],
      "name": "check",
      "outputs": [],
      "stateMutability": "nonpayable",
      "type": "function"
    },
    {
      "inputs": [],
      "name": "ethPrice",
      "outputs": [
        {
          "internalType": "uint256",
          "name": "",
          "type": "uint256"
        }
      ],
      "stateMutability": "view",
      "type": "function"
    },
    {
      "inputs": [
        {
          "internalType": "bytes32",
          "name": "role",
          "type": "bytes32"
        }
      ],
      "name": "getRoleAdmin",
      "outputs": [
        {
          "internalType": "bytes32",
          "name": "",
          "type": "bytes32"
        }
      ],
      "stateMutability": "view",
      "type": "function"
    },
    {
      "inputs": [
        {
          "internalType": "bytes32",
          "name": "role",
          "type": "bytes32"
        },
        {
          "internalType": "uint256",
          "name": "index",
          "type": "uint256"
        }
      ],
      "name": "getRoleMember",
      "outputs": [
        {
          "internalType": "address",
          "name": "",
          "type": "address"
        }
      ],
      "stateMutability": "view",
      "type": "function"
    },
    {
      "inputs": [
        {
          "internalType": "bytes32",
          "name": "role",
          "type": "bytes32"
        }
      ],
      "name": "getRoleMemberCount",
      "outputs": [
        {
          "internalType": "uint256",
          "name": "",
          "type": "uint256"
        }
      ],
      "stateMutability": "view",
      "type": "function"
    },
    {
      "inputs": [
        {
          "internalType": "bytes32",
          "name": "role",
          "type": "bytes32"
        },
        {
          "internalType": "address",
          "name": "account",
          "type": "address"
        }
      ],
      "name": "grantRole",
      "outputs": [],
      "stateMutability": "nonpayable",
      "type": "function"
    },
    {
      "inputs": [
        {
          "internalType": "bytes32",
          "name": "role",
          "type": "bytes32"
        },
        {
          "internalType": "address",
          "name": "account",
          "type": "address"
        }
      ],
      "name": "hasRole",
      "outputs": [
        {
          "internalType": "bool",
          "name": "",
          "type": "bool"
        }
      ],
      "stateMutability": "view",
      "type": "function"
    },
    {
      "inputs": [
        {
          "internalType": "uint8",
          "name": "type_",
          "type": "uint8"
        },
        {
          "internalType": "uint256",
          "name": "amt_",
          "type": "uint256"
        }
      ],
      "name": "incPooledAmount",
      "outputs": [],
      "stateMutability": "nonpayable",
      "type": "function"
    },
    {
      "inputs": [
        {
          "internalType": "address",
          "name": "purchase_",
          "type": "address"
        }
      ],
      "name": "initialize",
      "outputs": [],
      "stateMutability": "nonpayable",
      "type": "function"
    },
    {
      "inputs": [],
      "name": "interestRate",
      "outputs": [
        {
          "internalType": "uint256",
          "name": "",
          "type": "uint256"
        }
      ],
      "stateMutability": "view",
      "type": "function"
    },
    {
      "inputs": [],
      "name": "invest",
      "outputs": [],
      "stateMutability": "nonpayable",
      "type": "function"
    },
    {
      "inputs": [],
      "name": "leverage",
      "outputs": [
        {
          "internalType": "uint256",
          "name": "",
          "type": "uint256"
        }
      ],
      "stateMutability": "view",
      "type": "function"
    },
    {
      "inputs": [],
      "name": "matchedA",
      "outputs": [
        {
          "internalType": "uint256",
          "name": "",
          "type": "uint256"
        }
      ],
      "stateMutability": "view",
      "type": "function"
    },
    {
      "inputs": [],
      "name": "matchedB",
      "outputs": [
        {
          "internalType": "uint256",
          "name": "",
          "type": "uint256"
        }
      ],
      "stateMutability": "view",
      "type": "function"
    },
    {
      "inputs": [
        {
          "internalType": "uint8",
          "name": "type_",
          "type": "uint8"
        },
        {
          "internalType": "address",
          "name": "to_",
          "type": "address"
        },
        {
          "internalType": "uint256",
          "name": "qty_",
          "type": "uint256"
        }
      ],
      "name": "mint",
      "outputs": [],
      "stateMutability": "nonpayable",
      "type": "function"
    },
    {
      "inputs": [],
      "name": "pooledA",
      "outputs": [
        {
          "internalType": "uint256",
          "name": "",
          "type": "uint256"
        }
      ],
      "stateMutability": "view",
      "type": "function"
    },
    {
      "inputs": [],
      "name": "pooledB",
      "outputs": [
        {
          "internalType": "uint256",
          "name": "",
          "type": "uint256"
        }
      ],
      "stateMutability": "view",
      "type": "function"
    },
    {
      "inputs": [],
      "name": "rebase",
      "outputs": [],
      "stateMutability": "nonpayable",
      "type": "function"
    },
    {
      "inputs": [
        {
          "internalType": "uint8",
          "name": "type_",
          "type": "uint8"
        },
        {
          "internalType": "uint256",
          "name": "amt_",
          "type": "uint256"
        }
      ],
      "name": "redeem",
      "outputs": [],
      "stateMutability": "nonpayable",
      "type": "function"
    },
    {
      "inputs": [
        {
          "internalType": "bytes32",
          "name": "role",
          "type": "bytes32"
        },
        {
          "internalType": "address",
          "name": "account",
          "type": "address"
        }
      ],
      "name": "renounceRole",
      "outputs": [],
      "stateMutability": "nonpayable",
      "type": "function"
    },
    {
      "inputs": [
        {
          "internalType": "bytes32",
          "name": "role",
          "type": "bytes32"
        },
        {
          "internalType": "address",
          "name": "account",
          "type": "address"
        }
      ],
      "name": "revokeRole",
      "outputs": [],
      "stateMutability": "nonpayable",
      "type": "function"
    },
    {
      "inputs": [],
      "name": "rewardRate",
      "outputs": [
        {
          "internalType": "uint256",
          "name": "",
          "type": "uint256"
        }
      ],
      "stateMutability": "view",
      "type": "function"
    },
    {
      "inputs": [
        {
          "internalType": "bytes4",
          "name": "interfaceId",
          "type": "bytes4"
        }
      ],
      "name": "supportsInterface",
      "outputs": [
        {
          "internalType": "bool",
          "name": "",
          "type": "bool"
        }
      ],
      "stateMutability": "view",
      "type": "function"
    },
    {
      "inputs": [],
      "name": "totalNetWorth",
      "outputs": [
        {
          "internalType": "uint256",
          "name": "",
          "type": "uint256"
        }
      ],
      "stateMutability": "view",
      "type": "function"
    },
    {
      "inputs": [],
      "name": "totalReserve",
      "outputs": [
        {
          "internalType": "uint256",
          "name": "",
          "type": "uint256"
        }
      ],
      "stateMutability": "view",
      "type": "function"
    },
    {
      "inputs": [
        {
          "internalType": "address",
          "name": "to_",
          "type": "address"
        },
        {
          "internalType": "uint256",
          "name": "qty_",
          "type": "uint256"
        }
      ],
      "name": "transfer",
      "outputs": [],
      "stateMutability": "nonpayable",
      "type": "function"
    },
    {
      "stateMutability": "payable",
      "type": "receive"
    }
  ],
  "transactionHash": "0x1c70aa379fdd718d504bb107630991b9cb7d9f96ff4e1756f97de61f432c9f15",
  "args": [
    "0xC4aF38C24FAAf495C497CDc0bF892a684B665057",
    "0xe13988C4ea052bD497BcBA980045Dd230d5DC7e0",
    "0xB79Cce1938500A15921749ed3E2947f93394b23c",
    "0xb247682e565B57ef0Fdc5Bb02e60061b4C7C4Cd1",
    "0xC264ef02F21A50bcF77542852c3D8955E16afaD0",
    "0x0AE6FB9A465eC35981fEC902c27d1cC73277D333",
    20000
  ],
  "numDeployments": 1,
  "solcInputHash": "4c8b3cd1d4d5f7cf14126fc49044ecb9",
  "bytecode": "0x6101606040523480156200001257600080fd5b506040516200273438038062002734833981016040819052620000359162000231565b60016002556001600160601b0319606088811b821660805287811b821660c05286811b821660e05285811b82166101005284811b82166101205283901b1660a05261014081905262000089600033620000c2565b620000b57f7935bd0ae54bc31f548c14dba4d37c5c64b3f8ca900cb468fb8abd54d5894f5533620000c2565b50505050505050620002d0565b620000d982826200010560201b620012b91760201c565b6000828152600160209081526040909120620001009183906200133d620001a6821b17901c565b505050565b6000828152602081815260408083206001600160a01b038516845290915290205460ff16620001a2576000828152602081815260408083206001600160a01b03851684529091529020805460ff19166001179055620001613390565b6001600160a01b0316816001600160a01b0316837f2f8788117e7eff1d82e926ec794901d17c78024a50270940304540a733656f0d60405160405180910390a45b5050565b6000620001bd836001600160a01b038416620001c6565b90505b92915050565b60008181526001830160205260408120546200020f57508154600181810184556000848152602080822090930184905584548482528286019093526040902091909155620001c0565b506000620001c0565b6001600160a01b03811681146200022e57600080fd5b50565b600080600080600080600060e0888a0312156200024d57600080fd5b87516200025a8162000218565b60208901519097506200026d8162000218565b6040890151909650620002808162000218565b6060890151909550620002938162000218565b6080890151909450620002a68162000218565b60a0890151909350620002b98162000218565b8092505060c0880151905092959891949750929550565b60805160601c60a05160601c60c05160601c60e05160601c6101005160601c6101205160601c610140516123986200039c600039600081816103670152818161088f015281816109440152610cba0152600061155501526000505060008181610a5401528181610ded01526111f70152600081816107f8015281816108b3015281816109c0015261119601526000818161070c0152818161122a0152818161152601528181611647015281816117370152611846015260008181610c22015261176901526123986000f3fe6080604052600436106101e75760003560e01c8063919840ad11610102578063ca15c87311610095578063e8b5e51f11610064578063e8b5e51f14610561578063ea9fc17914610576578063eebab8ef14610598578063ff186b2e146105b857600080fd5b8063ca15c873146104cd578063ccc57490146104ed578063d547741f14610521578063e61989971461054157600080fd5b8063a9059cbb116100d1578063a9059cbb14610458578063af14052c14610478578063bb482f961461048d578063c4d66de8146104ad57600080fd5b8063919840ad146103f657806391d148541461040b5780639c373dc51461042b578063a217fddf1461044357600080fd5b80635591ce5a1161017a5780637b0a47ee116101495780637b0a47ee146103555780637c3a00fd146103895780638eb86e8b1461039e5780639010d07c146103be57600080fd5b80635591ce5a146102fe57806362ef432f146103145780636e33bfbe146103295780636ff156221461033f57600080fd5b8063351fe300116101b6578063351fe3001461029d57806336568abe146102b35780634233799c146102d35780634c68df67146102e857600080fd5b806301ffc9a7146101f3578063248a9ca3146102285780632c86d98e146102665780632f2ff15d1461027b57600080fd5b366101ee57005b600080fd5b3480156101ff57600080fd5b5061021361020e366004611fa6565b6105cd565b60405190151581526020015b60405180910390f35b34801561023457600080fd5b50610258610243366004611fd0565b60009081526020819052604090206001015490565b60405190815260200161021f565b34801561027257600080fd5b506102586105f8565b34801561028757600080fd5b5061029b610296366004612005565b61064c565b005b3480156102a957600080fd5b5061025860065481565b3480156102bf57600080fd5b5061029b6102ce366004612005565b610676565b3480156102df57600080fd5b506102586106f9565b3480156102f457600080fd5b5061025860045481565b34801561030a57600080fd5b5061025860055481565b34801561032057600080fd5b506102586107bc565b34801561033557600080fd5b5061025861271081565b34801561034b57600080fd5b5061025860075481565b34801561036157600080fd5b506102587f000000000000000000000000000000000000000000000000000000000000000081565b34801561039557600080fd5b506102586107f3565b3480156103aa57600080fd5b5061029b6103b9366004612042565b61097a565b3480156103ca57600080fd5b506103de6103d936600461207e565b610ad4565b6040516001600160a01b03909116815260200161021f565b34801561040257600080fd5b5061029b610af3565b34801561041757600080fd5b50610213610426366004612005565b610bae565b34801561043757600080fd5b506102586305f5e10081565b34801561044f57600080fd5b50610258600081565b34801561046457600080fd5b5061029b6104733660046120a0565b610bd7565b34801561048457600080fd5b5061029b610c89565b34801561049957600080fd5b5061029b6104a83660046120ca565b610d09565b3480156104b957600080fd5b5061029b6104c83660046120e6565b610ece565b3480156104d957600080fd5b506102586104e8366004611fd0565b610f75565b3480156104f957600080fd5b506102587f7935bd0ae54bc31f548c14dba4d37c5c64b3f8ca900cb468fb8abd54d5894f5581565b34801561052d57600080fd5b5061029b61053c366004612005565b610f8c565b34801561054d57600080fd5b5061029b61055c3660046120ca565b610fb1565b34801561056d57600080fd5b5061029b61100c565b34801561058257600080fd5b5061025860008051602061234383398151915281565b3480156105a457600080fd5b5061029b6105b3366004612042565b611150565b3480156105c457600080fd5b50610258611226565b60006001600160e01b03198216635a05180f60e01b14806105f257506105f282611352565b92915050565b6000806106036107bc565b1161060f5750614e2090565b61061c6127106001612117565b6106246107bc565b60065461063390612710612117565b61063d9190612136565b6106479190612158565b905090565b60008281526020819052604090206001015461066781611387565b6106718383611394565b505050565b6001600160a01b03811633146106eb5760405162461bcd60e51b815260206004820152602f60248201527f416363657373436f6e74726f6c3a2063616e206f6e6c792072656e6f756e636560448201526e103937b632b9903337b91039b2b63360891b60648201526084015b60405180910390fd5b6106f582826113b6565b5050565b6000600754600554670de0b6b3a76400007f00000000000000000000000000000000000000000000000000000000000000006001600160a01b031663a035b1fe6040518163ffffffff1660e01b815260040160206040518083038186803b15801561076357600080fd5b505afa158015610777573d6000803e3d6000fd5b505050506040513d601f19601f8201168201806040525081019061079b9190612170565b6004546107a89190612117565b6107b29190612136565b61063d9190612158565b6000600654670de0b6b3a76400006107d2611226565b6004546107df9190612117565b6107e99190612136565b6106479190612189565b6000807f00000000000000000000000000000000000000000000000000000000000000006001600160a01b0316634233799c6040518163ffffffff1660e01b815260040160206040518083038186803b15801561084f57600080fd5b505afa158015610863573d6000803e3d6000fd5b505050506040513d601f19601f820116820180604052508101906108879190612170565b116108b157507f000000000000000000000000000000000000000000000000000000000000000090565b7f00000000000000000000000000000000000000000000000000000000000000006001600160a01b0316634233799c6040518163ffffffff1660e01b815260040160206040518083038186803b15801561090a57600080fd5b505afa15801561091e573d6000803e3d6000fd5b505050506040513d601f19601f820116820180604052508101906109429190612170565b7f00000000000000000000000000000000000000000000000000000000000000006006546109709190612117565b6106479190612136565b60008051602061234383398151915261099281611387565b60ff8416610a2257604051632770a7eb60e21b81526001600160a01b038481166004830152602482018490527f00000000000000000000000000000000000000000000000000000000000000001690639dc29fac906044015b600060405180830381600087803b158015610a0557600080fd5b505af1158015610a19573d6000803e3d6000fd5b50505050610ace565b8360ff1660011415610a8357604051632770a7eb60e21b81526001600160a01b038481166004830152602482018490527f00000000000000000000000000000000000000000000000000000000000000001690639dc29fac906044016109eb565b604080518082018252601781527f54726561737572793a20496e76616c696420546f6b656e0000000000000000006020820152905162461bcd60e51b81526106e291906004016121cc565b50505050565b6000828152600160205260408120610aec90836113d8565b9392505050565b600280541415610b155760405162461bcd60e51b81526004016106e2906121ff565b60028055600654670de0b6b3a7640000610b2d611226565b600454610b3a9190612117565b610b449190612136565b1015610b7657670de0b6b3a7640000610b5b611226565b600454610b689190612117565b610b729190612136565b6006555b60056006546003610b879190612117565b610b919190612136565b610b996107bc565b1015610ba757610ba76113e4565b6001600255565b6000918252602082815260408084206001600160a01b0393909316845291905290205460ff1690565b600280541415610bf95760405162461bcd60e51b81526004016106e2906121ff565b60028055600080516020612343833981519152610c1581611387565b610c496001600160a01b037f0000000000000000000000000000000000000000000000000000000000000000168484611429565b60405182906001600160a01b038516907f69ca02dd4edd7bf0a4abb9ed3b7af3f14778db5d61921c7dc7cd545266326de290600090a35050600160025550565b7f7935bd0ae54bc31f548c14dba4d37c5c64b3f8ca900cb468fb8abd54d5894f55610cb381611387565b6305f5e1007f0000000000000000000000000000000000000000000000000000000000000000600654610ce69190612117565b610cf09190612136565b60066000828254610d019190612158565b909155505050565b600080516020612343833981519152610d2181611387565b600280541415610d435760405162461bcd60e51b81526004016106e2906121ff565b6002805560ff8316610dc9576005548211610d6857610d6360008361147b565b610ec4565b600060055483610d789190612189565b90506000610d84611226565b610d9683670de0b6b3a7640000612117565b610da09190612136565b9050610dab816114be565b50610db582611704565b610dc2600060055461147b565b5050610ec4565b8260ff1660011415610a83576007548211610de957610d6360018361147b565b60007f00000000000000000000000000000000000000000000000000000000000000006001600160a01b0316634233799c6040518163ffffffff1660e01b815260040160206040518083038186803b158015610e4457600080fd5b505afa158015610e58573d6000803e3d6000fd5b505050506040513d601f19601f82011682018060405250810190610e7c9190612170565b83600454610e8a9190612117565b610e949190612136565b90506000610ea1826114be565b9050610eb2600061055c8684612189565b610dc2610ebf8583612189565b611704565b5050600160025550565b6000610ed981611387565b60035460408051808201909152601c81527f436f6e747261637420416c726561647920496e697469616c697a656400000000602082015290600160a01b900460ff1615610f395760405162461bcd60e51b81526004016106e291906121cc565b50600380546001600160a01b0384166001600160a81b031990911617600160a01b1790556106f560008051602061234383398151915283611394565b60008181526001602052604081206105f290611716565b600082815260208190526040902060010154610fa781611387565b61067183836113b6565b600080516020612343833981519152610fc981611387565b60ff8316610fee578160056000828254610fe39190612158565b909155506106719050565b8260ff1660011415610a83578160076000828254610fe39190612158565b7f7935bd0ae54bc31f548c14dba4d37c5c64b3f8ca900cb468fb8abd54d5894f5561103681611387565b6002805414156110585760405162461bcd60e51b81526004016106e2906121ff565b60028055600754156111485760055460075411156110e2576110886005546007546110839190612158565b611720565b5061109460055461195b565b6007546005546040517fb089286041f4c8faf70006ecf5d7f8b6dce0f3bba8bdc30c237fd656060bff2c90600090a36110d0600060055461147b565b6110dd600160075461147b565b611148565b6110f460075460026110839190612117565b5061110060075461195b565b60075460405181907fb089286041f4c8faf70006ecf5d7f8b6dce0f3bba8bdc30c237fd656060bff2c90600090a361113b600060075461147b565b611148600160075461147b565b506001600255565b60008051602061234383398151915261116881611387565b60ff84166111c5576040516340c10f1960e01b81526001600160a01b038481166004830152602482018490527f000000000000000000000000000000000000000000000000000000000000000016906340c10f19906044016109eb565b8360ff1660011415610a83576040516340c10f1960e01b81526001600160a01b038481166004830152602482018490527f000000000000000000000000000000000000000000000000000000000000000016906340c10f19906044016109eb565b60007f00000000000000000000000000000000000000000000000000000000000000006001600160a01b031663a035b1fe6040518163ffffffff1660e01b815260040160206040518083038186803b15801561128157600080fd5b505afa158015611295573d6000803e3d6000fd5b505050506040513d601f19601f820116820180604052508101906106479190612170565b6112c38282610bae565b6106f5576000828152602081815260408083206001600160a01b03851684529091529020805460ff191660011790556112f93390565b6001600160a01b0316816001600160a01b0316837f2f8788117e7eff1d82e926ec794901d17c78024a50270940304540a733656f0d60405160405180910390a45050565b6000610aec836001600160a01b03841661196d565b60006001600160e01b03198216637965db0b60e01b14806105f257506301ffc9a760e01b6001600160e01b03198316146105f2565b61139181336119bc565b50565b61139e82826112b9565b6000828152600160205260409020610671908261133d565b6113c08282611a20565b60008281526001602052604090206106719082611a85565b6000610aec8383611a9a565b60006113fc600480546113f79190612136565b6114be565b905080600660008282546114109190612189565b925050819055508060056000828254610d019190612158565b604080516001600160a01b038416602482015260448082018490528251808303909101815260649091019091526020810180516001600160e01b031663a9059cbb60e01b179052610671908490611ac4565b60ff82166114a05780600560008282546114959190612189565b909155506106f59050565b8160ff1660011415610a835780600760008282546114959190612189565b600080821161150f5760405162461bcd60e51b815260206004820152601860248201527f54726561737572793a57726f6e6720506172616d65746572000000000000000060448201526064016106e2565b60405163095ea7b360e01b81526001600160a01b037f000000000000000000000000000000000000000000000000000000000000000081166004830152602482018490527f0000000000000000000000000000000000000000000000000000000000000000169063095ea7b390604401602060405180830381600087803b15801561159957600080fd5b505af11580156115ad573d6000803e3d6000fd5b505050506040513d601f19601f820116820180604052508101906115d19190612236565b6116175760405162461bcd60e51b8152602060048201526017602482015276151c99585cdd5c9e4e905c1c1c9bdd994811985a5b1959604a1b60448201526064016106e2565b81600460008282546116299190612189565b9091555050604051630760461560e41b8152600481018390526000907f00000000000000000000000000000000000000000000000000000000000000006001600160a01b031690637604615090602401602060405180830381600087803b15801561169357600080fd5b505af11580156116a7573d6000803e3d6000fd5b505050506040513d601f19601f820116820180604052508101906116cb9190612170565b905060045481847f54a7427e322c8225f1056b28c104a315b7a2e6e3a052c0ea1b514805031cdab960405160405180910390a492915050565b8060066000828254610d019190612189565b60006105f2825490565b60405163095ea7b360e01b81526001600160a01b037f000000000000000000000000000000000000000000000000000000000000000081166004830152602482018390526000917f00000000000000000000000000000000000000000000000000000000000000009091169063095ea7b390604401602060405180830381600087803b1580156117af57600080fd5b505af11580156117c3573d6000803e3d6000fd5b505050506040513d601f19601f820116820180604052508101906117e79190612236565b61182d5760405162461bcd60e51b8152602060048201526017602482015276151c99585cdd5c9e4e905c1c1c9bdd994811985a5b1959604a1b60448201526064016106e2565b60405163e482836760e01b8152600481018390526000907f00000000000000000000000000000000000000000000000000000000000000006001600160a01b03169063e482836790602401602060405180830381600087803b15801561189257600080fd5b505af11580156118a6573d6000803e3d6000fd5b505050506040513d601f19601f820116820180604052508101906118ca9190612170565b90506000811161190e5760405162461bcd60e51b815260206004820152600f60248201526e213abc9022ba3432b91022b93937b960891b60448201526064016106e2565b80600460008282546119209190612158565b9091555050600454604051829085907fb05532e21b444e9778dc1661bc462d41ba18ec113dc5e87d9d7a3849ff02d1e890600090a492915050565b8060066000828254610d019190612158565b60008181526001830160205260408120546119b4575081546001818101845560008481526020808220909301849055845484825282860190935260409020919091556105f2565b5060006105f2565b6119c68282610bae565b6106f5576119de816001600160a01b03166014611b96565b6119e9836020611b96565b6040516020016119fa929190612258565b60408051601f198184030181529082905262461bcd60e51b82526106e2916004016121cc565b611a2a8282610bae565b156106f5576000828152602081815260408083206001600160a01b0385168085529252808320805460ff1916905551339285917ff6391f5c32d9c69d2a47ea670b442974b53935d1edc7fd64eb21e047a839171b9190a45050565b6000610aec836001600160a01b038416611d32565b6000826000018281548110611ab157611ab16122cd565b9060005260206000200154905092915050565b6000611b19826040518060400160405280602081526020017f5361666545524332303a206c6f772d6c6576656c2063616c6c206661696c6564815250856001600160a01b0316611e259092919063ffffffff16565b8051909150156106715780806020019051810190611b379190612236565b6106715760405162461bcd60e51b815260206004820152602a60248201527f5361666545524332303a204552433230206f7065726174696f6e20646964206e6044820152691bdd081cdd58d8d9595960b21b60648201526084016106e2565b60606000611ba5836002612117565b611bb0906002612158565b67ffffffffffffffff811115611bc857611bc86122e3565b6040519080825280601f01601f191660200182016040528015611bf2576020820181803683370190505b509050600360fc1b81600081518110611c0d57611c0d6122cd565b60200101906001600160f81b031916908160001a905350600f60fb1b81600181518110611c3c57611c3c6122cd565b60200101906001600160f81b031916908160001a9053506000611c60846002612117565b611c6b906001612158565b90505b6001811115611ce3576f181899199a1a9b1b9c1cb0b131b232b360811b85600f1660108110611c9f57611c9f6122cd565b1a60f81b828281518110611cb557611cb56122cd565b60200101906001600160f81b031916908160001a90535060049490941c93611cdc816122f9565b9050611c6e565b508315610aec5760405162461bcd60e51b815260206004820181905260248201527f537472696e67733a20686578206c656e67746820696e73756666696369656e7460448201526064016106e2565b60008181526001830160205260408120548015611e1b576000611d56600183612189565b8554909150600090611d6a90600190612189565b9050818114611dcf576000866000018281548110611d8a57611d8a6122cd565b9060005260206000200154905080876000018481548110611dad57611dad6122cd565b6000918252602080832090910192909255918252600188019052604090208390555b8554869080611de057611de0612310565b6001900381819060005260206000200160009055905585600101600086815260200190815260200160002060009055600193505050506105f2565b60009150506105f2565b6060611e348484600085611e3c565b949350505050565b606082471015611e9d5760405162461bcd60e51b815260206004820152602660248201527f416464726573733a20696e73756666696369656e742062616c616e636520666f6044820152651c8818d85b1b60d21b60648201526084016106e2565b6001600160a01b0385163b611ef45760405162461bcd60e51b815260206004820152601d60248201527f416464726573733a2063616c6c20746f206e6f6e2d636f6e747261637400000060448201526064016106e2565b600080866001600160a01b03168587604051611f109190612326565b60006040518083038185875af1925050503d8060008114611f4d576040519150601f19603f3d011682016040523d82523d6000602084013e611f52565b606091505b5091509150611f62828286611f6d565b979650505050505050565b60608315611f7c575081610aec565b825115611f8c5782518084602001fd5b8160405162461bcd60e51b81526004016106e291906121cc565b600060208284031215611fb857600080fd5b81356001600160e01b031981168114610aec57600080fd5b600060208284031215611fe257600080fd5b5035919050565b80356001600160a01b038116811461200057600080fd5b919050565b6000806040838503121561201857600080fd5b8235915061202860208401611fe9565b90509250929050565b803560ff8116811461200057600080fd5b60008060006060848603121561205757600080fd5b61206084612031565b925061206e60208501611fe9565b9150604084013590509250925092565b6000806040838503121561209157600080fd5b50508035926020909101359150565b600080604083850312156120b357600080fd5b6120bc83611fe9565b946020939093013593505050565b600080604083850312156120dd57600080fd5b6120bc83612031565b6000602082840312156120f857600080fd5b610aec82611fe9565b634e487b7160e01b600052601160045260246000fd5b600081600019048311821515161561213157612131612101565b500290565b60008261215357634e487b7160e01b600052601260045260246000fd5b500490565b6000821982111561216b5761216b612101565b500190565b60006020828403121561218257600080fd5b5051919050565b60008282101561219b5761219b612101565b500390565b60005b838110156121bb5781810151838201526020016121a3565b83811115610ace5750506000910152565b60208152600082518060208401526121eb8160408501602087016121a0565b601f01601f19169190910160400192915050565b6020808252601f908201527f5265656e7472616e637947756172643a207265656e7472616e742063616c6c00604082015260600190565b60006020828403121561224857600080fd5b81518015158114610aec57600080fd5b7f416363657373436f6e74726f6c3a206163636f756e74200000000000000000008152600083516122908160178501602088016121a0565b7001034b99036b4b9b9b4b733903937b6329607d1b60179184019182015283516122c18160288401602088016121a0565b01602801949350505050565b634e487b7160e01b600052603260045260246000fd5b634e487b7160e01b600052604160045260246000fd5b60008161230857612308612101565b506000190190565b634e487b7160e01b600052603160045260246000fd5b600082516123388184602087016121a0565b919091019291505056fe49df85275badebe343b7d35f7679f3258179609d3710b80119af5779c66ec84fa2646970667358221220798ca1dad643c26b2dfc323efbec94e94c3b1c83e72e5fb4ff3cc9c88765dc1764736f6c63430008080033",
  "devdoc": {
    "kind": "dev",
    "methods": {
      "burn(uint8,address,uint256)": {
        "params": {
          "from_": "",
          "qty_": "",
          "type_": "0aToken,1bToken"
        }
      },
      "ethPrice()": {
        "returns": {
          "_0": "uint256"
        }
      },
      "getRoleAdmin(bytes32)": {
        "details": "Returns the admin role that controls `role`. See {grantRole} and {revokeRole}. To change a role's admin, use {_setRoleAdmin}."
      },
      "getRoleMember(bytes32,uint256)": {
        "details": "Returns one of the accounts that have `role`. `index` must be a value between 0 and {getRoleMemberCount}, non-inclusive. Role bearers are not sorted in any particular way, and their ordering may change at any point. WARNING: When using {getRoleMember} and {getRoleMemberCount}, make sure you perform all queries on the same block. See the following https://forum.openzeppelin.com/t/iterating-over-elements-on-enumerableset-in-openzeppelin-contracts/2296[forum post] for more information."
      },
      "getRoleMemberCount(bytes32)": {
        "details": "Returns the number of accounts that have `role`. Can be used together with {getRoleMember} to enumerate all bearers of a role."
      },
      "grantRole(bytes32,address)": {
        "details": "Grants `role` to `account`. If `account` had not been already granted `role`, emits a {RoleGranted} event. Requirements: - the caller must have ``role``'s admin role."
      },
      "hasRole(bytes32,address)": {
        "details": "Returns `true` if `account` has been granted `role`."
      },
      "incPooledAmount(uint8,uint256)": {
        "params": {
          "amt_": "",
          "type_": "0aToken,1bToken"
        }
      },
      "initialize(address)": {
        "params": {
          "purchase_": ""
        }
      },
      "leverage()": {
        "returns": {
          "_0": "uint256   bToken"
        }
      },
      "matchedB()": {
        "returns": {
          "_0": "uint256"
        }
      },
      "mint(uint8,address,uint256)": {
        "params": {
          "qty_": "",
          "to_": "",
          "type_": "0aToken,1bToken"
        }
      },
      "redeem(uint8,uint256)": {
        "params": {
          "amt_": "",
          "type_": "0aToken,1bToken"
        }
      },
      "renounceRole(bytes32,address)": {
        "details": "Revokes `role` from the calling account. Roles are often managed via {grantRole} and {revokeRole}: this function's purpose is to provide a mechanism for accounts to lose their privileges if they are compromised (such as when a trusted device is misplaced). If the calling account had been revoked `role`, emits a {RoleRevoked} event. Requirements: - the caller must be `account`."
      },
      "revokeRole(bytes32,address)": {
        "details": "Revokes `role` from `account`. If `account` had been granted `role`, emits a {RoleRevoked} event. Requirements: - the caller must have ``role``'s admin role."
      },
      "supportsInterface(bytes4)": {
        "details": "See {IERC165-supportsInterface}."
      },
      "totalNetWorth()": {
        "returns": {
          "_0": "uint256       "
        }
      },
      "transfer(address,uint256)": {
        "params": {
          "qty_": "USDT",
          "to_": ""
        }
      }
    },
    "version": 1
  },
  "userdoc": {
    "kind": "user",
    "methods": {
      "burn(uint8,address,uint256)": {
        "notice": "aTokenbToken"
      },
      "check()": {
        "notice": "bToken,aToken60%"
      },
      "ethPrice()": {
        "notice": "stEth"
      },
      "incPooledAmount(uint8,uint256)": {
        "notice": ""
      },
      "initialize(address)": {
        "notice": ""
      },
      "interestRate()": {
        "notice": "aToken"
      },
      "invest()": {
        "notice": ""
      },
      "leverage()": {
        "notice": "=aToken/bToken+1"
      },
      "matchedB()": {
        "notice": "bToken"
      },
      "mint(uint8,address,uint256)": {
        "notice": "aTokenbToken"
      },
      "rebase()": {
        "notice": ",aToken"
      },
      "redeem(uint8,uint256)": {
        "notice": ""
      },
      "totalNetWorth()": {
        "notice": "=*+pooledA+pooledB"
      },
      "transfer(address,uint256)": {
        "notice": "USDT"
      }
    },
    "version": 1
  },
  "storageLayout": {
    "storage": [
      {
        "astId": 70,
        "contract": "contracts/Treasury.sol:Treasury",
        "label": "_roles",
        "offset": 0,
        "slot": "0",
        "type": "t_mapping(t_bytes32,t_struct(RoleData)65_storage)"
      },
      {
        "astId": 384,
        "contract": "contracts/Treasury.sol:Treasury",
        "label": "_roleMembers",
        "offset": 0,
        "slot": "1",
        "type": "t_mapping(t_bytes32,t_struct(AddressSet)2850_storage)"
      },
      {
        "astId": 691,
        "contract": "contracts/Treasury.sol:Treasury",
        "label": "_status",
        "offset": 0,
        "slot": "2",
        "type": "t_uint256"
      },
      {
        "astId": 5150,
        "contract": "contracts/Treasury.sol:Treasury",
        "label": "purchase",
        "offset": 0,
        "slot": "3",
        "type": "t_contract(EzPurchase)3523"
      },
      {
        "astId": 5152,
        "contract": "contracts/Treasury.sol:Treasury",
        "label": "initialized",
        "offset": 20,
        "slot": "3",
        "type": "t_bool"
      },
      {
        "astId": 5154,
        "contract": "contracts/Treasury.sol:Treasury",
        "label": "totalReserve",
        "offset": 0,
        "slot": "4",
        "type": "t_uint256"
      },
      {
        "astId": 5156,
        "contract": "contracts/Treasury.sol:Treasury",
        "label": "pooledA",
        "offset": 0,
        "slot": "5",
        "type": "t_uint256"
      },
      {
        "astId": 5158,
        "contract": "contracts/Treasury.sol:Treasury",
        "label": "matchedA",
        "offset": 0,
        "slot": "6",
        "type": "t_uint256"
      },
      {
        "astId": 5160,
        "contract": "contracts/Treasury.sol:Treasury",
        "label": "pooledB",
        "offset": 0,
        "slot": "7",
        "type": "t_uint256"
      }
    ],
    "types": {
      "t_address": {
        "encoding": "inplace",
        "label": "address",
        "numberOfBytes": "20"
      },
      "t_array(t_bytes32)dyn_storage": {
        "base": "t_bytes32",
        "encoding": "dynamic_array",
        "label": "bytes32[]",
        "numberOfBytes": "32"
      },
      "t_bool": {
        "encoding": "inplace",
        "label": "bool",
        "numberOfBytes": "1"
      },
      "t_bytes32": {
        "encoding": "inplace",
        "label": "bytes32",
        "numberOfBytes": "32"
      },
      "t_contract(EzPurchase)3523": {
        "encoding": "inplace",
        "label": "contract EzPurchase",
        "numberOfBytes": "20"
      },
      "t_mapping(t_address,t_bool)": {
        "encoding": "mapping",
        "key": "t_address",
        "label": "mapping(address => bool)",
        "numberOfBytes": "32",
        "value": "t_bool"
      },
      "t_mapping(t_bytes32,t_struct(AddressSet)2850_storage)": {
        "encoding": "mapping",
        "key": "t_bytes32",
        "label": "mapping(bytes32 => struct EnumerableSet.AddressSet)",
        "numberOfBytes": "32",
        "value": "t_struct(AddressSet)2850_storage"
      },
      "t_mapping(t_bytes32,t_struct(RoleData)65_storage)": {
        "encoding": "mapping",
        "key": "t_bytes32",
        "label": "mapping(bytes32 => struct AccessControl.RoleData)",
        "numberOfBytes": "32",
        "value": "t_struct(RoleData)65_storage"
      },
      "t_mapping(t_bytes32,t_uint256)": {
        "encoding": "mapping",
        "key": "t_bytes32",
        "label": "mapping(bytes32 => uint256)",
        "numberOfBytes": "32",
        "value": "t_uint256"
      },
      "t_struct(AddressSet)2850_storage": {
        "encoding": "inplace",
        "label": "struct EnumerableSet.AddressSet",
        "members": [
          {
            "astId": 2849,
            "contract": "contracts/Treasury.sol:Treasury",
            "label": "_inner",
            "offset": 0,
            "slot": "0",
            "type": "t_struct(Set)2549_storage"
          }
        ],
        "numberOfBytes": "64"
      },
      "t_struct(RoleData)65_storage": {
        "encoding": "inplace",
        "label": "struct AccessControl.RoleData",
        "members": [
          {
            "astId": 62,
            "contract": "contracts/Treasury.sol:Treasury",
            "label": "members",
            "offset": 0,
            "slot": "0",
            "type": "t_mapping(t_address,t_bool)"
          },
          {
            "astId": 64,
            "contract": "contracts/Treasury.sol:Treasury",
            "label": "adminRole",
            "offset": 0,
            "slot": "1",
            "type": "t_bytes32"
          }
        ],
        "numberOfBytes": "64"
      },
      "t_struct(Set)2549_storage": {
        "encoding": "inplace",
        "label": "struct EnumerableSet.Set",
        "members": [
          {
            "astId": 2544,
            "contract": "contracts/Treasury.sol:Treasury",
            "label": "_values",
            "offset": 0,
            "slot": "0",
            "type": "t_array(t_bytes32)dyn_storage"
          },
          {
            "astId": 2548,
            "contract": "contracts/Treasury.sol:Treasury",
            "label": "_indexes",
            "offset": 0,
            "slot": "1",
            "type": "t_mapping(t_bytes32,t_uint256)"
          }
        ],
        "numberOfBytes": "64"
      },
      "t_uint256": {
        "encoding": "inplace",
        "label": "uint256",
        "numberOfBytes": "32"
      }
    }
  }
}